:400000000040002011000000AD1D0000AD1D000008B5044B1A6803F53F5302331A6001F0CDFE00BFFA46004010B5054C237833B9044B13B10448AFF300800123237010BD57
:4000400050C1FF1F00000000DC4E0000084B10B51BB108490848AFF300800848036803B910BD074B002BFBD0BDE81040184700BF0000000054C1FF1FDC4E0000C8C0FF1FDE
:40008000000000002DE9F04F99B000240D940C9400F06EFC62B602F07FFCC04AC04B1A6001F072FF01F084FF02F036FD02F044FBBC49BD4800F0AAFD1DE0264618AB03EBE8
:4000C00044034FF4806223F8282C0134E4B275000EAB5919204600F0CBFDB21DB34B042103F8121005F10D0000221A54183603F8161031355A550F2CDFD902F0FBFEAC4AA2
:400100000221084602F05AFEA84C22465821084602F07AFE072384F8533003F02BF903F097F903F003FA01F0F3F900F023FFA14800F0FEFB4FF000084746C2464FF4806301
:400140000293CDF80C80C346444600E04C4602F021FE8146844207D010F0080F04D000F02BFC0D904FF0000B41F288310DA800F017FC08B14FF0010B8C4B93F85230DBB21D
:400180009F4201D04FF0010A884B93F85270FFB2012001F011FF50B90CE0204601F018FFC0F3C700814B18550134E4B200E00024052CF2D900230EE0DA1C7C4810F812404A
:4001C0005A00D11D415C18A8024441EA042122F8081C0133DBB2022BEED9BDF8580003F083F8BDF85A0003F0EDF8BDF85C0003F057F96E4C94F8540003F0A6F994F855000E
:4002000003F0AEF994F8560003F0B6F900F020FD012816D036E0661CF6B265000EAB5919304600F025FD063418AB2B4433F8283C190A5E4A02F814100D35DBB25355344657
:4002400000E000240F2CE6D900F01CFD574C84F82C0000F01DFD84F82D0000F01FFD84F82F0000F021FD84F82E0000F0A5FB0C90BDF84030029A9A4201D1029302E0029363
:400280000123039300F010FD28B94FF47A710CA800F086FB58B1454B93F8573013F0FF0F2FD10027414B83F85270B84629E0039B3BB3BDF84030B3F5307F07D200233B4A17
:4002C00082F8523098461F4603931AE0A3F5307292B2B2F5207F07D24FF00108334B83F85280002303930CE0B3F5A86F07D34FF002082E4B83F852800023039301E0002375
:400300000393BAF1000F1DD0284B93F85230DBB2012B03D09BB1022B05D009E04FF001084FF0000A0EE04FF002084FF0000A09E04FF0000A1D4B83F852A0D04602E04FF0EE
:400340000008C246B8F1010F36D108AA0121BDF9380001F01FF908AA0221BDF93A0001F019F9012208A9084601F074F9022208A9084601F06FF908AA0621BDF9420001F05C
:4003800009F9BDF92A30B3F5967F01DB012400E000240122054B83F8522059E0B5290000A0C2FF1FE5270000B927000078C1FF1FD0C1FF1FE04E0000B8F1020F32D1BBF1E9
:4003C000000F0CD0AE4B042183F83010002283F8312083F8321083F8332083F85220A84C94F8300094F8313043EA002008AA012100B201F0CFF894F8320094F8333043EAD1
:40040000002008AA022100B201F0C4F8012208A9084601F01FF9022208A9084601F01AF9022415E00023964A82F85230ADF82030ADF8223008AA0621BDF9420001F0AAF8AC
:40044000BDF92A30B3F5967F01DB012400E0002400F0B8FE5CBB00F027FCD8B94FF47A710CA800F09DFAA8B9002204A908A801F043F9BDF9100000F0F7FEBDF9120000F070
:4004800005FFBDF9100000F015FCBDF9120000F023FC53E0002000F0E7FE002000F0F6FE002000F007FC002000F016FC46E0022C10D1BDF9220000F0D7FEBDF9200000F0A1
:4004C000E5FEBDF9220000F0F5FBBDF9200000F003FC33E0012C31D16A4B1B7813F0FF0F18D0684B4FF000021A70674D288800B200F0DEFE654E308800B200F0EBFE288813
:4005000000B200F0FBFB308800B200F009FC002001F07AFD5E4B1B7813F0FF0F0ED000255B4B1D70284600F09FFE284600F0AEFE284600F0BFFB284600F0CEFB00F0E8FF9E
:40054000544B1B7813F0FF0F02D00022514B1A7000F010FD504B1B7813F0FF0F02D000224D4B1A704D4B1B7813F0FF0F3FF4EEAD00224A4B1A70B8F1010F0AD0B8F1000F36
:4005800003D0B8F1020F08D00AE0454800F0D0F906E0444800F0CCF902E0434800F0C8F9374B93F85210414800F0C2F9012C14D014B1022C27D03FE0BDF83A20BDF8381098
:4005C0003B4800F0B5F9BDF92A30BDF92220BDF92010384800F0ACF92EE0374800F0A8F92B4B1B7813F0FF0F09D1274B1988274B1A8812B209B2314800F09AF91CE03048AF
:4006000000F096F918E02F4800F092F91C4890F8301090F8312090F8323090F833000090294800F085F9BDF92A30BDF92220BDF92010204800F07CF900F084FB044600F0D4
:4006400087FB02462146214800F072F9204B1978204800F06DF9204B1978204B1A78204800F066F959461F4800F062F91E4B19781E4800F05DF91E4800F05AF966E500BF71
:4006800078C1FF1F26C2FF1F10C3FF1F12C3FF1F2CC2FF1F41C2FF1F0DC2FF1F75C1FF1FEC4E0000F84E0000084F0000144F00002C4F0000484F0000644F0000744F0000C9
:4006C0008C4F00009C4F0000A84F0000C84F000040C2FF1FDC4F000042C2FF1F0EC2FF1FEC4F00000050000050C2FF1F10500000E84E000010B504460A2802D10D20FFF743
:40070000F9FF074B1B6823B1591C054A11601C7010BD044B1B680BB12046984710BD00BF6CC1FF1FA0C2FF1F10B5044602E00134FFF7E0FF20780028F9D110BD2DE9F04FB9
:4007400085B006468846741C3078002800F0ED80252803D0FFF7CEFF2646F4E7B31C7078302803D1F31CB078012706E02D2803D1F31CB078022700E000271E46002406E01D
:4007800004EB84046300C418303C30780136A0F13002D2B2092AF3D96C2801D04C2803D147F0040730780136002800F0BE80602803D9A0F12003DBB200E00346A3F1420228
:4007C000162A3ED8DFE802F04030373D3D3D3D3D3D3D3D3D3D433D3D3D0C3D373D3D3A00D8F800A008F10408002500E001351AF80530002BFAD103E02020FFF77BFF4D46A0
:4008000017F0020F04D105F10109A542F4D34D465046FFF789FF03E02020FFF76BFF3D466F1CA542F8D38EE798F8000008F10408FFF760FF87E74FF00A0C0AE04FF0100CCC
:4008400007E0FFF757FF7EE74FF0020C01E04FF0080C17F0040F04D0D8F8009008F104080AE0442B04D1D8F8009008F1040803E0D8F8009008F10408442B06D1B9F1000F32
:4008800003DAC9F1000947F008074FF0000E00E0AE46B9FBFCF30CFB1392D2B29946092A06D9782801D1272100E007211144CAB20EF10105303204A9714401F8102C0BB120
:4008C0000F2DE5D917F0080F06D004AB1D442D2305F8103C0EF1020517F0010F02D04FF0300B01E04FF0200BA94603E05846FFF701FFD14617F0020F04D109F1010AA14558
:40090000F4D3D146013D04AB2B4413F8100CFFF7F1FE002DF6D103E02020FFF7EBFEA94609F10105A145F7D30DE705B0BDE8F08F0FB400B583B004A951F8040B0191FFF7D7
:40094000FDFE03B05DF804EB04B07047074A13680133136013790133DBB21371642B04D9134600221A7101225A71704770C1FF1F08B508490F2003F013F8074B45F6BF5297
:400980005A60E021054A82F8231000229A6007221A6008BD4D09000010E000E000ED00E0044B1B6802689B1A8B4201D3012070470020704770C1FF1F014B1868704700BF37
:4009C00070C1FF1F08B51C4B1B7813F0FF0F03D001221A4B1A7002E00022184B1A70164B5B7813F0FF0F03D00122144B5A7002E00022124B5A70114B1B7833B1012001F096
:400A0000F7FA012001F00CFB05E0002001F0F0FA002001F005FB094B5B7833B1012001F0F3FA012001F008FB08BD002001F0ECFA002001F001FB08BDD0C1FF1F76C1FF1F0A
:400A40004200401022F0550200F055000243D2B29300921023F0330302F033021343DBB2180940EA0310C0B2704700BF70B4451C8022002615E02B78134001D001238B40A7
:400A80001C43012A02D10135802200E05208013101E0002421460A29EDD91A4B23F8164001360F2EF5D9C27DD209164B83F82020C27DC2F3801283F82120C27DC2F340125A
:400AC00083F82220C27DC2F3001283F82320C27D02F00F0283F82420027E920983F82520C27DC2F3011283F82620027EC2F381014A0002F0020242EA510283F8272070BC6D
:400B0000704700BFE4C2FF1F014B23F811007047A4C2FF1F10B582B00446FFF791FF00238DF80730364B1A78511CC9B219701A4410715B7F032B5BD8DFE803F00220274839
:400B4000F02806D101212E4A5177FF212D4A117053E02C4A1278FF2A0CD002F11801B0EBC10F07DB1932B0EBC20F03DA0321244A517742E00021224A11703EE0172939D9ED
:400B800002221F4B5A77002337E01D4B00225A771A7000F02303202B08D1C4F30114194B1C701948FFF762FF012326E010F0300F07D1FF22134B1A701348FFF757FF0123F4
:400BC0001BE0FF220F4B1A70002316E0022913D90B4C6079A3792179403103EB0020C9B280B2FFF791FF002363772370022304E0002302E0002300E00023184602B010BD8C
:400C0000D4C1FF1FCCC0FF1FD8C1FF1F38B505460C46282200210B4804F057F940220021094804F052F9002306E04FF48061054A22F813100133DBB20F2BF6D9034B1D62B1
:400C40005C6238BDE4C2FF1FA4C2FF1FD4C1FF1F08B5064B5B6A984730B1044B1B6A9847C0B2FFF757FF08BD002008BDD4C1FF1F0138034B33F810300B800020704700BF52
:400C8000E4C2FF1F014B93F820007047E4C2FF1F014B93F821007047E4C2FF1F014B93F822007047E4C2FF1F014B93F823007047E4C2FF1F00EBC0000301054A82FB031212
:400CC000DB17C3EBA2131BB2024A1380704700BFD34D6210FCC1FF1F00EBC0000301054A82FB0312DB17C3EBA2131BB2024A5380704700BFD34D6210FCC1FF1F00EBC000B1
:400D00000301054A82FB0312DB17C3EBA2231BB2024A1380704700BF1F85EB51FCC1FF1F00EBC0000301054A82FB0312DB17C3EBA2231BB2024A5380704700BF1F85EB5155
:400D4000FCC1FF1F014B188800B27047FCC1FF1F014B588800B27047FCC1FF1F10B5012444E0012001F036FA112001F033FA3C2001F030FA002001F02DFA322001F02AFA43
:400D8000322001F027FA012001F024FA002001F021FA832001F01EFA142001F01BFA052001F018FA052001F015FA012001F012FA032001F00FFA042001F00CFA072001F0D2
:400DC00009FA632001F006FA012C07D101F032FA0028FBD1012002F0C3FD06E001F02AFA0028FBD10E2002F0BBFD0134142CB8DD10BD00BFB0F5486F01DD4FF4486010F50C
:400E0000486F00DA0E4800280BDB4FF4486303FB00F00C4B83FB0023C017C0EB631000B27047074B03FB00F3064880FB0320DB17C3EB6010A0F5FF40333800B2704700BFE5
:400E400080F3FFFF398EE33810B501F093F900283CD001F05DF90446FFF7AEFD204B58601B7A032B32D8DFE803F002081625822C2CD101331A4A137228E0062C07D1184B4B
:400E800002221A7200225A7288229A721EE00022134B1A721AE012494A7A88180473887A04448C720132D2B24A72022A0ED901330B720BE00A4B9B7A9C4204D1084B9A7BB5
:400EC0001A7401225A740022054B1A7241F288310448FFF765FD10B10122014B9A7410BDFCC1FF1F00C2FF1F70B517211D48FFF757FD002834D0FFF75FFD1B4C60612088C5
:400F000000B2FFF777FF194D2880608800B2FFF771FF174E30806C782B781C44C0F307231C44C0B204440B34E4B2022001F052F9092001F04FF9687801F04CF9287801F056
:400F400049F9707801F046F9307801F043F9002001F040F9002001F03DF9204601F03AF970BD00BF10C2FF1FFCC1FF1F0EC3FF1F0CC3FF1F08B51E4B1B7E13F0FF0F32D1C1
:400F80001B4B5B7E012B0FD013B1022B1CD02CE0002000F06FFF01F0ADF8FFF70DFD144BD86101225A7620E04FF47A711148FFF7F7FCD0B1022000F05DFFFFF7FDFC0C4BBA
:400FC000D86102225A7610E04FF496710948FFF7E7FC50B1FFF7C2FE054B00229A74012119765A7601E0FFF77FFFFFF72DFF08BDFCC1FF1F18C2FF1F08B5164B1B78ABB984
:40100000812001F0FDFD062001F0FAFD002001F0F7FD002001F0F4FD052001F0F1FD8C2001F0EEFD01220B4B1A7008BD812001F0E7FD062001F0E4FD002001F0E1FD00203E
:4010400001F0DEFD022001F0DBFD892001F0D8FD08BD00BF1CC2FF1F08B5174B5B78012B08D013B1022B18D021E0134A122191700021D17010498A7810448870CA780132EB
:40108000D2B2CA700D2A03D901334B70002008BD0122094B5A70002008BD074B00225A709B78834205D1FFF7A7FF012008BD002008BD4FF0FF3008BD1CC2FF1F08B5822084
:4010C00001F09EFD062001F09BFD002001F098FD002001F095FD022001F092FD8A2001F08FFD08BD344B1B79062B60D8DFE803F0040D18222D2D35002F4A0102D1800B30C6
:40110000507101331371002070472B4AD1880143D18051790844507101331371002070470102254A11815179084450710133137100207047204A118901431181517908443C
:40114000507101331371002070471B4A5179084450710133137100207047174B00221A715B79834225D110B5134BB3F90630934206DAC3F30A035B421BB2104A138001E001
:401180000E4A13800C4BB3F90830002B06DAC3F30A035B421BB20A4A138001E0084A13800124054B9C72FFF789FF204610BD002070474FF0FF3070471CC2FF1F10C3FF1F07
:4011C00012C3FF1F10B501F0E9FC00283ED001F0B1FC0446FFF7F0FB214BD86000221A745B7C032B3BD8DFE803F0020B2129621ED2B2012A33D81A4A94740133537410BD77
:40120000174B9B7C012B05D1112C03D10222144B5A7410BD022B05D1092C03D10322104B5A7410BD00220E4B5A7410BD2046FFF713FFA0B100220A4B5A7410BD2046FFF79A
:4012400051FF60B10022064B5A7410BD4FF47A710448FFF7A5FB10B10122014B1A7410BD1CC2FF1F28C2FF1F00EBC0000301054A82FB0312DB17C3EBA2131BB2024A1380CF
:40128000704700BFD34D621030C2FF1F00EBC0000301054A82FB0312DB17C3EBA2131BB2024A5380704700BFD34D621030C2FF1F00EBC0000301054A82FB0312DB17C3EBFD
:4012C000A2231BB2024A1380704700BF1F85EB5130C2FF1F00EBC0000301054A82FB0312DB17C3EBA2231BB2024A5380704700BF1F85EB5130C2FF1F10B5012444E00120A1
:4013000001F0FCF8112001F0F9F8322001F0F6F8002001F0F3F8322001F0F0F8322001F0EDF8012001F0EAF8002001F0E7F8832001F0E4F8142001F0E1F8052001F0DEF8F7
:40134000052001F0DBF8012001F0D8F8032001F0D5F8042001F0D2F8072001F0CFF8592001F0CCF8012C07D101F0F8F80028FBD1012002F0F5FA06E001F0F0F80028FBD146
:401380000E2002F0EDFA0134142CB8DD10BD00BFB0F5486F01DD4FF4486010F5486F00DA0E4800280BDB4FF4486303FB00F00C4B83FB0023C017C0EB631000B27047074BED
:4013C00003FB00F3064880FB0320DB17C3EB6010A0F5FF40333800B2704700BF80F3FFFF398EE33810B501F059F800283CD001F023F80446FFF7E0FA204B58601B7A032BFF
:4014000032D8DFE803F002081625822C2CD101331A4A137228E0062C07D1184B02221A7200225A7288229A721EE00022134B1A721AE012494A7A88180473887A04448C7290
:401440000132D2B24A72022A0ED901330B720BE00A4B9B7A9C4204D1084B9A7B1A7401225A740022054B1A7241F288310448FFF797FA10B10122014B9A7410BD30C2FF1F6E
:4014800034C2FF1F70B517211D48FFF789FA002834D0FFF791FA1B4C6061208800B2FFF777FF194D2880608800B2FFF771FF174E30806C782B781C44C0F307231C44C0B289
:4014C00004440B34E4B2022001F018F8092001F015F8687801F012F8287801F00FF8707801F00CF8307801F009F8002001F006F8002001F003F8204601F000F870BD00BF45
:4015000044C2FF1F30C2FF1F0EC3FF1F0CC3FF1F08B51E4B1B7E13F0FF0F32D11B4B5B7E012B0FD013B1022B1CD02CE0002000F01DFF00F073FFFFF73FFA144BD86101221D
:401540005A7620E04FF47A711148FFF729FAD0B1022000F00BFFFFF72FFA0C4BD86102225A7610E04FF496710948FFF719FA50B1FFF7C2FE054B00229A74012119765A766F
:4015800001E0FFF77FFFFFF72DFF08BD30C2FF1F4CC2FF1F00B5B0F5D06F03DCB0F5C07F03DB04E04FF4D06001E04FF4C070B0F5806F0DDDA0F580604FF47A7303FB00F0BD
:4015C000224B83FB00E3C017C0EB23231BB210E0B0F5806F0CDAC0F580601D4B03FB00F01A4B83FB00E3C017C0EB23231BB200E00023B3F57A7F03DC13F57A7F03DB03E093
:401600004FF47A7300E0124B013907291BD8DFE801F004070A0D1013161913805DF804FB53805DF804FB93805DF804FBD3805DF804FB13815DF804FB53815DF804FB938174
:401640005DF804FBD3815DF804FB00BF6766666618FCFFFF012A24D1B0F900304B2B0DDD4B3B4FF47A7202FB03F3214A82FB03021A44DB17C3EB62230B80704713F14B0FF3
:401680000CDA4B331B4A02FB03F3194A82FB03021A44DB17A3EB62230B80704700230B807047022A23D1B0F902304B2B0DDD4B3B4FF47A7202FB03F30D4A82FB03021A4445
:4016C000DB17C3EB62234B80704713F14B0F0CDA4B33084A02FB03F3054A82FB03021A44DB17A3EB62234B80704700234B807047C70FB38D18FCFFFF2DE9F04704460E46CE
:401700001746B0F9020003F069F9A54903F06EFA8046B4F9000003F061F9A14903F066FA044628F0004520F0004A404602F05EFD80468946204602F059FD42464B4602F0E4
:401740007FF993A3D3E9002302F0CEFE03F03CF804463860002103F047FB00B34FF07E51204603F02DFBD0B1504602F03FFD8AA3D3E9002302F08EFD80468946284602F0BA
:4017800035FD42464B4602F0D1FB03F01DF80446002103F015FB002800F05E8152E14FF07E51204603F020FB00B34FF08041204603F006FBD0B1504602F018FD76A3D3E9FE
:4017C000002302F067FD80468946284602F00EFD42464B4602F0AAFB02F0F6FF0446002103F0EEFA002800F037812DE14FF08041204603F0F9FAA0B14FF08041204603F0BF
:40180000E9FA70B10AF100444FF07D51504603F039F905464FF07D51204603F033F904461AE14FF08041204603F0DEFA10B35D49204603F0C5FAE8B1504602F0D7FC56A3DC
:40184000D3E9002302F026FD80468946284602F0CDFC42464B4602F069FB02F0B5FF0446002103F0ADFA00B1002404F1004405F10045F1E04B49204603F0B6FAE8B14FF00D
:401880008141204603F09CFAB8B1504602F0AEFC41A3D3E9002302F0FDFC80468946284602F0A4FC42464B4602F040FB02F08CFF00F1004405F10045CEE04FF08141204651
:4018C00003F092FA18B105F100442546C4E00021204603F07FFAD0B13349204603F08EFAA8B1504602F082FC2BA3D3E9002302F0D1FC80468946284602F078FC42464B4639
:4019000002F014FB02F060FF2C460546A4E02649204603F05FFA08B34FF04041204603F06DFAD8B1504602F061FC1BA3D3E9002302F0B0FC80468946284602F057FC42463F
:401940004B4602F0F3FA02F03FFF0746002103F037FA00287AD12C463D467DE04FF04041204603F041FA08B34FF04041204603F031FAD8B10AF100404FF07D5103F082F8DF
:4019800005464FF07D51504603F07CF8044663E0182D4454FB21E93F9A9999999999E93F00007A4400004040000080BF4FF04041204603F005FA10B33149204603F01EFA22
:4019C000E8B1504602F012FC2BA3D3E9002302F061FC80468946284602F008FC42464B4602F0A4FA02F0F0FE0746002103F0E8F900B1002705F1004407F100452CE0204934
:401A0000204603F0E7F920B31E49204603F0F6F908B3504602F0EAFB17A3D3E9002302F039FC80468946284602F0E0FB42464B4602F07CFA02F0C8FE00F1004005F100448F
:401A4000054609E0002407E0002405E02C46002502E02C4600E02C460B49284603F012F803F0D6F970800849204603F00BF803F0CFF93080BDE8F0879A9999999999E93F7D
:401A8000000040C0000080C000007A4408B50122024B1A70FEF796FF08BD00BF50C2FF1FFEE700BFF0B40022174611E050F82760F3B226F0FF0608E001EB420511F8124076
:401AC0006D78A5550132013BDBB2002BF4D101372A2FEBD9F0BC704708B50A46002103F0F4F908BD38B51722304B1A80182330490B7002310A802F4A137019250232158066
:401B0000023213701D21023211801C2102321170EF2102321180023213704FF49C7102321180023213700222234B1A7008224FF040231A70032103F5007319701F4B1B781A
:401B4000DBB21F490B701F4B1A8041F25122023B1A8000240CE01C4B1B7803F0010343EA440404F003044FF4F07001F059FF013D0DB1032CEFD115B90320FFF791FF134B57
:401B80004FF480721A8007221A70002210490A704820023108701A700222033B1A700D4A137843F03F03137038BD00BF8040004082400040864000400043004008010049BA
:401BC000A146004022420040254200400440004006400040A2430040F8B5164B1B78DBB2154E3478E4B2154F3D78EDB203F00701134A11701B090132137044F00303337029
:401C000045F003033B703F220E4B1A70802203F2D4731A700F2203F21F231A70202203331A700A2001F0B2FE3D7034704422064B1A70F8BDCF010049F8460040F9460040F6
:401C40006E5800402D5100407658004008B503F031F908BD38B572B600240CE03C4D630019194A0011462A44084691882858FFF733FF0134E4B2082CF0D900240CE034483E
:401C8000A20011194B000344B3F84020D96B986BFFF7DCFF0134E4B2032CF0D92D494FF09040FFF7FFFE04212B48FFF715FF04222A492B48FFF7CAFF2A4A137843F00203C4
:401CC00013701032137843F002031370264C237843F040032370A2F58632513A137843F0100313700A2221492148FFF7AFFF0A2220492148FFF7AAFF082220492048FFF764
:401D0000A5FF0A221F492048FFF7A0FF08221F491F48FFF79BFF0A221E491F48FFF796FF1E4A137843F0080313701D4D61232B70FFF7D8FE81232B7001221A4B1A70FFF710
:401D40004BFF0E2221461848FFF780FF38BD00BF1C500000AC00004800760040041200480876004003500140A0430040C411004800510040D0110048C0510040DC110048B3
:401D8000F2510040E411004810510040F011004822510040F811004830510040224300400048004004000840B043004008B503F055F803680C2B00D1FEE7FEE708B5104EB3
:401DC000104D16E029686B68AC68002204E051F8040B43F8040B0432A242F8D1E868002203E0002143F8041B04328242F9D11035013E002EE6D103F037F8FEF743F9FEE758
:401E000001000000E850000008B5114A114B1A60114A136843F40073136000230AE0032B03D80E4A52F8231000E00D490D4A42F8231001332F2BF2D90B4B1A780B4B1A7082
:401E4000084A0B4B1A60FFF705FF01F0A7FC08BD0004FA050CED00E014ED00E000000000AD1D000000C0FF1FBC760040C0C0FF1F08ED00E0014B1870704700BF766500403E
:401E800010B541F6FF734FF480420121022001F02DFC084C207041F6FF731A4601210C2001F042FC6070044801F05CFC002001F05FFC10BD54C2FF1FED1F000070B52C4C6C
:401EC000207801F0A1FC607801F09EFC294B1B78FF2B03D101F006FD264B1870254D2878062302460C2101F017FD214E341DA4B2224645F6A031287801F022FD297830782F
:401F000001F0C2FC6B78FF2B02D101F0EBFC6870184D6878072302460C2101F0FDFC164A92B22146687801F00BFD114C6978607801F0AAFC0121207801F04AFC0121607818
:401F400001F046FC01F074FD0C4A137843F02003137001F071FD0A4B1A7842F001021A701A7842F002021A700122064B1A6070BD54C2FF1FCDC0FF1F14C3FF1F986500408F
:401F80007764004080E200E008B5074B1B6923B9FFF776FF0122044B1A6101F091FBFFF78DFF024B1B7808BD54C2FF1F6665004008B501F093FB08BD044B1B7803F0FF0243
:401FC0000BB90028F8D01046704700BF66650040C0F10500034B33F91030034A1088181A00B2704714C3FF1F38C6FF1F704700BF044A137803F0DF03400100F02000184385
:4020000010707047F0510040044A137803F0EF03000100F01000184310707047F0510040044A137803F0BF03800100F0400018431070704720510040044A137803F07F0346
:40204000C001C0B218431070704700BF2051004008B51149042001F0B7FC0721042001F0C7FC00220D4B1A7071220D4B1A702022FC3B1A700B49052001F0A6FC0721052077
:4020800001F0B6FC0622084B1A70472210331A70022250331A7008BD7D22000068C2FF1F85650040152300002464004008B501F0BFFC0C4A137843F020031370FC3A137857
:4020C00043F010031370084A1023136007490B7843F010030B70202305490B60136001F0ABFC08BD9565004000E100E09464004080E200E008B5054B5B7823B9FFF7A8FFF1
:402100000122024B5A70FFF7D1FF08BD68C2FF1F1022134B1A60134A9378DBB2D178C9B2127912F0FF0F01D18B4211D00E4AD05CC0B20133DBB21F2B00D90023094A937061
:40214000137913F0FF0F06D00022064B1A7102E0064B1878C0B21022054B1A60704700BF80E100E068C2FF1F40C3FF1F4665004000E100E01022144B1A60144B9A78D2B2F1
:40218000DB78DBB29A4206D1104B1B7913F0FF0F15D0202014E00D4B9A78D2B2DB78DBB29A4205D2094AD3789078181AC0B207E0064AD3789078181A2030C0B200E000202A
:4021C0001022034B1A60704780E100E068C2FF1F00E100E0114B5B78F3B12022104B1A600E4A9379DBB2D279934207D10D4B1B7813F0040F02D10C4B18700AE01F2A02D950
:402200000022064BDA71054AD3790849C8540133D3712022064B1A60704700BF68C2FF1F80E100E0646400404764004020C3FF1F00E100E020220E4B1A600E4B9A79D2B29A
:40224000DB799A420FD00B4A9279D2B2934204D9084A9079181AC0B206E0064A9079181A2030C0B200E000202022034B1A60704780E100E068C2FF1F00E100E01D4B1B7881
:40228000DBB213F01E0F05D01B4803F01E0201780A43027003F0200303F0FF0233B3174B1978C9B2164B1B78DBB21648C154164B1B7813F0FF0F02D00121144B1970104952
:4022C0000B780133DBB20B700B78DBB21F2B02D900210B4B19700A4B1978C9B20C4B1B78DBB2994202D10121074B1970002AC5D1704700BF6964004068C2FF1F46650040F1
:402300006BC2FF1F40C3FF1F6CC2FF1F6DC2FF1F6AC2FF1F13E0104B1B78DBB21F2B02D900220D4B1A700C4A1378DBB20B49CB5CDBB20B490B7013780133DBB21370064B52
:402340001B78DBB2074A1278934204D0064B1B7813F0040FDFD070476EC2FF1F20C3FF1F476400406FC2FF1F64640040014B1870704700BF7564004008B51149022001F03B
:4023800023FB0721022001F033FB00220D4B1A7071220D4B1A70202204331A700B49032001F012FB0721032001F022FB0622084B1A70472210331A7002224F331A7008BD1C
:4023C000A525000071C2FF1F876500403D2600002364004008B501F02BFB0C4A137843F0200313700432137843F010031370084A0423136007490B7843F010030B700823A9
:4024000005490B60136001F017FB08BD9765004000E100E09264004080E200E008B5054B5B7823B9FFF7A8FF0122024B5A70FFF7D1FF08BD71C2FF1F0422134B1A60134A69
:402440009378DBB2D178C9B2127912F0FF0F01D18B4211D00E4AD05CC0B20133DBB21F2B00D90023094A9370137913F0FF0F06D00022064B1A7102E0064B1878C0B20422C6
:40248000054B1A60704700BF80E100E071C2FF1F80C3FF1F4465004000E100E00422144B1A60144B9A78D2B2DB78DBB29A4206D1104B1B7913F0FF0F15D0202014E00D4B47
:4024C0009A78D2B2DB78DBB29A4205D2094AD3789078181AC0B207E0064AD3789078181A2030C0B200E000200422034B1A60704780E100E071C2FF1F00E100E0114B5B78C4
:40250000F3B10822104B1A600E4A9379DBB2D279934207D10D4B1B7813F0040F02D10C4B18700AE01F2A02D90022064BDA71054AD3790849C8540133D3710822064B1A601B
:40254000704700BF71C2FF1F80E100E0626400404264004060C3FF1F00E100E008220E4B1A600E4B9A79D2B2DB799A420FD00B4A9279D2B2934204D9084A9079181AC0B2D4
:4025800006E0064A9079181A2030C0B200E000200822034B1A60704780E100E071C2FF1F00E100E01D4B1B78DBB213F01E0F05D01B4803F01E0201780A43027003F020039B
:4025C00003F0FF0233B3174B1978C9B2164B1B78DBB21648C154164B1B7813F0FF0F02D00121144B197010490B780133DBB20B700B78DBB21F2B02D900210B4B19700A4B1C
:402600001978C9B20C4B1B78DBB2994202D10121074B1970002AC5D1704700BF6B65004071C2FF1F4465004074C2FF1F80C3FF1F75C2FF1F76C2FF1F73C2FF1F13E0104BEB
:402640001B78DBB21F2B02D900220D4B1A700C4A1378DBB20B49CB5CDBB20B490B7013780133DBB21370064B1B78DBB2074A1278934204D0064B1B7813F0040FDFD07047A8
:4026800077C2FF1F60C3FF1F4264004078C2FF1F6264004008B51149062001F095F90721062001F0A5F900220D4B1A7072220D4B1A70202204331A700B49072001F084F93F
:4026C0000721084601F094F90622084B1A70472210331A70022253331A7008BD452800007AC2FF1F81640040DD2800002A64004008B501F09DF90C4A137843F020031370F5
:402700000432137843F010031370084A4023136007490B7843F010030B70802305490B60136001F089F908BD9164004000E100E09D64004080E200E008B5054B5B7823B917
:40274000FFF7A8FF0122024B5A70FFF7D1FF08BD7AC2FF1F4022134B1A60134A9378DBB2D178C9B2127912F0FF0F01D18B4211D00E4AD05CC0B20133DBB2FF2B00D10023BA
:40278000094A9370137913F0FF0F06D00022064B1A7102E0064B1878C0B24022054B1A60704700BF80E100E07AC2FF1FD4C3FF1F4164004000E100E010B54023064A13609A
:4027C000064A147800211170054A13602402FFF7C1FF204380B210BD80E100E07AC2FF1F00E100E04022144B1A60144B9A78D2B2DB78DBB29A4206D1104B1B7913F0FF0F3C
:4028000015D0FF2014E00D4B9A78D2B2DB78DBB29A4205D2094AD3789078181AC0B207E0064AD3789078181A0138C0B200E000204022034B1A60704780E100E07AC2FF1FF2
:4028400000E100E01D4B1B78DBB213F01E0F05D01B4803F01E0201780A43027003F0200303F0FF0233B3174B1978C9B2164B1B78DBB21648C154164B1B7813F0FF0F02D033
:402880000121144B197010490B780133DBB20B700B78DBB2FF2B02D100210B4B19700A4B1978C9B20C4B1B78DBB2994202D10121074B1970002AC5D1704700BF6564004027
:4028C0007AC2FF1F416400407DC2FF1FD4C3FF1F7EC2FF1F7FC2FF1F7CC2FF1F13E0104B1B78DBB2312B02D900220D4B1A700C4A1378DBB20B49CB5CDBB20B490B701378F5
:402900000133DBB21370064B1B78DBB2074A1278934204D0064B1B7813F0040FDFD0704780C2FF1FA0C3FF1F4D64004081C2FF1F6D64004008B50949012001F045F8072134
:40294000012001F055F80622054B1A70472210331A7002224F331A7008BD00BF152A00002964004010B501F063F80446084A137843F0100313700223064A1360A2F5C0724E
:40298000136000F0FDFE204601F056F810BD00BF9864004080E200E008B5054B1B7823B9FFF7C8FF0122024B1A70FFF7DBFF08BD84C2FF1F114B1B78F3B10222104B1A6052
:4029C0000E4A53889BB29288934207D10D4B1B7813F0040F02D10C4B18700AE0FF2A02D90022064B9A80054A93880849C854013393800222064B1A60704700BF84C2FF1F7B
:402A000080E100E06864004048640040D4C4FF1F00E100E014E0114B1B889BB2FF2B02D900220E4B1A800D4A13889BB20C49CB5CDBB20C490B7013889BB201339BB2138078
:402A4000064B1B889BB2084A1288934204D0074B1B7813F0040FDED0704700BF86C2FF1FD4C4FF1F4864004088C2FF1F6864004008B51149082000F0A7FF0721082000F0D0
:402A8000B7FF00220D4B1A7071220D4B1A702022FF3B1A700B49092000F096FF0721092000F0A6FF0622084B1A70472210331A70022251331A7008BD652C00008BC2FF1FCB
:402AC00089650040FD2C00002E64004008B500F0AFFF0D4A137843F020031370FF3A137843F010031370094A4FF48073136008490B7843F010030B704FF4007305490B600A
:402B0000136000F099FF08BD9965004000E100E09F64004080E200E008B5054B5B7823B9FFF7A6FF0122024B5A70FFF7CFFF08BD8BC2FF1F4FF48072134B1A60134A937857
:402B4000DBB2D178C9B2127912F0FF0F01D18B4211D00F4AD05CC0B20133DBB21F2B00D900230A4A9370137913F0FF0F06D00022064B1A7102E0074B1878C0B24FF48072B8
:402B8000054B1A60704700BF80E100E08BC2FF1FD4C5FF1F4A65004000E100E04FF48072144B1A60144B9A78D2B2DB78DBB29A4206D1114B1B7913F0FF0F15D0202014E012
:402BC0000D4B9A78D2B2DB78DBB29A4205D20A4AD3789078181AC0B207E0074AD3789078181A2030C0B200E000204FF48072034B1A60704780E100E08BC2FF1F00E100E069
:402C0000124B5B7803B34FF40072114B1A600F4A9379DBB2D279934207D10E4B1B7813F0040F02D10C4B18700AE01F2A02D90022064BDA71054AD3790849C8540133D37139
:402C40004FF40072064B1A60704700BF8BC2FF1F80E100E06F6400404F640040F4C5FF1F00E100E01D4B1B78DBB213F01E0F05D01B4803F01E0201780A43027003F02003C3
:402C800003F0FF0233B3174B1978C9B2164B1B78DBB21648C154164B1B7813F0FF0F02D00121144B197010490B780133DBB20B700B78DBB21F2B02D900210B4B19700A4B55
:402CC0001978C9B20C4B1B78DBB2994202D10121074B1970002AC5D1704700BF6A6400408BC2FF1F4A6500408EC2FF1FD4C5FF1F8FC2FF1F90C2FF1F8DC2FF1F13E0104B49
:402D00001B78DBB21F2B02D900220D4B1A700C4A1378DBB20B49CB5CDBB20B490B7013780133DBB21370064B1B78DBB2074A1278934204D0064B1B7813F0040FDFD07047E1
:402D400091C2FF1FF4C5FF1F4F64004092C2FF1F6F64004008B500F06BFE084A137843F0040313701032137843F00403137000F063FE4FF40042024B1A6008BDA5430040CF
:402D800000E100E000F07F00014B1870704700BF25C6FF1F4FF40041054B1960054A1078137803F01003DBB21370034B1960704780E100E024C6FF1F00E100E010B44FF43C
:402DC00000440A4B1C6032B11346094A1360094B1880094B19800023084A1370084A13704FF40042074B1A6010BC704780E100E020C6FF1F28C6FF1F2EC6FF1F32C6FF1FC9
:402E000031C6FF1F00E100E010B44FF400440A4B1C6032B11346094A1360094B1880094B19800023084A1370084A13704FF40042074B1A6010BC704780E100E018C6FF1FE7
:402E400026C6FF1F2CC6FF1F2AC6FF1F14C6FF1F00E100E000F07F00014B1870704700BF1CC6FF1F10B50122174B1A7080220E3B1A70702002331870032211331A7000240B
:402E800001331C70FFF77EFF7120FFF7E3FF4FF400420E4B1A6007210F2000F0A9FD0C490F2000F091FD0B4B1C700B4B1C700B4B1C700B4B1C700B4B1C800B4B1C700B4B7D
:402EC0001C700B4B1C8010BDD649004080E100E0112F000030C6FF1F24C6FF1F32C6FF1F31C6FF1F2EC6FF1F2AC6FF1F14C6FF1F2CC6FF1F08B5054B1B7823B9FFF7B2FF15
:402F00000122024B1A70FFF725FF08BD94C2FF1F08B5944B1B78DBB213F0080F77D0924B1B785B08914A1370914A1278D2B2934232D18D4B1B7813F0010F1CD08D4A137869
:402F4000DBB28D490968CB5CDBB287490B701421844B19701378DBB2884A137013780133DBB21370864A137843F0110313700822844B1A7070E110227A4B1A70804A1378E6
:402F800043F01203137001227E4B1A707E4A137843F0100313705FE17C4A1278D2B2934231D1714B1B7813F0010F1BD0784A1378DBB278490968CB5CDBB26B490B70142158
:402FC000684B19701378DBB2734A137013780133DBB213706A4A13780B4313701822694B1A7039E110225F4B1A70654A137843F0180313701122634B1A70634A137843F085
:403000001003137028E10022564B1A7024E113F0010F00F021815B4A1278013A172A00F21281DFE812F01800100110013400100110011001520010011001100110011001B9
:40304000100110011001820010011001C100100110011001DF00444B1B78DBB2434A13709BB24E4A128892B293420CD210223D4B1A703E4B1B783F4A1370404A13700422D2
:40308000404B1A70E8E00022364B1A70E4E03B4B1A78434B1B889BB29A4212D2324B1B7832490B7010222F4B1A70344A1378DBB2314800680978C15413780133DBB21370D4
:4030C000CAE00022274B1A70C6E013F0020F1ED12A4B1A78314B1B889BB29A4210D2274A1378DBB224490968CB5CDBB21E490B7004211C4B197013780133DBB21370ABE0C2
:40310000FF22194B1A700422013B1A70A4E0FF22154B1A700022013B1A7019490B7803F0EF030B70174B1A7096E00F4B1B78DBB20E4A13709BB21B4A128892B293420CD2DE
:403140001022084B1A70094B1B78114A1370124A137014220B4B1A707EE00022014B1A707AE000BFD7490040D849004095C2FF1F25C6FF1F32C6FF1F20C6FF1F31C6FF1FA9
:4031800024C6FF1F30C6FF1FD64900401CC6FF1F2AC6FF1F18C6FF1F14C6FF1F28C6FF1F2EC6FF1F26C6FF1F364B1A78364B1B889BB29A4212D2354B1B7835490B701022E8
:4031C000344B1A702F4A1378DBB2334800680978C15413780133DBB213703DE000222D4B1A7039E013F0020F1ED1264B1A782B4B1B889BB29A4210D2224A1378DBB2264976
:403200000968CB5CDBB221490B700421214B197013780133DBB213701EE0FF221B4B1A700422013B1A7017E0FF22184B1A700422013B1A701A4A137803F0EF031370002236
:40324000184B1A7008E00023164A1370164A1370164A13700F4A13700E4B1B7813F0200F0CD00F4A137803F0EF03137000220D4B1A700F4A137803F0EF031370FEF706FC44
:4032800008BD00BF14C6FF1F2CC6FF1FD849004095C2FF1FD749004018C6FF1F26C6FF1F24C6FF1F30C6FF1F32C6FF1F31C6FF1FD6490040084A137843F0010313701032C7
:4032C000137843F00103137002F64D32137843F001031370704700BFA3430040014B1880704700BF044F0040014B1880704700BF064F0040014B1870704700BF034F004079
:4033000008B5194A137843F0020313700232137803F08F0343F010031370144B1A7802F0CF021A701A7842F030021A701A7802F0F0021A701A7842F00F021A7043F2AF60B9
:40334000FFF7CCFF0020FFF7CFFF0020FFF7D2FF074A137843F00103137002F65E32137843F00103137008BD004F00400B4F0040A343004008B5054B1B7823B9FFF7C0FF19
:403380000122024B1A70FFF795FF08BD96C2FF1F084A137843F0020313701032137843F00203137002F65932137843F001031370704700BFA3430040014B1880704700BF70
:4033C000104F0040014B1880704700BF124F0040014B1870704700BF0F4F004008B5194A137843F0020313700232137803F08F0343F010031370144B1A7802F0CF021A709A
:403400001A7842F030021A701A7802F0F0021A701A7842F00F021A7043F2AF60FFF7CCFF0020FFF7CFFF0020FFF7D2FF074A137843F00203137002F66A32137843F00103F0
:40344000137008BD0C4F0040174F0040A343004008B5054B1B7823B9FFF7C0FF0122024B1A70FFF795FF08BD97C2FF1F084A137843F0040313701032137843F00403137088
:4034800002F66532137843F001031370704700BFA3430040014B1880704700BF1C4F0040014B1880704700BF1E4F0040014B1870704700BF1B4F004008B5194A137843F0BE
:4034C000020313700232137803F08F0343F010031370144B1A7802F0CF021A701A7842F030021A701A7802F0F0021A701A7842F00F021A7043F2AF60FFF7CCFF0020FFF7FF
:40350000CFFF0020FFF7D2FF074A137843F00403137002F67632137843F00103137008BD184F0040234F0040A343004008B5054B1B7823B9FFF7C0FF0122024B1A70FFF7F3
:4035400095FF08BD98C2FF1F044A137803F0DF03400100F0200018431070704710510040044A137803F0EF03000100F0100018431070704710510040044A137803F0F70390
:40358000C00000F008001843107070471051004008B50A280FD00C2802D0082806D102E04FF4805209E04FF4807206E0002000F0D5F9002201E04FF480620021084B198037
:4035C00042F2107303FB02F313F5806301D503F2FF73DB12034A13600022034B1A8008BD34C6FF1F3CC6FF1F38C6FF1F10B500F01FFA0446184A137843F001031370103228
:40360000137843F00103137002F5AA520832137843F0030313701822104B1A70013B1A7842F040021A701A7802F0FC021A70C822053B1A700222A3F597530C3B1A70084A5D
:40364000137843F0080313700A2000F09FF9204600F0F2F910BD00BFAB43004006590040275B004010B504460A280DD00C2802D0082804D101E0C22207E0422205E00020B2
:4036800000F06CF9C22200E08222034B1A702046FFF77EFF10BD00BF0259004008B5064A137843F0060313700C20FFF7DBFF0022024B1A8008BD00BF0159004036C6FF1FE1
:4036C00008B5054B1B7823B9FFF7E8FF0122024B1A70FFF78BFF08BD99C2FF1F024A137843F001031370704700590040F0B583B016461F460B4C01252570002301930093E3
:403700002B460A460146284600F0CAF83A463146207800F09FF80221207800F089F8207803B0F0BDCFC0FF1FF0B583B016461F460B4D00242C700194009423460A460146A0
:40374000204600F0ADF83A463146287800F082F80221287800F06CF8287803B0F0BD00BFD0C0FF1F014B1B681864704708ED00E04001C0B2014B1870704700BF00E400E031
:40378000054A137843F0040313701032137843F004031370704700BFA24300400B4A7F2313708021517007E0DA0002F1804202F5F042013BDBB21370002BF5D1DB0003F1C6
:4037C000804303F5F04300221A707047D4C0FF1F172815D831B103010A495A5C42F020025A5405E0030107495A5C02F0DF025A540001044A835C43F0010383540020704726
:40380000012070471070004017280CD80001074BC1180A7942F004020A71C25C42F00102C254002070470120704700BF1070004017280BD80001064A835C03F0F103490052
:4038400001F00E011943815400207047012070471070004041F6FF73994201D14FF4005141F6FF739A4201D14FF40052172808D8C00000F1804000F5EC408180C2800020BE
:4038800070470120704700BF172805D8034B03EB0010417200207047012070471070004017281BD810B4C00000F1804404F5EC44D201D2B201F07F01114321709DF8042036
:4038C0001201D2B203F00F03134363709DF8083003F00F03A3700020E07001E00120704710BC704710B500F0A3F80A4B5B78182B0BD9084A1478013B5370E30003F180435C
:4039000003F5F0431B78137000E0FF2400F094F8204610BDD4C0FF1F10F0800F0CD111F4704F0BD1C00000F1804000F5F04001808270C37000207047012070470120704713
:4039400010F0800F08D1C00000F1804000F5F0408180C280002070470120704701BE704710B5044605E0084B186800F059F8A4F50044B4F5004FF6D8034B586800FB04F039
:4039800000F04EF810BD00BFDCC0FF1F08B5034B1B7A00FB03F000F043F808BDDCC0FF1F70B504460E46074B1D680F2802D90020FFF7D4FF04F00F0455F8240045F8246085
:4039C00070BD00BF08ED00E070B504460E46074B1D681F2802D90020FFF7C0FF04F01F04103455F8240045F8246070BD08ED00E038B504460D46072902D90020FFF7AEFF8E
:403A00001F2C02D90020FFF7A9FF04F01F0000F1604000F564406D01EDB2057038BD00BF0230800803D000BF01380046FCD17047EFF3108072B6704780F31088704700BF0E
:403A400000F002B8000000002DE9F84F5442144323F00049DFF880E149EAD474744506460D463ED84442044321F0004B4BEAD47474458A4635D803F1404404F5801414433D
:403A800044D09C1704F0020444EAD17450EA0B012FD052EA090133D0F14546D0F3452FD0C9EB0B094FEA2959B9F13C0F34DC002B57DB3046294600F017FD00F02FFA00F0EA
:403AC0008FF8012C4AD0022C3BD084B132A3D3E9002300F02BFA32A3D3E9002300F026FA05E01046194632462B4600F021FABDE8F88F022C14D0032C0CD12D482D49F6E75D
:403B0000BAF1000F2A480EDB2B49F0E7BDE8F84F00F066B82946EAE723A1D1E90001D0E723482649E3E72649E1E7CB451FD0022CF6D0032CE1D0012C4FF0000020D0014664
:403B4000D5E715A3D3E9002300F0F0F902460B4613A1D1E9000100F0E9F9C8E701F10041C5E719F13C0FA4DA00200021A9E7022C0ED0032C09D0012C0D4804D01149B6E7AC
:403B80004FF00041B3E71049B1E710481049AEE70E481049ABE700BF075C143326A6A13C182D4454FB210940182D4454FB21F93F182D4454FB2109C0FB21F93FFB21094073
:403BC000FB21F9BFFB21E93FFB21E9BFD221337F7CD902C07CD902400000F07F000000002DE9F84FC04B21F000469E420D468A4604460FDDBD4B9E4200F3B28000F0AD8005
:403C0000BB4BBC49BC4CBAF1000FC8BF19462046BDE8F88FB94B9E4200F3BC80A3F1DE739E4240F3A7804FF0FF3B22462B462046294600F02FFB02460B468046894600F0AE
:403C400029FB91A3D3E9002306460F4600F022FB8FA3D3E9002300F06BF932463B4600F019FB8DA3D3E9002300F062F932463B4600F010FB8AA3D3E9002300F059F93246E9
:403C80003B4600F007FB88A3D3E9002300F050F932463B4600F0FEFA85A3D3E9002300F047F942464B4600F0F5FA83A3D3E90023804689463046394600F0ECFA80A3D3E9FA
:403CC000002300F033F932463B4600F0E3FA7EA3D3E9002300F02AF932463B4600F0DAFA7BA3D3E9002300F021F932463B4600F0D1FA79A3D3E9002300F018F932463B463F
:403D000000F0C8FABBF1FF3F02460B4669D04046494600F00DF922462B4600F0BBFA784E784B4FEACB0B5E449B44DBE9002300F0FDF822462B4600F0F9F802460B46D6E995
:403D4000000100F0F3F8BAF1000F0446BFF65FAF01F100412046BDE8F88F00283FF450AF224620462B46294600F0E2F804462046BDE8F88F5AA3D3E9002300F0D9F800226E
:403D8000614B00F017FD00283FF44DAF29462046BDE8F88F00F0C2F85C4B04469E420D462FDCA3F550239E4254DC02460B4600F0BFF80022544B00F0B9F8002206460F46A2
:403DC0004FF080432046294600F0B2F802460B463046394600F088FB4FF0000B04460D4623E74046494600F0A3F822462B4600F051FA02460B462046294600F097F8044675
:403E000005E7434B9E421ADC0022424B00F08EF8002206460F463F4B2046294600F03AFA0022394B00F084F802460B463046394600F05AFB4FF0020B04460D46F5E60246D6
:403E40000B460020344900F04FFB4FF0030B04460D46EAE600222C4B00F068F8002206460F46294B2046294600F062F802460B463046394600F038FB4FF0010B04460D4688
:403E8000D3E600BFAFF3008011DA22E33AAD903FEB0D76244B7BA93F513DD0A0660DB13F6E204CC5CD45B73FFF8300922449C23F0D5555555555D53F2F6C6A2C44B4A2BFA4
:403EC0009AFDDE522DDEAD3F6D9A74AFF2B0B33F711623FEC671BC3FC4EB98999999C93F9C7500883CE4377EFFFF0F440000F07FFB21F93FFB21F9BF182D4454FFFFDB3F07
:403F0000A0500000805000000000F03FFFFFF23FFF7F03400000F83F0000F0BF21F00041704700BF81F0004102E000BF83F0004330B54FEA41044FEA430594EA050F08BFAE
:403F400090EA020F1FBF54EA000C55EA020C7FEA645C7FEA655C00F0E2804FEA5454D4EB5555B8BF6D420CDD2C4480EA020281EA030382EA000083EA010180EA020281EA40
:403F80000303362D88BF30BD11F0004F4FEA01314FF4801C4CEA113102D0404261EB410113F0004F4FEA03334CEA133302D0524263EB430394EA050F00F0A780A4F10104F6
:403FC000D5F1200E0DDB02FA0EFC22FA05F2801841F1000103FA0EF2801843FA05F359410EE0A5F120050EF1200E012A03FA0EFC28BF4CF0020C43FA05F3C01851EBE371C7
:4040000001F0004507D54FF0000EDCF1000C7EEB00006EEB0101B1F5801F1BD3B1F5001F0CD349085FEA30004FEA3C0C04F101044FEA445212F5800F80F09A80BCF1004F7D
:4040400008BF5FEA500C50F1000041EB045141EA050130BD5FEA4C0C404141EB010111F4801FA4F10104E9D191F0000F04BF01460020B1FA81F308BF2033A3F10B03B3F173
:4040800020020CDA0C3208DD02F1140CC2F10C0201FA0CF021FA02F10CE002F11402D8BFC2F1200C01FA02F120FA0CFCDCBF41EA0C019040E41AA2BF01EB0451294330BDE5
:4040C0006FEA04041F3C1CDA0C340EDC04F11404C4F1200220FA04F001FA02F340EA030021FA04F345EA030130BDC4F10C04C4F1200220FA02F001FA04F340EA030029466D
:4041000030BD21FA04F0294630BD94F0000F83F4801306BF81F480110134013D4EE77FEA645C18BF7FEA655C29D094EA050F08BF90EA020F05D054EA000C04BF1946104679
:4041400030BD91EA030F1EBF0021002030BD5FEA545C05D14000494128BF41F0004130BD14F580043CBF01F5801130BD01F0004545F0FE4141F470014FF0000030BD7FEAFA
:40418000645C1ABF194610467FEA655C1CBF0B46024650EA013406BF52EA033591EA030F41F4002130BD00BF90F0000F04BF0021704730B54FF4806404F132044FF0000537
:4041C0004FF0000150E700BF90F0000F04BF0021704730B54FF4806404F1320410F0004548BF40424FF000013EE700BF42004FEAE2014FEA31014FEA02701FBF12F07F4320
:4042000093F07F4F81F06051704792F0000F14BF93F07F4F704730B54FF4607401F0004521F0004120E700BF50EA010208BF704730B54FF000050AE050EA010208BF704715
:4042400030B511F0004502D5404261EB41014FF4806404F132045FEA915C3FF4DCAE4FF003025FEADC0C18BF03325FEADC0C18BF033202EBDC02C2F1200300FA03FC20FA75
:4042800002F001FA03FE40EA0E0021FA02F11444C1E600BF70B54FF0FF0C4CF4E06C1CEA11541DBF1CEA135594EA0C0F95EA0C0F00F0DEF82C4481EA030621EA4C5123EACA
:4042C0004C5350EA013518BF52EA033541F4801143F4801338D0A0FB02CE4FF00005E1FB02E506F00042E0FB03E54FF00006E1FB03569CF0000F18BF4EF0010EA4F1FF048E
:40430000B6F5007F64F5407404D25FEA4E0E6D4146EB060642EAC62141EA55514FEAC52040EA5E504FEACE2EB4F1FD0C88BFBCF5E06F1ED8BEF1004F08BF5FEA500E50F139
:40434000000041EB045170BD06F0004646EA010140EA020081EA0301B4EB5C04C2BFD4EB0C0541EA045170BD41F480114FF0000E013C00F3AB8014F1360FDEBF002001F023
:40438000004170BDC4F10004203C35DA0C341BDC04F11404C4F1200500FA05F320FA04F001FA05F240EA020001F0004221F0004110EBD37021FA04F642EB06015EEA430E8A
:4043C00008BF20EAD37070BDC4F10C04C4F1200500FA04F320FA05F001FA04F240EA020001F0004110EBD37041F100015EEA430E08BF20EAD37070BDC4F1200500FA05F278
:404400004EEA020E20FA04F301FA05F243EA020321FA04F001F0004121FA04F220EA020000EBD3705EEA430E08BF20EAD37070BD94F0000F0FD101F00046400041EB010181
:4044400011F4801F08BF013CF7D041EA060195F0000F18BF704703F00046520043EB030313F4801F08BF013DF7D043EA0603704794EA0C0F0CEA135518BF95EA0C0F0CD017
:4044800050EA410618BF52EA4306D1D181EA030101F000414FF0000070BD50EA410606BF1046194652EA430619D094EA0C0F02D150EA013613D195EA0C0F05D152EA033661
:4044C0001CBF104619460AD181EA030101F0004141F0FE4141F470014FF0000070BD41F0FE4141F4780170BD70B54FF0FF0C4CF4E06C1CEA11541DBF1CEA135594EA0C0F9A
:4045000095EA0C0F00F0A7F8A4EB050481EA030E52EA03354FEA013100F088804FEA03334FF0805545EA131343EA12634FEA022245EA111545EA10654FEA00260EF00041F9
:404540009D4208BF964244F1FD0404F5407402D25B084FEA3202B61A65EB03055B084FEA32024FF480104FF4002CB6EB020E75EB030E22BFB61A754640EA0C005B084FEA9C
:404580003202B6EB020E75EB030E22BFB61A754640EA5C005B084FEA3202B6EB020E75EB030E22BFB61A754640EA9C005B084FEA3202B6EB020E75EB030E22BFB61A754631
:4045C00040EADC0055EA060E18D04FEA051545EA16754FEA06164FEAC30343EA52734FEAC2025FEA1C1CC0D111F4801F0BD141EA00014FF000004FF0004CB6E711F4801F61
:4046000004BF01430020B4F1FD0C88BFBCF5E06F3FF6AFAEB5EB030C04BFB6EB020C5FEA500C50F1000041EB045170BD0EF0004E4EEA113114EB5C04C2BFD4EB0C0541EA76
:40464000045170BD41F480114FF0000E013C90E645EA060E8DE60CEA135594EA0C0F08BF95EA0C0F3FF43BAF94EA0C0F0AD150EA01347FF434AF95EA0C0F7FF425AF104657
:4046800019462CE795EA0C0F06D152EA03353FF4FDAE1046194622E750EA410618BF52EA43067FF4C5AE50EA41047FF40DAF52EA43057FF4EBAE12E74FF0FF3C06E000BFEE
:4046C0004FF0010C02E000BF4FF0010C4DF804CD4FEA410C7FEA6C5C4FEA430C18BF7FEA6C5C1BD001B050EA410C0CBF52EA430C91EA030F02BF90EA020F0020704710F1FA
:40470000000F91EA030F58BF994208BF90422CBFD8176FEAE37040F0010070474FEA410C7FEA6C5C02D150EA013C07D14FEA430C7FEA6C5CD6D152EA033CD3D05DF8040B29
:40474000704700BF8446104662468C461946634600E000BF01B5FFF7B7FF002848BF10F1000F01BD4DF808EDFFF7F4FF0CBF012000205DF808FB00BF4DF808EDFFF7EAFFC4
:4047800034BF012000205DF808FB00BF4DF808EDFFF7E0FF94BF012000205DF808FB00BF4DF808EDFFF7CEFF94BF012000205DF808FB00BF4DF808EDFFF7C4FF34BF012045
:4047C00000205DF808FB00BF4FEA4102B2F1E04324BFB3F5001CDCF1FE5C0DD901F0004C4FEAC0024CEA5070B2F1004F40EB830008BF20F00100704711F0804F21D113F169
:404800003872BCBF01F00040704741F480114FEA5252C2F11802C2F1200C10FA0CF320FA02F018BF40F001004FEAC1234FEAD32303FA0CFC40EA0C0023FA02F34FEA4303E7
:40484000CCE77FEA625307D150EA01331EBF4FF0FE4040F44000704701F0004040F0FE4040F40000704700BF80F0004002E000BF81F0004142001FBF5FEA410392EA030F15
:404880007FEA226C7FEA236C6AD04FEA1262D2EB1363C1BFD218414048404140B8BF5B42192B88BF704710F0004F40F4000020F07F4018BF404211F0004F41F4000121F063
:4048C0007F4118BF494292EA030F3FD0A2F1010241FA03FC10EB0C00C3F1200301FA03F100F0004302D5494260EB4000B0F5000F13D3B0F1807F06D340084FEA310102F183
:404900000102FE2A51D2B1F1004F40EBC25008BF20F0010040EA03007047490040EB000010F4000FA2F10102EDD1B0FA80FCACF1080CB2EB0C0200FA0CF0AABF00EBC25086
:4049400052421843BCBFD0401843704792F0000F81F4000106BF80F400000132013BB5E74FEA41037FEA226C18BF7FEA236C21D092EA030F04D092F0000F08BF084670476D
:4049800090EA010F1CBF0020704712F07F4F04D1400028BF40F00040704712F100723CBF00F50000704700F0004343F0FE4040F4000070477FEA226216BF08467FEA23631E
:4049C0000146420206BF5FEA412390EA010F40F4800070474FF0000304E000BF10F0004348BF40425FEA000C08BF704743F0964301464FF000001CE050EA010208BF7047F8
:404A00004FF000030AE000BF50EA010208BF704711F0004302D5404261EB41015FEA010C02BF84460146002043F0B64308BFA3F18053A3F50003BCFA8CF2083AA3EBC2534F
:404A400010DB01FA02FC634400FA02FCC2F12002BCF1004F20FA02F243EB020008BF20F00100704702F1200201FA02FCC2F1200250EA4C0021FA02F243EB020008BF20EA9C
:404A8000DC7070474FF0FF0C1CEAD0521EBF1CEAD15392EA0C0F93EA0C0F6FD01A4480EA010C400218BF5FEA41211ED04FF0006343EA501043EA5111A0FB01310CF00040BE
:404AC000B1F5000F3EBF490041EAD3715B0040EA010062F17F02FD2A1DD8B3F1004F40EBC25008BF20F00100704790F0000F0CF0004C08BF49024CEA502040EA51207F3A34
:404B0000C2BFD2F1FF0340EAC250704740F400004FF00003013A5DDC12F1190FDCBF00F000407047C2F10002410021FA02F1C2F1200200FA02FC5FEA310040F1000053EAEC
:404B40004C0308BF20EADC70704792F0000F00F0004C02BF400010F4000F013AF9D040EA0C0093F0000F01F0004C02BF490011F4000F013BF9D041EA0C018FE70CEAD1533D
:404B800092EA0C0F18BF93EA0C0F0AD030F0004C18BF31F0004CD8D180EA010000F00040704790F0000F17BF90F0004F084691F0000F91F0004F14D092EA0C0F01D14202F7
:404BC0000FD193EA0C0F03D14B0218BF084608D180EA010000F0004040F0FE4040F40000704740F0FE4040F4400070474FF0FF0C1CEAD0521EBF1CEAD15392EA0C0F93EA04
:404C00000C0F69D0A2EB030280EA010C49024FEA402037D04FF0805343EA111143EA10130CF000408B4238BF5B0042F17D024FF4000C8B4224BF5B1A40EA0C00B3EB510FC6
:404C400024BFA3EB510340EA5C00B3EB910F24BFA3EB910340EA9C00B3EBD10F24BFA3EBD10340EADC001B0118BF5FEA1C1CE0D1FD2A3FF650AF8B4240EBC25008BF20F0B6
:404C8000010070470CF0004C4CEA50207F32C2BFD2F1FF0340EAC250704740F400004FF00003013A37E792F0000F00F0004C02BF400010F4000F013AF9D040EA0C0093F0F7
:404CC000000F01F0004C02BF490011F4000F013BF9D041EA0C0195E70CEAD15392EA0C0F08D142027FF47DAF93EA0C0F7FF470AF084676E793EA0C0F04D14B023FF44CAF67
:404D000008466EE730F0004C18BF31F0004CCAD130F000427FF45CAF31F000437FF43CAF5FE700BF4FF0FF3C06E000BF4FF0010C02E000BF4FF0010C4DF804CD4FEA4002F5
:404D40004FEA41037FEA226C18BF7FEA236C11D001B052EA530C18BF90EA010F58BFB2EB030088BFC81738BF6FEAE17018BF40F0010070477FEA226C02D15FEA402C05D1D0
:404D80007FEA236CE4D15FEA412CE1D05DF8040B704700BF844608466146FFE70FB5FFF7C9FF002848BF10F1000F0FBD4DF808EDFFF7F4FF0CBF012000205DF808FB00BF8D
:404DC0004DF808EDFFF7EAFF34BF012000205DF808FB00BF4DF808EDFFF7E0FF94BF012000205DF808FB00BF4DF808EDFFF7D2FF94BF012000205DF808FB00BF4DF808EDAF
:404E0000FFF7C8FF34BF012000205DF808FB00BF4FEA4002B2F1FE4F0FD34FF09E03B3EB12620DD94FEA002343F0004310F0004F23FA02F018BF404270474FF0000070470F
:404E400012F1610F01D1420205D110F0004008BF6FF0004070474FF000007047014B1868704700BF4CC1FF1F0E4B70B51E460E4C0025E41AA410A54204D056F825309847C3
:404E80000135F8E700F01EF9084B094C1E46E41AA4100025A54204D056F8253098470135F8E770BDD0500000D0500000D0500000D850000010B5431E0A44914204D011F8C8
:404EC000014B03F8014FF8E710BD03460244934202D003F8011BFAE7704700000000000073746172742E2E2E0A000000686F6C64206D6F64650A00006D616E75616C206D47
:404F00006F64650A000000006175746F206D6F64650A00005B4932435D696E7075742073656C6563743A25640A000000696E7075743D534255530A534255533A2530347868
:404F40002C20253034780A006368313A2534642C206368323A2534642C206368363A2534640A0000696E7075743D537469636B0A000000007370656564313A2564207370DC
:404F8000656564323A25640A00000000737469636B2074696D656F7574210A00696E7075743D4932430A00004348313A30782530327825303278204348323A30782530323D
:404FC00078253032780A00004553432072706D3A253464202534640A000000004241544C6576656C3A25640A000000004553432054696D656F75743A25642025640A000014
:405000004932432054696D656F75743A25640A00693263496E743A25640A0000C84900401900004F0040240040510040300000000140800000010140000F0014014000085B
:4050400000400140000A004C01400002105001401000000060520040241100480600005101402C11004808008000014034110048800000500140B411004810000000000055
:40508000E2652F227F2B7A3C075C143326A6813CBDCBF07A8807703C075C143326A6913C4FBB610567ACDD3F182D4454FB21E93F9BF681D20B73EF3F182D4454FB21F93FD4
:4050C00043000000F8B500BFF8BC08BC9E4670474D000000091E0000F8B500BFF8BC08BC9E46704729000000F8500000C8C0FF1F88000000F004000000000000FFFFFFFF6C
:40510000FF0000007F800000030000000000E02EC05D00001800000000366E010000000000000000000000000000000000000000000000000000000000000000C050000076
:40514000000000000000000000000000000000000000000000000000000000000000000000000000000000000000000000000000000000000000000000000000ECC0FF1F65
:4051800000000000000000000000000000000000000000000000000000000000000000000000000000000000000000000000000000000000000000000000000000000000EF
:4051C00000000000000000000000000000000000000000000000000000000000000000000000000000000000000000000000000000000000000000000000000000000000AF
:40520000000000000000000000000000000000000000000000000000000000000000000000000000000000000000000000000000000000000000000000000000000000006E
:40524000000000000000000000000000000000000000000000000000000000000000000000000000000000000000000000000000000000000000000000000000000000002E
:020000040001F9
:0200000480007A
:40000000034F00400B520040015B00400A64004005650040040001403A01014062020140560301405E04014055050140680601404F0701405F0801404D090140520A01403D
:40004000510B0140590C0140520D01405E0E0140410F01406214014055150140391601404B1701403A1801405C190140451A0140561B01400D4001401B410140144201406D
:4000800013430140064401400E4501400F4601400A4701400D48014011490140104C01400B4D014003500140015101400A361636223600A201320480084009400C80101555
:4000C0001129188219021C4127848172820F840F853C860D880F89388A388D0F8F0F85718771880589718B38580459045C115F010010021003220504070509010A020C0806
:400100000D200E4110401204166017401D051E4625442602275828802A102B022E042F093040324135013628374038103A0C3C083DA03E01452646404C884E0256025C0458
:400140006D54762077058004880889808A058E08C0E7C2F9C4BACA7DCCF9CEF6D0E0D230D640E20C0308041C054006A308A109030A0E0B04152A1680170419331B0C1E1C72
:400180001F1525332608270428A12A162C402E833080320F330F341A353036603740388039203A283B083E013F504034410245E046C047BE483A49FF4AFF4BFF4EF04F44A8
:4001C000500C54015604580459045A045B045C555D555F0166C06A406B0282048C048E3092189601983C9C029E04A201A404A628A83CB002B220B401B61CB808BA80BE1085
:40020000C003C704C9FFCA07CBFFCC40CD20CEF0CF05D008D804D904DA04DC13DD05DF01E040E1A8E240E3200182051409020A240B020E010F20108012281588172019A2DB
:400240001A201C201D341E411F20240225042724288029402A102F203040320335043680372038103A083B203E013F384304452446404D01514452C05304571659405A80FD
:400280005D095E405F106780874089409154920494109682970298809A029B189D809E18A080A101A229A404A502A708A880A913B120B208B320B504B620B702C069C2AF9B
:4002C000C4EECA4DCC79CEE6D0E2D6F0D880E220E60AEE010101050407180B080D3A1520170A213A310833013506373039A03F454001460449FF4A074BFF4C404D204EF045
:400300004F05500854015604580459045A045B045C515D555F01604061A86240632081488380840185808606876089E08B108C098E128F01940C9501961197029B049D0219
:400340009F18A304A43FA560A788A83FA980AC20ADA0B020B1F8B218B303B407B704BF44C043C9FFCAFFCBFFCF01D018D41CD604D804D904DA04DB04DC53DD34DF01E040D7
:40038000E240E440E540E680E880EA80EC80EE800010021204540608080809010B200E2010C115541C0C1D021E201F082180222423802680276029022E022F2632083754B1
:4003C000382839803B023C203D083E41418046A050045104534059115A085B805E025F08608062C06520664067406E406F04848087448E40904091549201930896809720F4
:4004000099209A029B189C409E18A010A145A201A322A404A502A602A708A840AB01B310B401B508C0A7C22CC4E9CAF1CC72CEFFD0C8D6CFD8B1E20EEE0302040310050820
:4004400006040F04110116011A021B032401271029042B083004310C32033310350137023E013F05404345EC4620480B49FF4AFF4BFF4D834E034F015018528054015604C3
:400480005804590F5A045B045C195D445F016040624064406540668068806A806C806E80800C8271840986D0875389308A038B408D318FC69010924095AC962097439B8C5E
:4004C0009C109EACA014A131A34EA8DCAA22AF08B0E0B30FB41FB7F0BA02BB88C013C104C5E0C6CBC80EC9FFCAFFCBFFCEF0CF44D00CD203D302D804D904DA04DB04DC55C0
:40050000DD15DF01E6C0EA40EB02012202200420051006A0080209880B800E200F04108012081708184419221EA021C02208240826022729280229022F2832283610370150
:40054000382039883C043D424040414C46A049014B024D044F01509056205D045E805F01660168086AC076807E408084820184088E40910893849420958097029C099D1386
:400580009EB8A140A220A608A880AB20B202C03EC26DC42ACA69CCA6CEDED0CBD6D0D880DE80E002EA20EC02071008D30A0C0B130C8A0E14112C131314201645180319119B
:4005C0001A041B0E1E08232C2511272628D32A042B082D40311032C0332A340F35403630370F38883A203B883E043F1140364102450C47EB483149FF4AFF4BFF4EF04F442F
:40060000500C54015604580459045A045B045C225D225F0166C06A406B02840886028A088C018E0C940D9C019E0CA80DB008B204B401B602B808BE10C003C504C9FFCA07A7
:40064000CBFFCC40CD20CEF0CF05D008D418D604D804D904DA04DB04DC15DD52DF01E040E1A8E240E32000980510070108200B150D040E110F0410081204172019011A2A40
:400680001D181E01240427A1280A29042C102E012F0630023120334037213A803E103F044108441047204A104B084C044F04500451045706581059125C245D015F80608094
:4006C0006290644085408D0495809625980A9CC09D119F79A008A412A610A70CAF40B080B204B454B510C0C7C2E5C442CAFECCADCE68D062D220D6F1D88DE440EA20EE20DA
:4007000001050207031A040709070B180D200F08100711061319170318021A051B401D01240728072B402C012E062F02300431033201333034023540370C39883B023F5015
:400740004005470449FF4A074BFF4C404D204EF04F05500854185604580459045A045B045C315D535F01604061A86240632088108A0C90409203941098149B019C099E10AA
:40078000A01CA202A620A80CAA11AE20B01FB101B440B620BE50D608D804D904DB04DC12DD90DF01010403400510082209010B080EA10F0810161580172918281A401C08A9
:4007C0001D801E802002210822012304250129802B082C122E042F0431083252340C3750388039203B013D0648014D804E015040520459015F406180638466808340840235
:4008000086808A808C028E409124928093019480960698289C429E049F40A008A282A416A518AA40AC04B001B210B308B490B710C04CC2FAC4F7CA7CCC7FCECDD208D6119C
:40084000D81DE210E820011C020103020401051410011110130C150C1711180119201B032401280129092B102D102E013201351F37203B083F40580459045C515F0181032B
:4008800083CC8450859A874588408A038C438EB08F459001920E9424964197989C029D029E019F04A280A471A688A708A920AA80AC30AD03AEC7AFD4B07FB151B320B480C3
:4008C000B5C0B71FBBA2BE10BF04C056C104C5CBC6E0C80BC9FFCAFFCBFFCEF0CF44D00CD401D604D804D904DA04DB04DC33DD33DF01E6C0EA40EB020180022405080740F7
:4009000009080A820C020E0410801120120A1304140A150418081A801C102111220623052690272029802A142F053080310836143701388039023B043E013F084101488022
:4009400049804A28521058815A085B106340658067018440874088088B208C8491049201930A9604982899089B019C029F40A204A304A412A708AB40B030B108B402B520D4
:40098000C037C25DC4EFCA3ECCEACECBD001D20CD60FD801E220E620E890EEC002030403100112021403180324032C012E02300234014005454049FF4A074BFF4C404D2088
:4009C0004EF04F055008580459045A045C115D055F01604061A862406320814082088580861C89808CA18E16931595339680970498A199809A0E9C1C9D339EA39F0CA040BE
:400A0000A12AA283A304A503A704AB08AD80B080B130B260B380B41AB540B60FB70FB808B902BAA0BB80BE01BF15C045C102C6C0C7EBC838C9FFCAFFCBFFCEF0CF44D00C9D
:400A4000D401D604D804D904DA04DB04DC55DD55DF01E6C0EA40EB0201080240034005050701080A0A0C0E290F201002110412201502180819021D241E491F0425042681DD
:400A80002709280A29082B082E012F2630023224352036863A403C203D013F064520470149014A014B024E025101520257355D015E605F0867808004810487408B068D028F
:400AC0008E20C0BCC2EEC415CAFECCF7CEE8D0A0D218D6F0D880E010E4A1000E0504060209010C080D040E06110114081504160619011F022402260127022C0E30083102FA
:400B000032043304340235013601380839803E013F41404241054206440345E0470C481249FF4AFF4BFF4C624DA04EF04F41500C580459045A045C555D055F01664067028B
:400B400069106A306B106D106E106F12809981048262830284E7861888088B048C818D0D90FF96E698399AC4A010A418A501A70CA90DAA01AD01AF0CB058B108B298B3020C
:400B8000B41FB504B638B701B902BA2ABF40D602D713D804D904DB04DC55DD50DF0100040182050406860A200D220F5011881610172119091B901D2C1E021F2920242140DF
:400BC0002205231025012610272229082E802F29308A331039543C203D803E023F4040444220488049104B4053045F026C086D447614770180018106822283108704880892
:400C00008A0190409110922094069580960899929B109C089D01A002A140A50DA611A780A920AA08AE40AF48B550B620C0FDC274C475CA72CC0FCEBED007D20CD680E00198
:400C4000E409EA09EC20EE134036410142044405450C46E0480949FF4AFF4BFF4C624DA04EF04F41500C5401580459045A045B0F5C115D155F016640670269106A306B1026
:400C80006D106E106F12820186E68C398EC490E79218949996629808A010A481A818ACFFB098B258B438B61FBA8AD602D713D804D904DB04DC15DD50DF01000401800380D5
:400CC00006080A640C010E800F2411881322140816061708184019921A6029202B102D202F4030013408364039013A143B803D013E023F24444045484C014E245720590120
:400D00005C80680269106B106D406F087204732278407A017E4082038501861087048A108F109280954098809C099E18A140A202A501A728B320C04DC27EC4EFCAA6CC5140
:400D4000CEEFD0D0D230D611DE80E20AE401EA08020406080B010E011E022208300832023401360437013E015602573C580459045B0E5C115D105F01813983C484028518D6
:400D800089088A048D998F629001930195E797189C029D10A181A204A401A5FFA801ABE6B002B158B201B398B404B538B71FB802BB8ABE11D602D712D804D904DB04DC558B
:400DC000DD50DF010004012004020508060109400A400E01102811021440181019111B041D241E061F01208021182359270128802A042B042C043080310832013504362013
:400E0000374138283B413D103E043F0248024A015A085D40650168286A406C016D146E016F107094760177047A017B017DC8810184028680870189028D108E808F40920A15
:400E4000941095809604979198029A049D069E809F58A144A456A520A680A708AF40B101B210B302C0B6C289C41ECA27CCFBCEEFD612D880DE40E080E210EC2040634101BD
:400E800042024404460C470E481449FF4AFF4BFF4C624DA04EF04F41500C580459045A045C115D055F016640670269106A306B106D106E106F128080824086048721880127
:400EC00089048C028F1090409280950896019A029B089C04A010A220A304A408A502A820A901AA10AE08AF02B0FFB11FB520B902BA08BE01BF01D418D604D804D904DB0496
:400F0000DC13DD50DF0100040301040605840629070408010A240C0F0E25100411021422155417011C201E40250126102740280529442C082D802E052F1032103341342029
:400F4000354837013B203D023E68409141104B10514053085E026520678280018201844089208A108D488E10901291349205931295809780988299049A019B059C449F4047
:400F8000A002A410A708A804A904AC02AD20AE20B084B528C0F5C2FEC4FACAFECCFDCEF4D00FD204D680D8B0E020E280E850EA05EC201220168030023340368839023B200A
:400FC0003E808740C430CCF0CE70E2100F0831803201364037083B805A015C805F0261046501868989019380950297209F40A220A402A688C280CCF0CE10D6E0D8C0E21033
:40100000E65033103E1083088640960197209D059F48A220A402A580A640AB06AC80CC10CE20E220E640EC20EEC019041A011D01835096119B809D059F50A402A980AB804F
:40104000AE20B310C670E220E680EA80EC40EE801010150180108D40C40CE0025004530256205C025D4060108B08901091419810D407D605D802E2041B0824208B048E20A7
:40108000910198109C029E20A70AB404C608C801E001E402E80844019020910193089810B402B702D004E808EC02208066046B206C08830196109B80AC02C840D880DAC002
:4010C000E280EA1003100B025F81831193019B80AA10B040B408B604B720C010C240D6A0E020E420EA800D80104013201480670878107D0190209101930898109C01C201A6
:40110000C40ED801DE0378407C8098C0A810AB20B001B180DC01DE04EA04EC04102A1A221C2A100A2030000030000000FFFF3FC00000000000460009370048200200004F83
:401140000406000900041002594F26007F01004E2603590400007900064F0000000000105110200030300E400708400700002A80000000016402030005E000C022FFFFFFE9
:4011800062A0F0410C00000000000212040404043333000100000000000040020010301000101012000000000000000000000000000000003E010000000000002A003A01FD
:4011C0002E012A00020080F27200F200000000003000000030003000000000000030300000000000C00000FB7B0040000000000000C0C000003F3F00410000C38200820052
:4012000000000000000100000000000000000000000000000000000000000000000000000000000000000000000000000000000000000000000000000000000000000000AD
:40124000000000000000000000000000000000000000000000000000000000000000000000000000000000000000000000000000000000000000000000000000000000006E
:40128000000000000000000000000000000000000000000000000000000000000000000000000000000000000000000000000000000000000000000000000000000000002E
:4012C00000000000000000000000000000000000000000000000000000000000000000000000000000000000000000000000000000000000000000000000000000000000EE
:4013000000000000000000000000000000000000000000000000000000000000000000000000000000000000000000000000000000000000000000000000000000000000AD
:0200000490006A
:0400000000004005B7
:0200000490105A
:04000000BC90ACAF55
:0200000490303A
:020000006DC7CA
:0200000490402A
:4000000000000000000000000000000000000000000000000000000000000000000000000000000000000000000000000000000000000000000000000000000000000000C0
:400040000000000000000000000000000000000000000000000000000000000000000000000000000000000000000000000000000000000000000000000000000000000080
:0200000490501A
:0C00000000012E15906900012E3AFE3020
:00000001FF