:400000000040002011000000B91D0000B91D000008B5044B1A6803F53F5302331A6001F0D3FE00BFFA46004010B5054C237833B9044B13B10448AFF300800123237010BD39
:4000400050C1FF1F00000000EC4E0000084B10B51BB108490848AFF300800848036803B910BD074B002BFBD0BDE81040184700BF0000000054C1FF1FEC4E0000C8C0FF1FBE
:40008000000000002DE9F04F99B000240D940C9400F06EFC62B602F085FCC04AC04B1A6001F078FF01F08AFF02F03CFD02F04AFBBC49BD4800F0AAFD1DE0264618AB03EBCA
:4000C00044034FF4806223F8282C0134E4B275000EAB5919204600F0CBFDB21DB34B042103F8121005F10D0000221A54183603F8161031355A550F2CDFD902F001FFAC4A9B
:400100000221084602F060FEA84C22465821084602F080FE072384F8533003F031F903F09DF903F009FA01F0F3F900F023FFA14800F0FEFB4FF000084746C2464FF48063E3
:400140000293CDF80C80C346444600E04C4602F027FE8146844207D010F0080F04D000F02BFC0D904FF0000B41F288310DA800F017FC08B14FF0010B8C4B93F85230DBB217
:400180009F4201D04FF0010A884B93F85270FFB2012001F017FF50B90CE0204601F01EFFC0F3C700814B18550134E4B200E00024052CF2D900230EE0DA1C7C4810F812403E
:4001C0005A00D11D415C18A8024441EA042122F8081C0133DBB2022BEED9BDF8580003F089F8BDF85A0003F0F3F8BDF85C0003F05DF96E4C94F8540003F0ACF994F85500F6
:4002000003F0B4F994F8560003F0BCF900F020FD012816D036E0661CF6B265000EAB5919304600F025FD063418AB2B4433F8283C190A5E4A02F814100D35DBB2535534464B
:4002400000E000240F2CE6D900F01CFD574C84F82C0000F01DFD84F82D0000F01FFD84F82F0000F021FD84F82E0000F0A5FB0C90BDF84030029A9A4201D1029302E0029363
:400280000123039300F010FD28B94FF47A710CA800F086FB58B1454B93F8573013F0FF0F2FD10027414B83F85270B84629E0039B3BB3BDF84030B3F5307F07D200233B4A17
:4002C00082F8523098461F4603931AE0A3F5307292B2B2F5207F07D24FF00108334B83F85280002303930CE0B3F5A86F07D34FF002082E4B83F852800023039301E0002375
:400300000393BAF1000F1DD0284B93F85230DBB2012B03D09BB1022B05D009E04FF001084FF0000A0EE04FF002084FF0000A09E04FF0000A1D4B83F852A0D04602E04FF0EE
:400340000008C246B8F1010F36D108AA0121BDF9380001F01FF908AA0221BDF93A0001F019F9012208A9084601F074F9022208A9084601F06FF908AA0621BDF9420001F05C
:4003800009F9BDF92A30B3F5967F01DB012400E000240122054B83F8522059E0C1290000A0C2FF1FF1270000C527000078C1FF1FD0C1FF1FF04E0000B8F1020F32D1BBF1B5
:4003C000000F0CD0AE4B042183F83010002283F8312083F8321083F8332083F85220A84C94F8300094F8313043EA002008AA012100B201F0CFF894F8320094F8333043EAD1
:40040000002008AA022100B201F0C4F8012208A9084601F01FF9022208A9084601F01AF9022415E00023964A82F85230ADF82030ADF8223008AA0621BDF9420001F0AAF8AC
:40044000BDF92A30B3F5967F01DB012400E0002400F0B8FE5CBB00F027FCD8B94FF47A710CA800F09DFAA8B9002204A908A801F043F9BDF9100000F0F7FEBDF9120000F070
:4004800005FFBDF9100000F015FCBDF9120000F023FC53E0002000F0E7FE002000F0F6FE002000F007FC002000F016FC46E0022C10D1BDF9220000F0D7FEBDF9200000F0A1
:4004C000E5FEBDF9220000F0F5FBBDF9200000F003FC33E0012C31D16A4B1B7813F0FF0F18D0684B4FF000021A70674D288800B200F0DEFE654E308800B200F0EBFE288813
:4005000000B200F0FBFB308800B200F009FC002001F080FD5E4B1B7813F0FF0F0ED000255B4B1D70284600F09FFE284600F0AEFE284600F0BFFB284600F0CEFB00F0E8FF98
:40054000544B1B7813F0FF0F02D00022514B1A7000F010FD504B1B7813F0FF0F02D000224D4B1A704D4B1B7813F0FF0F3FF4EEAD00224A4B1A70B8F1010F0AD0B8F1000F36
:4005800003D0B8F1020F08D00AE0454800F0D0F906E0444800F0CCF902E0434800F0C8F9374B93F85210414800F0C2F9012C14D014B1022C27D03FE0BDF83A20BDF8381098
:4005C0003B4800F0B5F9BDF92A30BDF92220BDF92010384800F0ACF92EE0374800F0A8F92B4B1B7813F0FF0F09D1274B1988274B1A8812B209B2314800F09AF91CE03048AF
:4006000000F096F918E02F4800F092F91C4890F8301090F8312090F8323090F833000090294800F085F9BDF92A30BDF92220BDF92010204800F07CF900F084FB044600F0D4
:4006400087FB02462146214800F072F9204B1978204800F06DF9204B1978204B1A78204800F066F959461F4800F062F91E4B19781E4800F05DF91E4800F05AF966E500BF71
:4006800078C1FF1F26C2FF1F10C3FF1F12C3FF1F2CC2FF1F41C2FF1F0DC2FF1F75C1FF1FFC4E0000084F0000184F0000244F00003C4F0000584F0000744F0000844F000048
:4006C0009C4F0000AC4F0000B84F0000D84F000040C2FF1FEC4F000042C2FF1F0EC2FF1FFC4F00001050000050C2FF1F20500000F84E000010B504460A2802D10D20FFF7B3
:40070000F9FF074B1B6823B1591C054A11601C7010BD044B1B680BB12046984710BD00BF6CC1FF1FA0C2FF1F10B5044602E00134FFF7E0FF20780028F9D110BD2DE9F04FB9
:4007400085B006468846741C3078002800F0ED80252803D0FFF7CEFF2646F4E7B31C7078302803D1F31CB078012706E02D2803D1F31CB078022700E000271E46002406E01D
:4007800004EB84046300C418303C30780136A0F13002D2B2092AF3D96C2801D04C2803D147F0040730780136002800F0BE80602803D9A0F12003DBB200E00346A3F1420228
:4007C000162A3ED8DFE802F04030373D3D3D3D3D3D3D3D3D3D433D3D3D0C3D373D3D3A00D8F800A008F10408002500E001351AF80530002BFAD103E02020FFF77BFF4D46A0
:4008000017F0020F04D105F10109A542F4D34D465046FFF789FF03E02020FFF76BFF3D466F1CA542F8D38EE798F8000008F10408FFF760FF87E74FF00A0C0AE04FF0100CCC
:4008400007E0FFF757FF7EE74FF0020C01E04FF0080C17F0040F04D0D8F8009008F104080AE0442B04D1D8F8009008F1040803E0D8F8009008F10408442B06D1B9F1000F32
:4008800003DAC9F1000947F008074FF0000E00E0AE46B9FBFCF30CFB1392D2B29946092A06D9782801D1272100E007211144CAB20EF10105303204A9714401F8102C0BB120
:4008C0000F2DE5D917F0080F06D004AB1D442D2305F8103C0EF1020517F0010F02D04FF0300B01E04FF0200BA94603E05846FFF701FFD14617F0020F04D109F1010AA14558
:40090000F4D3D146013D04AB2B4413F8100CFFF7F1FE002DF6D103E02020FFF7EBFEA94609F10105A145F7D30DE705B0BDE8F08F0FB400B583B004A951F8040B0191FFF7D7
:40094000FDFE03B05DF804EB04B07047074A13680133136013790133DBB21371642B04D9134600221A7101225A71704770C1FF1F08B508490F2003F019F8074B45F6BF5291
:400980005A60E021054A82F8231000229A6007221A6008BD4D09000010E000E000ED00E0044B1B6802689B1A8B4201D3012070470020704770C1FF1F014B1868704700BF37
:4009C00070C1FF1F08B51C4B1B7813F0FF0F03D001221A4B1A7002E00022184B1A70164B5B7813F0FF0F03D00122144B5A7002E00022124B5A70114B1B7833B1012001F096
:400A0000FDFA012001F012FB05E0002001F0F6FA002001F00BFB094B5B7833B1012001F0F9FA012001F00EFB08BD002001F0F2FA002001F007FB08BDD0C1FF1F76C1FF1FDA
:400A40004200401022F0550200F055000243D2B29300921023F0330302F033021343DBB2180940EA0310C0B2704700BF70B4451C8022002615E02B78134001D001238B40A7
:400A80001C43012A02D10135802200E05208013101E0002421460A29EDD91A4B23F8164001360F2EF5D9C27DD209164B83F82020C27DC2F3801283F82120C27DC2F340125A
:400AC00083F82220C27DC2F3001283F82320C27D02F00F0283F82420027E920983F82520C27DC2F3011283F82620027EC2F381014A0002F0020242EA510283F8272070BC6D
:400B0000704700BFE4C2FF1F014B23F811007047A4C2FF1F10B582B00446FFF791FF00238DF80730364B1A78511CC9B219701A4410715B7F032B5BD8DFE803F00220274839
:400B4000F02806D101212E4A5177FF212D4A117053E02C4A1278FF2A0CD002F11801B0EBC10F07DB1932B0EBC20F03DA0321244A517742E00021224A11703EE0172939D9ED
:400B800002221F4B5A77002337E01D4B00225A771A7000F02303202B08D1C4F30114194B1C701948FFF762FF012326E010F0300F07D1FF22134B1A701348FFF757FF0123F4
:400BC0001BE0FF220F4B1A70002316E0022913D90B4C6079A3792179403103EB0020C9B280B2FFF791FF002363772370022304E0002302E0002300E00023184602B010BD8C
:400C0000D4C1FF1FCCC0FF1FD8C1FF1F38B505460C46282200210B4804F05FF940220021094804F05AF9002306E04FF48061054A22F813100133DBB20F2BF6D9034B1D62A1
:400C40005C6238BDE4C2FF1FA4C2FF1FD4C1FF1F08B5064B5B6A984730B1044B1B6A9847C0B2FFF757FF08BD002008BDD4C1FF1F0138034B33F810300B800020704700BF52
:400C8000E4C2FF1F014B93F820007047E4C2FF1F014B93F821007047E4C2FF1F014B93F822007047E4C2FF1F014B93F823007047E4C2FF1F00EBC0000301054A82FB031212
:400CC000DB17C3EBA2131BB2024A1380704700BFD34D6210FCC1FF1F00EBC0000301054A82FB0312DB17C3EBA2131BB2024A5380704700BFD34D6210FCC1FF1F00EBC000B1
:400D00000301054A82FB0312DB17C3EBA2231BB2024A1380704700BF1F85EB51FCC1FF1F00EBC0000301054A82FB0312DB17C3EBA2231BB2024A5380704700BF1F85EB5155
:400D4000FCC1FF1F014B188800B27047FCC1FF1F014B588800B27047FCC1FF1F10B5012444E0012001F03CFA112001F039FA3C2001F036FA002001F033FA322001F030FA25
:400D8000322001F02DFA012001F02AFA002001F027FA832001F024FA142001F021FA052001F01EFA052001F01BFA012001F018FA032001F015FA042001F012FA072001F096
:400DC0000FFA632001F00CFA012C07D101F038FA0028FBD1012002F0C9FD06E001F030FA0028FBD10E2002F0C1FD0134142CB8DD10BD00BFB0F5486F01DD4FF4486010F5E8
:400E0000486F00DA0E4800280BDB4FF4486303FB00F00C4B83FB0023C017C0EB631000B27047074B03FB00F3064880FB0320DB17C3EB6010A0F5FF40333800B2704700BFE5
:400E400080F3FFFF398EE33810B501F099F900283CD001F063F90446FFF7AEFD204B58601B7A032B32D8DFE803F002081625822C2CD101331A4A137228E0062C07D1184B3F
:400E800002221A7200225A7288229A721EE00022134B1A721AE012494A7A88180473887A04448C720132D2B24A72022A0ED901330B720BE00A4B9B7A9C4204D1084B9A7BB5
:400EC0001A7401225A740022054B1A7241F288310448FFF765FD10B10122014B9A7410BDFCC1FF1F00C2FF1F70B517211D48FFF757FD002834D0FFF75FFD1B4C60612088C5
:400F000000B2FFF777FF194D2880608800B2FFF771FF174E30806C782B781C44C0F307231C44C0B204440B34E4B2022001F058F9092001F055F9687801F052F9287801F044
:400F40004FF9707801F04CF9307801F049F9002001F046F9002001F043F9204601F040F970BD00BF10C2FF1FFCC1FF1F0EC3FF1F0CC3FF1F08B51E4B1B7E13F0FF0F32D19D
:400F80001B4B5B7E012B0FD013B1022B1CD02CE0002000F075FF01F0B3F8FFF70DFD144BD86101225A7620E04FF47A711148FFF7F7FCD0B1022000F063FFFFF7FDFC0C4BA8
:400FC000D86102225A7610E04FF496710948FFF7E7FC50B1FFF7C2FE054B00229A74012119765A7601E0FFF77FFFFFF72DFF08BDFCC1FF1F18C2FF1F08B5164B1B78ABB984
:40100000812001F003FE062001F000FE002001F0FDFD002001F0FAFD052001F0F7FD8C2001F0F4FD01220B4B1A7008BD812001F0EDFD062001F0EAFD002001F0E7FD002006
:4010400001F0E4FD022001F0E1FD892001F0DEFD08BD00BF1CC2FF1F08B5174B5B78012B08D013B1022B18D021E0134A122191700021D17010498A7810448870CA780132D9
:40108000D2B2CA700D2A03D901334B70002008BD0122094B5A70002008BD074B00225A709B78834205D1FFF7A7FF012008BD002008BD4FF0FF3008BD1CC2FF1F08B5822084
:4010C00001F0A4FD062001F0A1FD002001F09EFD002001F09BFD022001F098FD8A2001F095FD08BD344B1B79062B60D8DFE803F0040D18222D2D35002F4A0102D1800B30A2
:40110000507101331371002070472B4AD1880143D18051790844507101331371002070470102254A11815179084450710133137100207047204A118901431181517908443C
:40114000507101331371002070471B4A5179084450710133137100207047174B00221A715B79834225D110B5134BB3F90630934206DAC3F30A035B421BB2104A138001E001
:401180000E4A13800C4BB3F90830002B06DAC3F30A035B421BB20A4A138001E0084A13800124054B9C72FFF789FF204610BD002070474FF0FF3070471CC2FF1F10C3FF1F07
:4011C00012C3FF1F10B501F0EFFC00283ED001F0B7FC0446FFF7F0FB214BD86000221A745B7C032B3BD8DFE803F0020B2129621ED2B2012A33D81A4A94740133537410BD6B
:40120000174B9B7C012B05D1112C03D10222144B5A7410BD022B05D1092C03D10322104B5A7410BD00220E4B5A7410BD2046FFF713FFA0B100220A4B5A7410BD2046FFF79A
:4012400051FF60B10022064B5A7410BD4FF47A710448FFF7A5FB10B10122014B1A7410BD1CC2FF1F28C2FF1F00EBC0000301054A82FB0312DB17C3EBA2131BB2024A1380CF
:40128000704700BFD34D621030C2FF1F00EBC0000301054A82FB0312DB17C3EBA2131BB2024A5380704700BFD34D621030C2FF1F00EBC0000301054A82FB0312DB17C3EBFD
:4012C000A2231BB2024A1380704700BF1F85EB5130C2FF1F00EBC0000301054A82FB0312DB17C3EBA2231BB2024A5380704700BF1F85EB5130C2FF1F10B5012444E00120A1
:4013000001F002F9112001F0FFF8322001F0FCF8002001F0F9F8322001F0F6F8322001F0F3F8012001F0F0F8002001F0EDF8832001F0EAF8142001F0E7F8052001F0E4F8B4
:40134000052001F0E1F8012001F0DEF8032001F0DBF8042001F0D8F8072001F0D5F8592001F0D2F8012C07D101F0FEF80028FBD1012002F0FBFA06E001F0F6F80028FBD110
:401380000E2002F0F3FA0134142CB8DD10BD00BFB0F5486F01DD4FF4486010F5486F00DA0E4800280BDB4FF4486303FB00F00C4B83FB0023C017C0EB631000B27047074BE7
:4013C00003FB00F3064880FB0320DB17C3EB6010A0F5FF40333800B2704700BF80F3FFFF398EE33810B501F05FF800283CD001F029F80446FFF7E0FA204B58601B7A032BF3
:4014000032D8DFE803F002081625822C2CD101331A4A137228E0062C07D1184B02221A7200225A7288229A721EE00022134B1A721AE012494A7A88180473887A04448C7290
:401440000132D2B24A72022A0ED901330B720BE00A4B9B7A9C4204D1084B9A7B1A7401225A740022054B1A7241F288310448FFF797FA10B10122014B9A7410BD30C2FF1F6E
:4014800034C2FF1F70B517211D48FFF789FA002834D0FFF791FA1B4C6061208800B2FFF777FF194D2880608800B2FFF771FF174E30806C782B781C44C0F307231C44C0B289
:4014C00004440B34E4B2022001F01EF8092001F01BF8687801F018F8287801F015F8707801F012F8307801F00FF8002001F00CF8002001F009F8204601F006F870BD00BF0F
:4015000044C2FF1F30C2FF1F0EC3FF1F0CC3FF1F08B51E4B1B7E13F0FF0F32D11B4B5B7E012B0FD013B1022B1CD02CE0002000F023FF00F079FFFFF73FFA144BD861012211
:401540005A7620E04FF47A711148FFF729FAD0B1022000F011FFFFF72FFA0C4BD86102225A7610E04FF496710948FFF719FA50B1FFF7C2FE054B00229A74012119765A7669
:4015800001E0FFF77FFFFFF72DFF08BD30C2FF1F4CC2FF1F00B5B0F5D06F03DCB0F5C07F03DB04E04FF4D06001E04FF4C070B0F5806F0DDDA0F580604FF47A7303FB00F0BD
:4015C000224B83FB00E3C017C0EB23231BB210E0B0F5806F0CDAC0F580601D4B03FB00F01A4B83FB00E3C017C0EB23231BB200E00023B3F57A7F03DC13F57A7F03DB03E093
:401600004FF47A7300E0124B013907291BD8DFE801F004070A0D1013161913805DF804FB53805DF804FB93805DF804FBD3805DF804FB13815DF804FB53815DF804FB938174
:401640005DF804FBD3815DF804FB00BF6766666618FCFFFF012A24D1B0F900304B2B0DDD4B3B4FF47A7202FB03F3214A82FB03021A44DB17C3EB62230B80704713F14B0FF3
:401680000CDA4B331B4A02FB03F3194A82FB03021A44DB17A3EB62230B80704700230B807047022A23D1B0F902304B2B0DDD4B3B4FF47A7202FB03F30D4A82FB03021A4445
:4016C000DB17C3EB62234B80704713F14B0F0CDA4B33084A02FB03F3054A82FB03021A44DB17A3EB62234B80704700234B807047C70FB38D18FCFFFF2DE9F04704460E46CE
:401700001746B0F9020003F071F9A54903F076FA8046B4F9000003F069F9A14903F06EFA044628F0004520F0004A404602F066FD80468946204602F061FD42464B4602F0B4
:4017400087F993A3D3E9002302F0D6FE03F044F804463860002103F04FFB00B34FF07E51204603F035FBD0B1504602F047FD8AA3D3E9002302F096FD80468946284602F082
:401780003DFD42464B4602F0D9FB03F025F80446002103F01DFB002800F05E8152E14FF07E51204603F028FB00B34FF08041204603F00EFBD0B1504602F020FD76A3D3E9C6
:4017C000002302F06FFD80468946284602F016FD42464B4602F0B2FB02F0FEFF0446002103F0F6FA002800F037812DE14FF08041204603F001FBA0B14FF08041204603F08E
:40180000F1FA70B10AF100444FF07D51504603F041F905464FF07D51204603F03BF904461AE14FF08041204603F0E6FA10B35D49204603F0CDFAE8B1504602F0DFFC56A3AC
:40184000D3E9002302F02EFD80468946284602F0D5FC42464B4602F071FB02F0BDFF0446002103F0B5FA00B1002404F1004405F10045F1E04B49204603F0BEFAE8B14FF0DD
:401880008141204603F0A4FAB8B1504602F0B6FC41A3D3E9002302F005FD80468946284602F0ACFC42464B4602F048FB02F094FF00F1004405F10045CEE04FF08141204620
:4018C00003F09AFA18B105F100442546C4E00021204603F087FAD0B13349204603F096FAA8B1504602F08AFC2BA3D3E9002302F0D9FC80468946284602F080FC42464B4609
:4019000002F01CFB02F068FF2C460546A4E02649204603F067FA08B34FF04041204603F075FAD8B1504602F069FC1BA3D3E9002302F0B8FC80468946284602F05FFC424607
:401940004B4602F0FBFA02F047FF0746002103F03FFA00287AD12C463D467DE04FF04041204603F049FA08B34FF04041204603F039FAD8B10AF100404FF07D5103F08AF8AF
:4019800005464FF07D51504603F084F8044663E0182D4454FB21E93F9A9999999999E93F00007A4400004040000080BF4FF04041204603F00DFA10B33149204603F026FA0A
:4019C000E8B1504602F01AFC2BA3D3E9002302F069FC80468946284602F010FC42464B4602F0ACFA02F0F8FE0746002103F0F0F900B1002705F1004407F100452CE0204904
:401A0000204603F0EFF920B31E49204603F0FEF908B3504602F0F2FB17A3D3E9002302F041FC80468946284602F0E8FB42464B4602F084FA02F0D0FE00F1004005F1004457
:401A4000054609E0002407E0002405E02C46002502E02C4600E02C460B49284603F01AF803F0DEF970800849204603F013F803F0D7F93080BDE8F0879A9999999999E93F5D
:401A8000000040C0000080C000007A4408B50122024B1A70FEF796FF08BD00BF50C2FF1FFEE700BFF0B40022174611E050F82760F3B226F0FF0608E001EB420511F8124076
:401AC0006D78A5550132013BDBB2002BF4D101372A2FEBD9F0BC704708B50A46002103F0FCF908BD10B517222D4B1A8018232D490B7002310A802C4A1370192204310A809C
:401B000002310B701D200231088002310A70EF21264A1180023213704FF49C7102321180023213700222224B1A7008224FF040231A7043F2133203F212231A80023B0522AB
:401B40001A701B7843F2C82404E04FF4F07001F06FFF013C24B1174B1B7813F0800FF4D114B90120FFF79CFF48214FF040231970202203F500731A70A3F5FE7300221A80D4
:401B8000072018700C480270023001701A700222033B1A70094A137843F03F03137010BD80400040824000408640004090400040004300401042004006400040A24300401C
:401BC000F8B5194B1B78DBB2184E3478E4B2184F3D78EDB203F00701164A11701B090132137044F00303337045F003033B700322114B1A700F2240331A70802103F2A473F2
:401C0000197001230D490B7020200331087005310A700B4A13700A2001F0BEFE3D7034704422084B1A70F8BDCF010049F8460040F94600406E5800401D510040205B00400D
:401C4000585B00407658004008B503F03BF908BD38B572B600240CE03E4D630019194A0011462A44084691882858FFF735FF0134E4B20B2CF0D900240CE03648A200111930
:401C80004B000344B3F85020D96C986CFFF7DCFF0134E4B2042CF0D92F494FF09040FFF701FF04212D48FFF717FF04222C492D48FFF7CAFF2C4A137843F0020313701032A9
:401CC000137843F002031370284C237843F040032370A2F58632513A137843F0100313700A2223492348FFF7AFFF0A2222492348FFF7AAFF082222492248FFF7A5FF08224D
:401D000021492248FFF7A0FF082221492148FFF79BFF082220492148FFF796FF0A2220492048FFF791FF204A137843F0080313701E4D61232B70FFF7D5FE81232B70012238
:401D40001B4B1A70FFF73CFF0E2221461948FFF77BFF38BD2C500000AC00004800760040541200480876004003500140A043004010120048005100401C120048C0510040DA
:401D800028120048125100403012004822510040381200483251004040120048525100404812004860510040224300400048004004000840B043004008B503F057F8036846
:401DC0000C2B00D1FEE7FEE708B5104E104D16E029686B68AC68002204E051F8040B43F8040B0432A242F8D1E868002203E0002143F8041B04328242F9D11035013E002E5A
:401E0000E6D103F039F8FEF73DF9FEE7010000001051000008B5114A114B1A60114A136843F40073136000230AE0032B03D80E4A52F8231000E00D490D4A42F8231001335B
:401E40002F2BF2D90B4B1A780B4B1A70084A0B4B1A60FFF7FDFE01F0A7FC08BD0004FA050CED00E014ED00E000000000B91D000000C0FF1FBC760040C0C0FF1F08ED00E0B3
:401E8000014B1870704700BF7964004010B541F6FF734FF480420121022001F02DFC084C207041F6FF731A4601210C2001F042FC6070044801F05CFC002001F05FFC10BDE2
:401EC00054C2FF1FF91F000070B52C4C207801F0A1FC607801F09EFC294B1B78FF2B03D101F006FD264B1870254D2878062302460C2101F017FD214E341DA4B2224645F610
:401F0000A031287801F022FD2978307801F0C2FC6B78FF2B02D101F0EBFC6870184D6878072302460C2101F0FDFC164A92B22146687801F00BFD114C6978607801F0AAFC39
:401F40000121207801F04AFC0121607801F046FC01F076FD0C4A137843F02003137001F073FD0A4B1A7842F001021A701A7842F002021A700122064B1A6070BD54C2FF1F7D
:401F8000CDC0FF1F14C3FF1F9B6400407264004080E200E008B5074B1B6923B9FFF776FF0122044B1A6101F091FBFFF78DFF024B1B7808BD54C2FF1F6364004008B501F096
:401FC00093FB08BD044B1B7803F0FF020BB90028F8D01046704700BF63640040C0F10500034B33F91030034A1088181A00B2704714C3FF1F38C6FF1F704700BF044A1378E1
:4020000003F0FD03400000F0020018431070704720510040044A137803F0FB03800000F0040018431070704720510040044A137803F0BF03800100F04000184310707047E6
:4020400030510040044A137803F07F03C001C0B218431070704700BF3051004008B51149042001F0B7FC0721042001F0C7FC00220D4B1A7071220D4B1A70202201331A70B4
:402080000B49052001F0A6FC0721052001F0B6FC0622084B1A70472210331A70022250331A7008BD8922000068C2FF1F8E640040212300002464004008B501F0C1FC0C4A01
:4020C000137843F0200313700132137843F010031370084A1023136007490B7843F010030B70202305490B60136001F0ADFC08BD9E64004000E100E09464004080E200E01E
:4021000008B5054B5B7823B9FFF7A8FF0122024B5A70FFF7D1FF08BD68C2FF1F1022134B1A60134A9378DBB2D178C9B2127912F0FF0F01D18B4211D00E4AD05CC0B2013331
:40214000DBB21F2B00D90023094A9370137913F0FF0F06D00022064B1A7102E0064B1878C0B21022054B1A60704700BF80E100E068C2FF1F40C3FF1F4E64004000E100E0C1
:402180001022144B1A60144B9A78D2B2DB78DBB29A4206D1104B1B7913F0FF0F15D0202014E00D4B9A78D2B2DB78DBB29A4205D2094AD3789078181AC0B207E0064AD37826
:4021C0009078181A2030C0B200E000201022034B1A60704780E100E068C2FF1F00E100E0114B5B78F3B12022104B1A600E4A9379DBB2D279934207D10D4B1B7813F0040F14
:4022000002D10C4B18700AE01F2A02D90022064BDA71054AD3790849C8540133D3712022064B1A60704700BF68C2FF1F80E100E0646400404064004020C3FF1F00E100E0E6
:4022400020220E4B1A600E4B9A79D2B2DB799A420FD00B4A9279D2B2934204D9084A9079181AC0B206E0064A9079181A2030C0B200E000202022034B1A60704780E100E080
:4022800068C2FF1F00E100E01D4B1B78DBB213F01E0F05D01B4803F01E0201780A43027003F0200303F0FF0233B3174B1978C9B2164B1B78DBB21648C154164B1B7813F091
:4022C000FF0F02D00121144B197010490B780133DBB20B700B78DBB21F2B02D900210B4B19700A4B1978C9B20C4B1B78DBB2994202D10121074B1970002AC5D1704700BFEE
:402300006F64004068C2FF1F4E6400406BC2FF1F40C3FF1F6CC2FF1F6DC2FF1F6AC2FF1F13E0104B1B78DBB21F2B02D900220D4B1A700C4A1378DBB20B49CB5CDBB20B49A0
:402340000B7013780133DBB21370064B1B78DBB2074A1278934204D0064B1B7813F0040FDFD070476EC2FF1F20C3FF1F406400406FC2FF1F64640040014B1870704700BFEA
:402380007364004008B51149022001F023FB0721022001F033FB00220D4B1A7071220D4B1A702022FF331A700B49032001F012FB0721032001F022FB0622084B1A704722A2
:4023C00010331A70022253331A7008BDB125000071C2FF1F8A640040492600002264004008B501F02DFB0C4A137843F020031370FF32137843F010031370084A042313608C
:4024000007490B7843F010030B70082305490B60136001F019FB08BD9A64004000E100E09564004080E200E008B5054B5B7823B9FFF7A8FF0122024B5A70FFF7D1FF08BD4F
:4024400071C2FF1F0422134B1A60134A9378DBB2D178C9B2127912F0FF0F01D18B4211D00E4AD05CC0B20133DBB21F2B00D90023094A9370137913F0FF0F06D00022064B00
:402480001A7102E0064B1878C0B20422054B1A60704700BF80E100E071C2FF1F80C3FF1F4364004000E100E00422144B1A60144B9A78D2B2DB78DBB29A4206D1104B1B79E5
:4024C00013F0FF0F15D0202014E00D4B9A78D2B2DB78DBB29A4205D2094AD3789078181AC0B207E0064AD3789078181A2030C0B200E000200422034B1A60704780E100E083
:4025000071C2FF1F00E100E0114B5B78F3B10822104B1A600E4A9379DBB2D279934207D10D4B1B7813F0040F02D10C4B18700AE01F2A02D90022064BDA71054AD379084963
:40254000C8540133D3710822064B1A60704700BF71C2FF1F80E100E0656400404164004060C3FF1F00E100E008220E4B1A600E4B9A79D2B2DB799A420FD00B4A9279D2B2FA
:40258000934204D9084A9079181AC0B206E0064A9079181A2030C0B200E000200822034B1A60704780E100E071C2FF1F00E100E01D4B1B78DBB213F01E0F05D01B4803F058
:4025C0001E0201780A43027003F0200303F0FF0233B3174B1978C9B2164B1B78DBB21648C154164B1B7813F0FF0F02D00121144B197010490B780133DBB20B700B78DBB228
:402600001F2B02D900210B4B19700A4B1978C9B20C4B1B78DBB2994202D10121074B1970002AC5D1704700BF6965004071C2FF1F4364004074C2FF1F80C3FF1F75C2FF1F6C
:4026400076C2FF1F73C2FF1F13E0104B1B78DBB21F2B02D900220D4B1A700C4A1378DBB20B49CB5CDBB20B490B7013780133DBB21370064B1B78DBB2074A1278934204D011
:40268000064B1B7813F0040FDFD0704777C2FF1F60C3FF1F4164004078C2FF1F6564004008B51149062001F095F90721062001F0A5F900220D4B1A7072220D4B1A70202287
:4026C000FC331A700B49072001F084F90721084601F094F90622084B1A70472210331A70022251331A7008BD512800007AC2FF1F8C640040E92800002764004008B501F085
:402700009FF90C4A137843F020031370FC32137843F010031370084A4023136007490B7843F010030B70802305490B60136001F08BF908BD9C64004000E100E098640040C3
:4027400080E200E008B5054B5B7823B9FFF7A8FF0122024B5A70FFF7D1FF08BD7AC2FF1F4022134B1A60134A9378DBB2D178C9B2127912F0FF0F01D18B4211D00E4AD05C0D
:40278000C0B20133DBB2FF2B00D10023094A9370137913F0FF0F06D00022064B1A7102E0064B1878C0B24022054B1A60704700BF80E100E07AC2FF1FD4C3FF1F48640040EE
:4027C00000E100E010B54023064A1360064A147800211170054A13602402FFF7C1FF204380B210BD80E100E07AC2FF1F00E100E04022144B1A60144B9A78D2B2DB78DBB243
:402800009A4206D1104B1B7913F0FF0F15D0FF2014E00D4B9A78D2B2DB78DBB29A4205D2094AD3789078181AC0B207E0064AD3789078181A0138C0B200E000204022034B0B
:402840001A60704780E100E07AC2FF1F00E100E01D4B1B78DBB213F01E0F05D01B4803F01E0201780A43027003F0200303F0FF0233B3174B1978C9B2164B1B78DBB2164853
:40288000C154164B1B7813F0FF0F02D00121144B197010490B780133DBB20B700B78DBB2FF2B02D100210B4B19700A4B1978C9B20C4B1B78DBB2994202D10121074B19707A
:4028C000002AC5D1704700BF686500407AC2FF1F486400407DC2FF1FD4C3FF1F7EC2FF1F7FC2FF1F7CC2FF1F13E0104B1B78DBB2312B02D900220D4B1A700C4A1378DBB20D
:402900000B49CB5CDBB20B490B7013780133DBB21370064B1B78DBB2074A1278934204D0064B1B7813F0040FDFD0704780C2FF1FA0C3FF1F4865004081C2FF1F6864004061
:4029400008B50949012001F045F80721012001F055F80622054B1A70472210331A70022251331A7008BD00BF212A00002A65004010B501F065F80446084A137843F01003EA
:4029800013700223064A1360A2F5C072136000F0FDFE204601F058F810BD00BF9B65004080E200E008B5054B1B7823B9FFF7C8FF0122024B1A70FFF7DBFF08BD84C2FF1FA4
:4029C000114B1B78F3B10222104B1A600E4A53889BB29288934207D10D4B1B7813F0040F02D10C4B18700AE0FF2A02D90022064B9A80054A93880849C85401339380022294
:402A0000064B1A60704700BF84C2FF1F80E100E06B6500404B650040D4C4FF1F00E100E014E0114B1B889BB2FF2B02D900220E4B1A800D4A13889BB20C49CB5CDBB20C4942
:402A40000B7013889BB201339BB21380064B1B889BB2084A1288934204D0074B1B7813F0040FDED0704700BF86C2FF1FD4C4FF1F4B65004088C2FF1F6B65004008B511494F
:402A8000082000F0A7FF0721082000F0B7FF00220D4B1A7071220D4B1A702022FE3B1A700B49092000F096FF0721092000F0A6FF0622084B1A70472210331A7002224F331B
:402AC0001A7008BD712C00008BC2FF1F85650040092D00002765004008B500F0B1FF0D4A137843F020031370FE3A137843F010031370094A4FF48073136008490B7843F0AC
:402B000010030B704FF4007305490B60136000F09BFF08BD9565004000E100E09665004080E200E008B5054B5B7823B9FFF7A6FF0122024B5A70FFF7CFFF08BD8BC2FF1FD9
:402B40004FF48072134B1A60134A9378DBB2D178C9B2127912F0FF0F01D18B4211D00F4AD05CC0B20133DBB21F2B00D900230A4A9370137913F0FF0F06D00022064B1A71AE
:402B800002E0074B1878C0B24FF48072054B1A60704700BF80E100E08BC2FF1FD4C5FF1F4565004000E100E04FF48072144B1A60144B9A78D2B2DB78DBB29A4206D1114B6A
:402BC0001B7913F0FF0F15D0202014E00D4B9A78D2B2DB78DBB29A4205D20A4AD3789078181AC0B207E0074AD3789078181A2030C0B200E000204FF48072034B1A60704718
:402C000080E100E08BC2FF1F00E100E0124B5B7803B34FF40072114B1A600F4A9379DBB2D279934207D10E4B1B7813F0040F02D10C4B18700AE01F2A02D90022064BDA714C
:402C4000054AD3790849C8540133D3714FF40072064B1A60704700BF8BC2FF1F80E100E06665004046650040F4C5FF1F00E100E01D4B1B78DBB213F01E0F05D01B4803F0C1
:402C80001E0201780A43027003F0200303F0FF0233B3174B1978C9B2164B1B78DBB21648C154164B1B7813F0FF0F02D00121144B197010490B780133DBB20B700B78DBB261
:402CC0001F2B02D900210B4B19700A4B1978C9B20C4B1B78DBB2994202D10121074B1970002AC5D1704700BF676400408BC2FF1F456500408EC2FF1FD4C5FF1F8FC2FF1F02
:402D000090C2FF1F8DC2FF1F13E0104B1B78DBB21F2B02D900220D4B1A700C4A1378DBB20B49CB5CDBB20B490B7013780133DBB21370064B1B78DBB2074A1278934204D016
:402D4000064B1B7813F0040FDFD0704791C2FF1FF4C5FF1F4665004092C2FF1F6665004008B500F06DFE084A137843F0040313701032137843F00403137000F065FE4FF471
:402D80000042024B1A6008BDA543004000E100E000F07F00014B1870704700BF25C6FF1F4FF40041054B1960054A1078137803F01003DBB21370034B1960704780E100E016
:402DC00024C6FF1F00E100E010B44FF400440A4B1C6032B11346094A1360094B1880094B19800023084A1370084A13704FF40042074B1A6010BC704780E100E020C6FF1F2D
:402E000028C6FF1F2EC6FF1F32C6FF1F31C6FF1F00E100E010B44FF400440A4B1C6032B11346094A1360094B1880094B19800023084A1370084A13704FF40042074B1A6073
:402E400010BC704780E100E018C6FF1F26C6FF1F2CC6FF1F2AC6FF1F14C6FF1F00E100E000F07F00014B1870704700BF1CC6FF1F10B50122174B1A7080220E3B1A7070201F
:402E800002331870032211331A70002401331C70FFF77EFF7120FFF7E3FF4FF400420E4B1A6007210F2000F0A9FD0C490F2000F091FD0B4B1C700B4B1C700B4B1C700B4B5F
:402EC0001C700B4B1C800B4B1C700B4B1C700B4B1C8010BDD649004080E100E01D2F000030C6FF1F24C6FF1F32C6FF1F31C6FF1F2EC6FF1F2AC6FF1F14C6FF1F2CC6FF1F76
:402F000008B5054B1B7823B9FFF7B2FF0122024B1A70FFF725FF08BD94C2FF1F08B5944B1B78DBB213F0080F77D0924B1B785B08914A1370914A1278D2B2934232D18D4B3A
:402F40001B7813F0010F1CD08D4A1378DBB28D490968CB5CDBB287490B701421844B19701378DBB2884A137013780133DBB21370864A137843F0110313700822844B1A7019
:402F800070E110227A4B1A70804A137843F01203137001227E4B1A707E4A137843F0100313705FE17C4A1278D2B2934231D1714B1B7813F0010F1BD0784A1378DBB27849BA
:402FC0000968CB5CDBB26B490B701421684B19701378DBB2734A137013780133DBB213706A4A13780B4313701822694B1A7039E110225F4B1A70654A137843F018031370D2
:403000001122634B1A70634A137843F01003137028E10022564B1A7024E113F0010F00F021815B4A1278013A172A00F21281DFE812F018001001100134001001100110018A
:40304000520010011001100110011001100110011001820010011001C100100110011001DF00444B1B78DBB2434A13709BB24E4A128892B293420CD210223D4B1A703E4BFD
:403080001B783F4A1370404A13700422404B1A70E8E00022364B1A70E4E03B4B1A78434B1B889BB29A4212D2324B1B7832490B7010222F4B1A70344A1378DBB23148006867
:4030C0000978C15413780133DBB21370CAE00022274B1A70C6E013F0020F1ED12A4B1A78314B1B889BB29A4210D2274A1378DBB224490968CB5CDBB21E490B7004211C4B40
:40310000197013780133DBB21370ABE0FF22194B1A700422013B1A70A4E0FF22154B1A700022013B1A7019490B7803F0EF030B70174B1A7096E00F4B1B78DBB20E4A13703E
:403140009BB21B4A128892B293420CD21022084B1A70094B1B78114A1370124A137014220B4B1A707EE00022014B1A707AE000BFD7490040D849004095C2FF1F25C6FF1F95
:4031800032C6FF1F20C6FF1F31C6FF1F24C6FF1F30C6FF1FD64900401CC6FF1F2AC6FF1F18C6FF1F14C6FF1F28C6FF1F2EC6FF1F26C6FF1F364B1A78364B1B889BB29A42DB
:4031C00012D2354B1B7835490B701022344B1A702F4A1378DBB2334800680978C15413780133DBB213703DE000222D4B1A7039E013F0020F1ED1264B1A782B4B1B889BB205
:403200009A4210D2224A1378DBB226490968CB5CDBB221490B700421214B197013780133DBB213701EE0FF221B4B1A700422013B1A7017E0FF22184B1A700422013B1A70FE
:403240001A4A137803F0EF0313700022184B1A7008E00023164A1370164A1370164A13700F4A13700E4B1B7813F0200F0CD00F4A137803F0EF03137000220D4B1A700F4AB5
:40328000137803F0EF031370FEF700FC08BD00BF14C6FF1F2CC6FF1FD849004095C2FF1FD749004018C6FF1F26C6FF1F24C6FF1F30C6FF1F32C6FF1F31C6FF1FD6490040BC
:4032C000084A137843F0010313701032137843F00103137002F64D32137843F001031370704700BFA3430040014B1880704700BF044F0040014B1880704700BF064F00407C
:40330000014B1870704700BF034F004008B5194A137843F0020313700232137803F08F0343F010031370144B1A7802F0CF021A701A7842F030021A701A7802F0F0021A7080
:403340001A7842F00F021A7043F2AF60FFF7CCFF0020FFF7CFFF0020FFF7D2FF074A137843F00103137002F65E32137843F00103137008BD004F00400B4F0040A3430040A7
:4033800008B5054B1B7823B9FFF7C0FF0122024B1A70FFF795FF08BD96C2FF1F084A137843F0020313701032137843F00203137002F65932137843F001031370704700BFBF
:4033C000A3430040014B1880704700BF104F0040014B1880704700BF124F0040014B1870704700BF0F4F004008B5194A137843F0020313700232137803F08F0343F01003DB
:403400001370144B1A7802F0CF021A701A7842F030021A701A7802F0F0021A701A7842F00F021A7043F2AF60FFF7CCFF0020FFF7CFFF0020FFF7D2FF074A137843F0020308
:40344000137002F66A32137843F00103137008BD0C4F0040174F0040A343004008B5054B1B7823B9FFF7C0FF0122024B1A70FFF795FF08BD97C2FF1F084A137843F00403BC
:4034800013701032137843F00403137002F66532137843F001031370704700BFA3430040014B1880704700BF1C4F0040014B1880704700BF1E4F0040014B1870704700BF39
:4034C0001B4F004008B5194A137843F0020313700232137803F08F0343F010031370144B1A7802F0CF021A701A7842F030021A701A7802F0F0021A701A7842F00F021A7092
:4035000043F2AF60FFF7CCFF0020FFF7CFFF0020FFF7D2FF074A137843F00403137002F67632137843F00103137008BD184F0040234F0040A343004008B5054B1B7823B97D
:40354000FFF7C0FF0122024B1A70FFF795FF08BD98C2FF1F044A137803F0BF03800100F0400018431070704750510040044A137803F0DF03400100F0200018431070704792
:4035800050510040044A137803F0EF03000100F010001843107070475051004008B50A280FD00C2802D0082806D102E04FF4805209E04FF4807206E0002000F0D5F9002222
:4035C00001E04FF480620021084B198042F2107303FB02F313F5806301D503F2FF73DB12034A13600022034B1A8008BD34C6FF1F3CC6FF1F38C6FF1F10B500F021FA0446FC
:40360000184A137843F0010313701032137843F00103137002F5AA520832137843F0030313701822104B1A70013B1A7842F040021A701A7802F0FC021A70C822053B1A703D
:403640000222A3F597530C3B1A70084A137843F0080313700A2000F09FF9204600F0F4F910BD00BFAB43004006590040275B004010B504460A280DD00C2802D0082804D1FC
:4036800001E0C22207E0422205E0002000F06CF9C22200E08222034B1A702046FFF77EFF10BD00BF0259004008B5064A137843F0060313700C20FFF7DBFF0022024B1A8004
:4036C00008BD00BF0159004036C6FF1F08B5054B1B7823B9FFF7E8FF0122024B1A70FFF78BFF08BD99C2FF1F024A137843F001031370704700590040F0B583B016461F4607
:403700000B4C012525700023019300932B460A460146284600F0CAF83A463146207800F09FF80221207800F089F8207803B0F0BDCFC0FF1FF0B583B016461F460B4D002409
:403740002C700194009423460A460146204600F0ADF83A463146287800F082F80221287800F06CF8287803B0F0BD00BFD0C0FF1F014B1B681864704708ED00E04001C0B27A
:40378000014B1870704700BF00E400E0054A137843F0040313701032137843F004031370704700BFA24300400B4A7F2313708021517007E0DA0002F1804202F5F042013B88
:4037C000DBB21370002BF5D1DB0003F1804303F5F04300221A707047D4C0FF1F172815D831B103010A495A5C42F020025A5405E0030107495A5C02F0DF025A540001044A1A
:40380000835C43F00103835400207047012070471070004017280CD80001074BC1180A7942F004020A71C25C42F00102C254002070470120704700BF1070004017280BD8EE
:403840000001064A835C03F0F103490001F00E011943815400207047012070471070004041F6FF73994201D14FF4005141F6FF739A4201D14FF40052172808D8C00000F1A2
:40388000804000F5EC408180C280002070470120704700BF172805D8034B03EB0010417200207047012070471070004017281BD810B4C00000F1804404F5EC44D201D2B201
:4038C00001F07F01114321709DF804201201D2B203F00F03134363709DF8083003F00F03A3700020E07001E00120704710BC704710B500F0A5F80A4B5B78182B0BD9084A70
:403900001478013B5370E30003F1804303F5F0431B78137000E0FF2400F096F8204610BDD4C0FF1F10F0800F0CD111F4704F0BD1C00000F1804000F5F04001808270C37073
:4039400000207047012070470120704710F0800F08D1C00000F1804000F5F0408180C280002070470120704701BE704710B5044605E0084B186800F05BF8A4F50044B4F5CA
:40398000004FF6D8034B586800FB04F000F050F810BD00BFDCC0FF1F08B5034B1B7A00FB03F000F045F808BDDCC0FF1F70B504460E46074B1D680F2802D90020FFF7D4FFA0
:4039C00004F00F0455F8240045F8246070BD00BF08ED00E070B504460E46074B1D681F2802D90020FFF7C0FF04F01F04103455F8240045F8246070BD08ED00E038B5044676
:403A00000D46072902D90020FFF7AEFF1F2C02D90020FFF7A9FF04F01F0000F1604000F564406D01EDB2057038BD00BF000000000230800803D000BF01380046FCD17047BF
:403A4000EFF3108072B6704780F31088704700BF00F002B8000000002DE9F84F5442144323F00049DFF880E149EAD474744506460D463ED84442044321F0004B4BEAD4745D
:403A800074458A4635D803F1404404F58014144344D09C1704F0020444EAD17450EA0B012FD052EA090133D0F14546D0F3452FD0C9EB0B094FEA2959B9F13C0F34DC002B1C
:403AC00057DB3046294600F017FD00F02FFA00F08FF8012C4AD0022C3BD084B132A3D3E9002300F02BFA32A3D3E9002300F026FA05E01046194632462B4600F021FABDE8A6
:403B0000F88F022C14D0032C0CD12D482D49F6E7BAF1000F2A480EDB2B49F0E7BDE8F84F00F066B82946EAE723A1D1E90001D0E723482649E3E72649E1E7CB451FD0022C40
:403B4000F6D0032CE1D0012C4FF0000020D00146D5E715A3D3E9002300F0F0F902460B4613A1D1E9000100F0E9F9C8E701F10041C5E719F13C0FA4DA00200021A9E7022C96
:403B80000ED0032C09D0012C0D4804D01149B6E74FF00041B3E71049B1E710481049AEE70E481049ABE700BF075C143326A6A13C182D4454FB210940182D4454FB21F93FBB
:403BC000182D4454FB2109C0FB21F93FFB210940FB21F9BFFB21E93FFB21E9BFD221337F7CD902C07CD902400000F07F000000002DE9F84FC04B21F000469E420D468A46EA
:403C000004460FDDBD4B9E4200F3B28000F0AD80BB4BBC49BC4CBAF1000FC8BF19462046BDE8F88FB94B9E4200F3BC80A3F1DE739E4240F3A7804FF0FF3B22462B462046F5
:403C4000294600F02FFB02460B468046894600F029FB91A3D3E9002306460F4600F022FB8FA3D3E9002300F06BF932463B4600F019FB8DA3D3E9002300F062F932463B4603
:403C800000F010FB8AA3D3E9002300F059F932463B4600F007FB88A3D3E9002300F050F932463B4600F0FEFA85A3D3E9002300F047F942464B4600F0F5FA83A3D3E9002378
:403CC000804689463046394600F0ECFA80A3D3E9002300F033F932463B4600F0E3FA7EA3D3E9002300F02AF932463B4600F0DAFA7BA3D3E9002300F021F932463B4600F0C0
:403D0000D1FA79A3D3E9002300F018F932463B4600F0C8FABBF1FF3F02460B4669D04046494600F00DF922462B4600F0BBFA784E784B4FEACB0B5E449B44DBE9002300F0DC
:403D4000FDF822462B4600F0F9F802460B46D6E9000100F0F3F8BAF1000F0446BFF65FAF01F100412046BDE8F88F00283FF450AF224620462B46294600F0E2F80446204652
:403D8000BDE8F88F5AA3D3E9002300F0D9F80022614B00F017FD00283FF44DAF29462046BDE8F88F00F0C2F85C4B04469E420D462FDCA3F550239E4254DC02460B4600F093
:403DC000BFF80022544B00F0B9F8002206460F464FF080432046294600F0B2F802460B463046394600F088FB4FF0000B04460D4623E74046494600F0A3F822462B4600F01B
:403E000051FA02460B462046294600F097F8044605E7434B9E421ADC0022424B00F08EF8002206460F463F4B2046294600F03AFA0022394B00F084F802460B4630463946A5
:403E400000F05AFB4FF0020B04460D46F5E602460B460020344900F04FFB4FF0030B04460D46EAE600222C4B00F068F8002206460F46294B2046294600F062F802460B4637
:403E80003046394600F038FB4FF0010B04460D46D3E600BFAFF3008011DA22E33AAD903FEB0D76244B7BA93F513DD0A0660DB13F6E204CC5CD45B73FFF8300922449C23FF8
:403EC0000D5555555555D53F2F6C6A2C44B4A2BF9AFDDE522DDEAD3F6D9A74AFF2B0B33F711623FEC671BC3FC4EB98999999C93F9C7500883CE4377EFFFF0F440000F07FD0
:403F0000FB21F93FFB21F9BF182D4454FFFFDB3FC8500000A85000000000F03FFFFFF23FFF7F03400000F83F0000F0BF21F00041704700BF81F0004102E000BF83F000437E
:403F400030B54FEA41044FEA430594EA050F08BF90EA020F1FBF54EA000C55EA020C7FEA645C7FEA655C00F0E2804FEA5454D4EB5555B8BF6D420CDD2C4480EA020281EABD
:403F8000030382EA000083EA010180EA020281EA0303362D88BF30BD11F0004F4FEA01314FF4801C4CEA113102D0404261EB410113F0004F4FEA03334CEA133302D0524213
:403FC00063EB430394EA050F00F0A780A4F10104D5F1200E0DDB02FA0EFC22FA05F2801841F1000103FA0EF2801843FA05F359410EE0A5F120050EF1200E012A03FA0EFCBE
:4040000028BF4CF0020C43FA05F3C01851EBE37101F0004507D54FF0000EDCF1000C7EEB00006EEB0101B1F5801F1BD3B1F5001F0CD349085FEA30004FEA3C0C04F101049A
:404040004FEA445212F5800F80F09A80BCF1004F08BF5FEA500C50F1000041EB045141EA050130BD5FEA4C0C404141EB010111F4801FA4F10104E9D191F0000F04BF014627
:404080000020B1FA81F308BF2033A3F10B03B3F120020CDA0C3208DD02F1140CC2F10C0201FA0CF021FA02F10CE002F11402D8BFC2F1200C01FA02F120FA0CFCDCBF41EA1C
:4040C0000C019040E41AA2BF01EB0451294330BD6FEA04041F3C1CDA0C340EDC04F11404C4F1200220FA04F001FA02F340EA030021FA04F345EA030130BDC4F10C04C4F153
:40410000200220FA02F001FA04F340EA0300294630BD21FA04F0294630BD94F0000F83F4801306BF81F480110134013D4EE77FEA645C18BF7FEA655C29D094EA050F08BFDF
:4041400090EA020F05D054EA000C04BF1946104630BD91EA030F1EBF0021002030BD5FEA545C05D14000494128BF41F0004130BD14F580043CBF01F5801130BD01F0004587
:4041800045F0FE4141F470014FF0000030BD7FEA645C1ABF194610467FEA655C1CBF0B46024650EA013406BF52EA033591EA030F41F4002130BD00BF90F0000F04BF0021BA
:4041C000704730B54FF4806404F132044FF000054FF0000150E700BF90F0000F04BF0021704730B54FF4806404F1320410F0004548BF40424FF000013EE700BF42004FEA89
:40420000E2014FEA31014FEA02701FBF12F07F4393F07F4F81F06051704792F0000F14BF93F07F4F704730B54FF4607401F0004521F0004120E700BF50EA010208BF704748
:4042400030B54FF000050AE050EA010208BF704730B511F0004502D5404261EB41014FF4806404F132045FEA915C3FF4DCAE4FF003025FEADC0C18BF03325FEADC0C18BF90
:40428000033202EBDC02C2F1200300FA03FC20FA02F001FA03FE40EA0E0021FA02F11444C1E600BF70B54FF0FF0C4CF4E06C1CEA11541DBF1CEA135594EA0C0F95EA0C0F40
:4042C00000F0DEF82C4481EA030621EA4C5123EA4C5350EA013518BF52EA033541F4801143F4801338D0A0FB02CE4FF00005E1FB02E506F00042E0FB03E54FF00006E1FBDF
:4043000003569CF0000F18BF4EF0010EA4F1FF04B6F5007F64F5407404D25FEA4E0E6D4146EB060642EAC62141EA55514FEAC52040EA5E504FEACE2EB4F1FD0C88BFBCF57B
:40434000E06F1ED8BEF1004F08BF5FEA500E50F1000041EB045170BD06F0004646EA010140EA020081EA0301B4EB5C04C2BFD4EB0C0541EA045170BD41F480114FF0000E84
:40438000013C00F3AB8014F1360FDEBF002001F0004170BDC4F10004203C35DA0C341BDC04F11404C4F1200500FA05F320FA04F001FA05F240EA020001F0004221F0004157
:4043C00010EBD37021FA04F642EB06015EEA430E08BF20EAD37070BDC4F10C04C4F1200500FA04F320FA05F001FA04F240EA020001F0004110EBD37041F100015EEA430E64
:4044000008BF20EAD37070BDC4F1200500FA05F24EEA020E20FA04F301FA05F243EA020321FA04F001F0004121FA04F220EA020000EBD3705EEA430E08BF20EAD37070BD8D
:4044400094F0000F0FD101F00046400041EB010111F4801F08BF013CF7D041EA060195F0000F18BF704703F00046520043EB030313F4801F08BF013DF7D043EA0603704743
:4044800094EA0C0F0CEA135518BF95EA0C0F0CD050EA410618BF52EA4306D1D181EA030101F000414FF0000070BD50EA410606BF1046194652EA430619D094EA0C0F02D157
:4044C00050EA013613D195EA0C0F05D152EA03361CBF104619460AD181EA030101F0004141F0FE4141F470014FF0000070BD41F0FE4141F4780170BD70B54FF0FF0C4CF4FA
:40450000E06C1CEA11541DBF1CEA135594EA0C0F95EA0C0F00F0A7F8A4EB050481EA030E52EA03354FEA013100F088804FEA03334FF0805545EA131343EA12634FEA0222F6
:4045400045EA111545EA10654FEA00260EF000419D4208BF964244F1FD0404F5407402D25B084FEA3202B61A65EB03055B084FEA32024FF480104FF4002CB6EB020E75EB54
:40458000030E22BFB61A754640EA0C005B084FEA3202B6EB020E75EB030E22BFB61A754640EA5C005B084FEA3202B6EB020E75EB030E22BFB61A754640EA9C005B084FEAA4
:4045C0003202B6EB020E75EB030E22BFB61A754640EADC0055EA060E18D04FEA051545EA16754FEA06164FEAC30343EA52734FEAC2025FEA1C1CC0D111F4801F0BD141EAAB
:4046000000014FF000004FF0004CB6E711F4801F04BF01430020B4F1FD0C88BFBCF5E06F3FF6AFAEB5EB030C04BFB6EB020C5FEA500C50F1000041EB045170BD0EF0004EBF
:404640004EEA113114EB5C04C2BFD4EB0C0541EA045170BD41F480114FF0000E013C90E645EA060E8DE60CEA135594EA0C0F08BF95EA0C0F3FF43BAF94EA0C0F0AD150EAC4
:4046800001347FF434AF95EA0C0F7FF425AF104619462CE795EA0C0F06D152EA03353FF4FDAE1046194622E750EA410618BF52EA43067FF4C5AE50EA41047FF40DAF52EA98
:4046C00043057FF4EBAE12E74FF0FF3C06E000BF4FF0010C02E000BF4FF0010C4DF804CD4FEA410C7FEA6C5C4FEA430C18BF7FEA6C5C1BD001B050EA410C0CBF52EA430C3F
:4047000091EA030F02BF90EA020F0020704710F1000F91EA030F58BF994208BF90422CBFD8176FEAE37040F0010070474FEA410C7FEA6C5C02D150EA013C07D14FEA430CD2
:404740007FEA6C5CD6D152EA033CD3D05DF8040B704700BF8446104662468C461946634600E000BF01B5FFF7B7FF002848BF10F1000F01BD4DF808EDFFF7F4FF0CBF0120BA
:4047800000205DF808FB00BF4DF808EDFFF7EAFF34BF012000205DF808FB00BF4DF808EDFFF7E0FF94BF012000205DF808FB00BF4DF808EDFFF7CEFF94BF012000205DF8BE
:4047C00008FB00BF4DF808EDFFF7C4FF34BF012000205DF808FB00BF4FEA4102B2F1E04324BFB3F5001CDCF1FE5C0DD901F0004C4FEAC0024CEA5070B2F1004F40EB8300F5
:4048000008BF20F00100704711F0804F21D113F13872BCBF01F00040704741F480114FEA5252C2F11802C2F1200C10FA0CF320FA02F018BF40F001004FEAC1234FEAD3235E
:4048400003FA0CFC40EA0C0023FA02F34FEA4303CCE77FEA625307D150EA01331EBF4FF0FE4040F44000704701F0004040F0FE4040F40000704700BF80F0004002E000BF36
:4048800081F0004142001FBF5FEA410392EA030F7FEA226C7FEA236C6AD04FEA1262D2EB1363C1BFD218414048404140B8BF5B42192B88BF704710F0004F40F4000020F025
:4048C0007F4018BF404211F0004F41F4000121F07F4118BF494292EA030F3FD0A2F1010241FA03FC10EB0C00C3F1200301FA03F100F0004302D5494260EB4000B0F5000FD9
:4049000013D3B0F1807F06D340084FEA310102F10102FE2A51D2B1F1004F40EBC25008BF20F0010040EA03007047490040EB000010F4000FA2F10102EDD1B0FA80FCACF19C
:40494000080CB2EB0C0200FA0CF0AABF00EBC25052421843BCBFD0401843704792F0000F81F4000106BF80F400000132013BB5E74FEA41037FEA226C18BF7FEA236C21D011
:4049800092EA030F04D092F0000F08BF0846704790EA010F1CBF0020704712F07F4F04D1400028BF40F00040704712F100723CBF00F50000704700F0004343F0FE4040F415
:4049C000000070477FEA226216BF08467FEA23630146420206BF5FEA412390EA010F40F4800070474FF0000304E000BF10F0004348BF40425FEA000C08BF704743F096437F
:404A000001464FF000001CE050EA010208BF70474FF000030AE000BF50EA010208BF704711F0004302D5404261EB41015FEA010C02BF84460146002043F0B64308BFA3F199
:404A40008053A3F50003BCFA8CF2083AA3EBC25310DB01FA02FC634400FA02FCC2F12002BCF1004F20FA02F243EB020008BF20F00100704702F1200201FA02FCC2F12002AB
:404A800050EA4C0021FA02F243EB020008BF20EADC7070474FF0FF0C1CEAD0521EBF1CEAD15392EA0C0F93EA0C0F6FD01A4480EA010C400218BF5FEA41211ED04FF000634D
:404AC00043EA501043EA5111A0FB01310CF00040B1F5000F3EBF490041EAD3715B0040EA010062F17F02FD2A1DD8B3F1004F40EBC25008BF20F00100704790F0000F0CF067
:404B0000004C08BF49024CEA502040EA51207F3AC2BFD2F1FF0340EAC250704740F400004FF00003013A5DDC12F1190FDCBF00F000407047C2F10002410021FA02F1C2F196
:404B4000200200FA02FC5FEA310040F1000053EA4C0308BF20EADC70704792F0000F00F0004C02BF400010F4000F013AF9D040EA0C0093F0000F01F0004C02BF490011F417
:404B8000000F013BF9D041EA0C018FE70CEAD15392EA0C0F18BF93EA0C0F0AD030F0004C18BF31F0004CD8D180EA010000F00040704790F0000F17BF90F0004F084691F08B
:404BC000000F91F0004F14D092EA0C0F01D142020FD193EA0C0F03D14B0218BF084608D180EA010000F0004040F0FE4040F40000704740F0FE4040F4400070474FF0FF0CD7
:404C00001CEAD0521EBF1CEAD15392EA0C0F93EA0C0F69D0A2EB030280EA010C49024FEA402037D04FF0805343EA111143EA10130CF000408B4238BF5B0042F17D024FF4E8
:404C4000000C8B4224BF5B1A40EA0C00B3EB510F24BFA3EB510340EA5C00B3EB910F24BFA3EB910340EA9C00B3EBD10F24BFA3EBD10340EADC001B0118BF5FEA1C1CE0D18D
:404C8000FD2A3FF650AF8B4240EBC25008BF20F0010070470CF0004C4CEA50207F32C2BFD2F1FF0340EAC250704740F400004FF00003013A37E792F0000F00F0004C02BFCB
:404CC000400010F4000F013AF9D040EA0C0093F0000F01F0004C02BF490011F4000F013BF9D041EA0C0195E70CEAD15392EA0C0F08D142027FF47DAF93EA0C0F7FF470AFEA
:404D0000084676E793EA0C0F04D14B023FF44CAF08466EE730F0004C18BF31F0004CCAD130F000427FF45CAF31F000437FF43CAF5FE700BF4FF0FF3C06E000BF4FF0010CE0
:404D400002E000BF4FF0010C4DF804CD4FEA40024FEA41037FEA226C18BF7FEA236C11D001B052EA530C18BF90EA010F58BFB2EB030088BFC81738BF6FEAE17018BF40F05F
:404D8000010070477FEA226C02D15FEA402C05D17FEA236CE4D15FEA412CE1D05DF8040B704700BF844608466146FFE70FB5FFF7C9FF002848BF10F1000F0FBD4DF808ED8C
:404DC000FFF7F4FF0CBF012000205DF808FB00BF4DF808EDFFF7EAFF34BF012000205DF808FB00BF4DF808EDFFF7E0FF94BF012000205DF808FB00BF4DF808EDFFF7D2FF88
:404E000094BF012000205DF808FB00BF4DF808EDFFF7C8FF34BF012000205DF808FB00BF4FEA4002B2F1FE4F0FD34FF09E03B3EB12620DD94FEA002343F0004310F0004F3F
:404E400023FA02F018BF404270474FF00000704712F1610F01D1420205D110F0004008BF6FF0004070474FF000007047014B1868704700BF4CC1FF1F0E4B70B51E460E4CC2
:404E80000025E41AA410A54204D056F8253098470135F8E700F02AF9084B094C1E46E41AA4100025A54204D056F8253098470135F8E770BDF8500000F8500000F85000007C
:404EC0000051000010B5431E0A44914204D011F8014B03F8014FF8E710BD03460244934202D003F8011BFAE7704700000000000073746172742E2E2E0A000000686F6C64AC
:404F0000206D6F64650A00006D616E75616C206D6F64650A000000006175746F206D6F64650A00005B4932435D696E7075742073656C6563743A25640A000000696E7075FE
:404F4000743D534255530A534255533A253034782C20253034780A006368313A2534642C206368323A2534642C206368363A2534640A0000696E7075743D537469636B0A74
:404F8000000000007370656564313A2564207370656564323A25640A00000000737469636B2074696D656F7574210A00696E7075743D4932430A00004348313A3078253024
:404FC000327825303278204348323A307825303278253032780A00004553432072706D3A253464202534640A000000004241544C6576656C3A25640A000000004553432082
:4050000054696D656F75743A25642025640A00004932432054696D656F75743A25640A00693263496E743A25640A0000C84900401900004F00402400405100401000F0514C
:4050400000401000000001400008800801408005800E0140800100140140800000150140000700400140000A004C01400002005001402000605200408010004806000051DB
:40508000014088100048080000080140901000488000000E0140101100488000801401409011004880000000E2652F227F2B7A3C075C143326A6813CBDCBF07A8807703C48
:4050C000075C143326A6913C4FBB610567ACDD3F182D4454FB21E93F9BF681D20B73EF3F182D4454FB21F93F43000000F8B500BFF8BC08BC9E4670474D000000151E0000AA
:40510000F8B500BFF8BC08BC9E4670472900000020510000C8C0FF1F88000000F004000000000000FFFFFFFFFF0000007F800000030000000000E02EC05D000018000000F4
:4051400000366E010000000000000000000000000000000000000000000000000000000000000000E850000000000000000000000000000000000000000000000000000052
:40518000000000000000000000000000000000000000000000000000000000000000000000000000ECC0FF1F00000000000000000000000000000000000000000000000025
:4051C00000000000000000000000000000000000000000000000000000000000000000000000000000000000000000000000000000000000000000000000000000000000AF
:40520000000000000000000000000000000000000000000000000000000000000000000000000000000000000000000000000000000000000000000000000000000000006E
:40524000000000000000000000000000000000000000000000000000000000000000000000000000000000000000000000000000000000000000000000000000000000002E
:4052800000000000000000000000000000000000000000000000000000000000000000000000000000000000000000000000000000000000000000000000000000000000EE
:020000040001F9
:0200000480007A
:40000000034F004009520040015B00400A640040056500405F0001403D01014062020140580301405C0401405D050140530601405B0701400B0801405F090140390A01403D
:40004000590B0140520C0140560D0140140E0140360F01400A1401405015014053160140521701405318014058190140661A01404F1B01400D4001401641014019420140CA
:40008000164301400D4401400D450140084601400A470140074801400C4901400E4C0140194D01400A500140015101400A4B161B224B01080404080109012806290330A881
:4000C00031C034842784840F850F860D8738880F8A718B058C728E718F388571860F883C89388B0F0220030804DC0531062207C609AC0B43100C1271140916D01A031C107D
:400100001D311E401F4E201423532530274028102AAC2B8C30E033F0341F350F3A023B284031410445EC460B480749FF4AFF4BFF4EF04F44500C5608580459045A045B04AF
:400140005C555D955F0166C06A406B0280408280868088108A0C8C098E109010940C961198149E03A01CA202A4A0AAA0ACA0B280B460B61FB820BE04C026C103C50EC6B000
:40018000C70CC819C9FFCAFFCBFFCEF0CF44D00CD804D904DA04DC15DD05DF01E6C0EA40EB02000403800480050606040A880B2A0C200D0A0E0110801208152817411840AC
:4001C0001A881D101E211F10200421142208281029142B802C402D10324033403402370839283B023C803E043F10404041044380450C4604471049054F285080542057084F
:40020000598062408840C0FCC2FFC4FACAA7CCC8CE77D06BD220D608D808E208031C0561070E0B23115C130319611B1623082B802F8031603380351A370F39023BA03F0573
:400240004001474049FF4A074BFF4C404D204EF04F05500852035302580459045A045B045C515D155F01604061A862406320851889108A028D0191049208940896109C1016
:400280009D18A204A308A402A703AC01B001B102B206B304B501B618B718B820B980BE51BF44C065C104C202C403C6E0C7C0C828C9FFCAFFCBFFCC62CDA0CEF0CF41D00CC0
:4002C000D401D804D90FDA04DB0FDC19DD15DF01E640E702E910EA30EB10ED10EE10EF12001007280A610C400E040F1010021240130414021513181A19041B01204A2204E2
:40030000230424042608274529062B802EA2310132403711384039283C043D083F2141014218460C474049204A015020520155025602573058806A606C086E807A4080011F
:400340008120820484C48540861087609129928193089480951096049712981099019A409C429D029F19A210A30CA440A506A790A980B101C062C2EDC4CDCAB3CCA9CEEE05
:40038000D017D20CD608DE01E040E201E420E601001002200604070408400A800C800E401208130114081A011B021C0122022420261028022C042F083104330834FF350133
:4003C00037023E104005474049FF4A074BFF4C404D204EF04F05500854015604580459045A045B045C105D555F01604061A86240632083088B80910A9354955397049953EC
:400400009B0CA520A745A903AB44B130B30FB580B740B902BB08BF40C043C9FFCAFFCBFFCF01D018D401D604D804D904DA04DB04DC51DD54DF01E040E240E440E540E68013
:40044000E880EA80EC80EE800018018002900708080209060A060C800D020E040F1010E7158219102018214222802318248025012650271029802D202E032F2830223715DF
:4004800039043D0E3E1046A048015381581059415A085C085D205E8160406780802084048601874088028A148C088D048E028F0491019218930894809510960497929810D7
:4004C00099419A059B059C429EA09F18A009A208A32CA440A601A780AA10AC20AF01B240B446B701C04FC2FFC49FCA68CCE5CEA2D0C0D208D6FFD881E209E602E803EA108C
:40050000EE01001008140C090E1010401203140C161118801C1C1E022410260C2C20301F3280342036403E54404345EC4620480B49FF4AFF4BFF4D834E034F01501854014C
:400540005604580459045A045B045C155D445F016040624064406540668068806A806C806E8087088F01910897029B10A102A501A904AF04B11FB902BF01C005C540C9FF9A
:40058000CA07CBFFCC40CD20CEF0CF05D008D418D604D804D904DA04DB04DC11DD53DF01E040E1A8E240E3200090021004600501084009020D080E810F0810201280160242
:4005C00017081D801E881F042080210128412A182C422E043006311232803680381039463B403C98420C46A0488049804A104D024F0456205B015D025E405F046006638036
:4006000064086788861087408A108C808D8090109105934095029604984599109A159C089EA0A004A102A288A304A440A740AB40AD80AF04B080B110B280B440B601C0D7EB
:40064000C2F9C4ACCADFCC1FCE7FD0C0D208D6D1D88DE080E210E408E602EA48EC08840186029402AE01B603BE40D804D904DB04DC11DF0100080120020204010588070474
:40068000088809020A080C840D200F80114412201301162017611A011C131D201F102448271528A12D102F80310232243308350237253B013D283E2045A14C014E084F08AF
:4006C0005608582059205C405D015E28674068046940781079108080820885108740884089028A018D849006920293019401950196409724982C9B089C80A1C1A20DA34098
:40070000A440A502A718A811AC08AF02B020B201B404B640C0F7C2FFC4FDCAABCCE7CE61D0B0D230D6F0D880E080E460E881EA10EE810202060208010C0114041804200400
:4007400024013004320134023E1056025711580459045B045C155D505F0183EF8596874988018B108D068E048F099104930295FF99119BAE9D039F04A002A401A5FFAB103B
:40078000B001B107B370B402B508B604B780B802BB0ABE11D602D730D804D904DB0FDC31DD10DF0101580240041005800A150B01110413021501170419201A801B041C02D5
:4007C0001E091F0124422544270828A02B082F1431023410354136083A103B053C603D0A5A205F8067026A146B026C806D206F1271287202758076087C02811483408580DC
:40080000860888C08A128F949004915492229308940896409724981699499A409C609D209E02A010A181A209A441A52CA602A714AA04AD10B002B321B640C0CFC206C43C97
:40084000CA67CCF1CEF7D614D810DE80E080E430E6C0E820EE41013F0210042605400659087F093F0D080E790F301104143715401648185919211A261B0A1C511E20240286
:400880002540280629402C042D092F1230303104320E333834073503364037403A2A3F4056025713580459045B045C335D305F018110860287E689398BC48D998F6290017D
:4008C00091FF920A940B9518980199089A0A9C029DE79E049F18A301A581AC0BB002B158B208B31FB401B598B604B738B808BB2ABE10D804D904DC55DF010210044005011B
:40090000062808800A940C040D800E08100216011724191A1B801D011E0A1F0821402220235024612501261028402A042C042D802E082F18300231283340361C3701380862
:400940003A023B503D283F82450446205C016D206F217601772478107B088140822083408C108F409004915492B69308942895209754988099C09A509C209D329E04A012C1
:40098000A180A441A632A794B002B10CB304B480B580C0F4C2EFC4E1CA73CCEFCEFFD680E040E420EE80820884118A0296019A049E08A204B008B210B404B603BE51D418C6
:4009C000D604D804D904DB04DC13DD50DF01021003800420050908800A940D100E211002132917021A951C241DC01F01210C2211230228082A142B043108322034203602C4
:400A0000378038083B503C823F244088421148024901524059105D02652067826954732987408B80C07CC2EFC41FCA02CCB6CEFED00FD208D684D8B0E42003010E011301C1
:400A4000310134013F01580459045C015F01001401400280044005100640071008400B200E110F0410021210170518041A041C401D181F4021012552262A2C943102361883
:400A800037023A013D803E2A44144519460247024D044E0256015F2067C06F15748076287802790282028380860488409010914092119324944095049604974098409A5069
:400AC0009B209C129D10A002A101A290A540A628A780C0FFC2E5C435CAE0CCE1CEF1D0F0D210D620E002E210EA05EC20EE02010D0208062308610A160D010E1C0F0C128015
:400B000014611501160E170C190D1C5C1E03210823022680270830603104321A330134803502360F3708380239023A883E113F044032410645EB460C47E0482749FF4AFF22
:400B40004BFF4EF04F44500C54015604580459045A045B045C555D555F0166C06A406B028E01AA01B201BE04C004C540C9FFCA07CBFFCC40CD20CEF0CF05D008D280D8046D
:400B8000D904DA04DB04DC11DD45DF01E040E1A8E240E3200010021104480511070808440B200C200D0A0E050F2010221284150419081C041D081E5125022610272128408B
:400BC0002A102C102F8030263280362838183A083B043D8342404608470849014C104D024F20500456425D025E085F50678072808640871089088B40901091419320946447
:400C0000960598409A159C029D019E829F09A002A284A420A508A810AA48B103B310B580C0F7C2B5C42FCAC5CC6FCE94D061D220D6F0D880E680EC010101041407100A20C3
:400C40000B830F10120314101521160C17C619221A201B451C091E101F02201C21832202236425082760280C2A112C10301F3103322033E0350C371039203B0A3E043F4057
:400C80004063410245EB460C480749FF4AFF4BFF4EF04F44500C541C5604580459045A045B045C325D335F0166C06A406B02840189018A01900191019701980199019D0154
:400CC000A201A401A501AC01AD01B601B701D418D604D804D904DB04DC11DD50DF0100080210030804100620082009020E510F0810A111041580171118021E401F0422801C
:400D00002590276028212C102D0230A0310232403308360837603A103C023DA03E084412458047204C044D094E0857805A025E025F08600463426402650167088B018E803D
:400D4000901C928295059640983199029A089B089D089F60A001A142A201A30CA510A780A880AA40AB10AE10AF80B001B202B30CB710C066C2FAC4DDCACACC7FCEF4D0604B
:400D8000D220D6C1D8BDE080E820EC20EE40040305030A03100311031703180219031A011D021F01200222012403250127022C012D022E022F0132023302340135014002F9
:400DC000460449FF4A074BFF4C404D204EF04F055008580459045A045C115D025F01604061A86240632084D38604871089118B26912C931394D3960C9713980399119A0416
:400E00009B0E9E089F08A08AA214A32CA420A540A645B110B20FB32AB4C0B540B630B70FB8A0BA08BB88BE10BF11C036C102C50CC6B0C70EC819C9FFCAFFCBFFCEF0CF4428
:400E4000D00CD401D604D804D904DA04DB04DC22DD22DF01E6C0EA40EB020008010803080710082009020E110F04106115081701182019101C041D081E11202021202440DF
:400E8000271928212E093060310232403308368837113B083E103F044004450847104E084F045144528856285C405D205F0A64806520670481308420881089088A088B06B3
:400EC0008C9092809580961198219E209F11A102A308A424A901AF40B401C026C2EAC43DCACACCFFCE62D064D220D6F0D880E084E210E404EA01EC20108016803010320149
:400F0000348438083B803E808740C430CCF0CE70E210020432103308360837103A405910811084148A048F04940896029C94A880C040CCF0CE10D480E210E660E8203080FA
:400F40003E1053045710590461049308962699049C809E409F10A608A70CA804AA04AF04B504CC10CE20D460D640D840E880EE901A041B041F046504848087088B048F1043
:400F8000961699049C809E409F10A480A71CAA08B610C670D880E210E640EA2000100C400D20548058085D0262106604C002C201D402D603D8038A108C089C089D029E1406
:400FC000A480B040B410B520E002E404EA09EE02190425019D069E04A480A904C608C8014401888089029D02A480A901AA04D004E001E40120808A4096129C809E409F105F
:40100000C840128082808C809C80AA10AB10AE01B040C410E420EAA0EE4010401320148053805C4078107C208F809C01C40ED404D604DE03E002101014205002524057809C
:401040005E4078407C80800283808A408E4098C09C30AB20B001B440C40CD407D604DC01DE04E403E802EC04003A0101082209010A3A0C2A0E2A103E1A321C2E100A000048
:4010800082CA0000C1000000FFFF3FC00000000001000E0050000008430030984000030000BA8045002380D4802300CC8000000071020804240041003000474502000100E9
:4010C00000048060001F7FC0080820A00000000564020500010E000C11FFFFFF62A0F0410C00000001000400040404043333000100000000000040020010301000101012C6
:4011000000000000000000000000000000000000000001000000E602000100060001000699006200E70718003907C40081000000100000000802000018000000FF00000001
:40114000580298001F01380400802A08000000103205010004C00E0006FFFFFF62A0F0410C0000000000021104040404555500010000000000004002001030100010101281
:4011800000000000000000000000000000000000038184004008000093180C000099086200FF0000933904C4200085010A00940040100000400000E600E7001800000000D9
:4011C0003038401F0F988058020020A80000400023040500010E00C021FFFFFF62A0F0410C00000000000211040404045555000100000000000040020010301000101012B5
:40120000000000000000000000000000000000000400000C0800080000000000CB00000BCA00CA00000000000000000000030300000606000000000000C0C0000000000092
:4012400000707000000F0F00040080FC7800F8000000000000010000000000000000000000000000000000000000000000000000000000000000000000000000000000007F
:40128000000000000000000000000000000000000000000000000000000000000000000000000000000000000000000000000000000000000000000000000000000000002E
:4012C00000000000000000000000000000000000000000000000000000000000000000000000000000000000000000000000000000000000000000000000000000000000EE
:4013000000000000000000000000000000000000000000000000000000000000000000000000000000000000000000000000000000000000000000000000000000000000AD
:40134000000000000000000000000000000000000000000000000000000000000000000000000000000000000000000000000000000000000000000000000000000000006D
:0200000490006A
:0400000000004007B5
:0200000490105A
:04000000BC90ACAF55
:0200000490303A
:0200000050E6C8
:0200000490402A
:4000000000000000000000000000000000000000000000000000000000000000000000000000000000000000000000000000000000000000000000000000000000000000C0
:400040000000000000000000000000000000000000000000000000000000000000000000000000000000000000000000000000000000000000000000000000000000000080
:0200000490501A
:0C00000000012E16C06900012E3C114FBB
:00000001FF