:4000000000400020F5390000ED390000ED39000080B51448144B21E05C689968DD688C420CD0002205E0A6180832D6E9008941E902898C460831AA42F5D101E004EB050CA7
:400040001C696146002204E008320026002741E902670831A242F7D1143301380028DBD108F038FE010000007C9000004CF22013C1F6FF731A780AB901201870704700BFB2
:400080004CF20810C1F6FF7008B503682BB140F20003C0F2000303B1984708BD90B5A9B004AF4FF00003BB674FF00003FB674FF0000387F882304FF0000387F883304FF0FF
:4000C0000003FB644FF0000387F884304FF00003BB644FF0000387F885304FF48063A7F886304FF0000387F889304FF0000387F88A304FF0000387F88B304FF0000387F8A5
:400100008C3001F05DFA62B606F064F84CF2B823C1F6FF7346F2C922C0F200021A6005F0BDFD04F067FD44F65D60C0F2000044F68161C0F2000100F05FFE4FF0000387F831
:40014000773054E097F877304FEA430307F190010B444FF4806223F8402C97F8773003F10103DAB297F877304FEA430107F150030B441046194600F0BFFE97F8773003F1D8
:4001800006034FEA43024CF22813C1F6FF734FF00401995497F877304FEA430303F10D024CF22813C1F6FF734FF00001995497F8773003F118034FEA43024CF22813C1F66B
:4001C000FF734FF00401995497F877304FEA430303F131024CF22813C1F6FF734FF00001995497F8773003F1010387F8773097F877300F2BA6D903F085FF4FF002004FF077
:4002000002014CF22412C1F6FF7203F0BBFF4FF058004FF058014CF22812C1F6FF7203F0E1FF4CF22813C1F6FF734FF0090283F8532006F0EFF806F0E9F906F0E3FA02F07C
:40024000AFFC03F075F848F65850C0F2000002F061F94FF0000387F88D3006F007FC03F047FE97F88D30184603F060FE03F050FC03F082FD4FF000033B604FF0000387F896
:400280008E304FF0000387F88F3000E000BF03F05BFF034687F8833097F8822097F883309A4216D04CF22113C1F6FF734FF001021A7000F03FFD97F8833003F00803002B66
:4002C00007D001F0A9F90346FB644FF0000387F8843097F8833087F8823007F14C03184641F2883101F07CF90346002B03D04FF0010387F884304CF22813C1F6FF7393F823
:400300005230DBB297F88A209A4203D04FF0010387F889304CF22813C1F6FF7393F8523087F88A304FF0010003F046FD0346002B2BD097F88D4003F065FD03469BB21BB26A
:400340004FEAE3039BB2DAB24CF22813C1F6FF731A5597F88D30042B04D94FF0000387F88D3005E097F88D3003F1010387F88D3001F052F903463B6097F88D30184603F07C
:40038000D5FD4FF0010387F88E3097F88E30012B0ED13B4618464FF00A0101F021F90346002B05D04FF0000387F88E3003F0E4FC4FF0000387F877302DE097F8771097F8AA
:4003C000773003F103034FEA43024CF22813C1F6FF739B5CDBB24FEA03239AB297F877304FEA430303F107004CF22813C1F6FF731B5CDBB242EA03039BB29AB24FEA41036F
:4004000007F190010B4423F8202C97F8773003F1010387F8773097F87730022BCDD9B7F87430184606F0CAFA4CF22813C1F6FF7393F85430DBB2184603F0FEFD4CF22813B2
:40044000C1F6FF7393F85530DBB2184603F016FE4CF22813C1F6FF7393F85630DBB2184603F02EFE00F006FD0346012B40F08A804FF0000387F8773042E097F8773003F13E
:400480000103DAB297F877304FEA430107F150030B441046194600F02FFD97F8773003F106034FEA430297F877304FEA430307F190010B4433F8403C4FEA13239BB2D9B262
:4004C0004CF22813C1F6FF73995497F877304FEA430303F10D0297F877304FEA430307F190010B4433F8403CD9B24CF22813C1F6FF73995497F8773003F1010387F8773013
:4005000097F877300F2BB8D900F018FD03461A464CF22813C1F6FF7383F82C2000F01AFD03461A464CF22813C1F6FF7383F82D2000F01CFD03461A464CF22813C1F6FF7335
:4005400083F82F2000F01EFD03461A464CF22813C1F6FF7383F82E2001F05EF80346BB64B7F85830B7F886209A4203D04FF0010387F88530B7F85830A7F886304FF0010362
:4005800087F88F3000F0FEFC0346002B09D107F1480318464FF47A7101F022F80346002B19D04CF22813C1F6FF7393F85730DBB2002B63D14FF0000387F88C304CF22813F8
:4005C000C1F6FF734FF0000283F852204FF0000387F88A3053E097F88530002B4FD04FF0000387F88530B7F8582040F2BF239A4210D84FF0000387F88C304CF22813C1F646
:40060000FF734FF0000283F852204FF0000387F88A3034E0B7F8582040F2BF239A4216D9B7F8582040F23F539A4210D84FF0010387F88C304FF0010387F88C304CF2281361
:40064000C1F6FF734FF0010283F8522017E0B7F8582040F23F539A4211D94FF0020387F88C304FF0020387F88C304CF22813C1F6FF734FF0020283F8522000E000BF97F87C
:400680008930002B27D04FF0000387F889304CF22813C1F6FF7393F85230DBB2012B04D0022B07D0002B12D009E04FF0010387F88C3010E04FF0020387F88C300BE04CF299
:4006C0002813C1F6FF734FF0000283F852204FF0000387F88C3097F88C30012B57D1B7F850301AB207F1380310464FF001011A4600F0C0FFB7F852301AB207F138031046F2
:400700004FF002011A4600F0B5FF07F1380207F13803104619464FF0010201F09DFC07F1380207F13803104619464FF0010201F043F807F1380207F13803104619464FF0AC
:40074000020201F039F8B7F85A301AB207F1380310464FF006011A4600F08CFFB7F842301AB240F22B139A4204DD4FF0010387F88B3003E04FF0000387F88B304CF2281335
:40078000C1F6FF734FF0010283F8522094E097F88C30022B7ED197F88430002B27D04CF22813C1F6FF734FF0040283F830204CF22813C1F6FF734FF0000283F831204CF2A2
:4007C0002813C1F6FF734FF0040283F832204CF22813C1F6FF734FF0000283F833204CF22813C1F6FF734FF0000283F852204CF22813C1F6FF7393F83030DBB24FEA032389
:400800009AB24CF22813C1F6FF7393F83130DBB242EA03039BB21AB207F1380310464FF002011A4600F026FF4CF22813C1F6FF7393F83230DBB24FEA03239AB24CF2281386
:40084000C1F6FF7393F83330DBB242EA03039BB21AB207F1380310464FF001011A4600F009FF07F1380207F13803104619464FF0010200F0A1FF07F1380207F138031046C0
:4008800019464FF0020200F097FF4FF0020387F88B3011E04CF22813C1F6FF734FF0000283F852204FF0000387F88B304FF000033B874FF000037B8702F0CEFF97F88B3004
:4008C000002B45D100F05EFB0346002B2FD107F1480318464FF47A7100F082FE0346002B25D197F88F30002B00F0A8804FF0000387F88F3007F1380207F128031046194636
:400900004FF0000201F000F83B8D1BB2184600F08FFE0346184605F059FE7B8D1BB2184600F086FE0346184605F04CFF87E04FF0000000F07DFE0346184605F047FE4FF06B
:40094000000000F075FE0346184605F03BFF76E097F88B30022B12D17B8F1BB2184600F067FE0346184605F031FE3B8F1BB2184600F05EFE0346184605F024FF5FE097F86B
:400980008B30012B5BD14CF20123C1F6FF731B78DBB2002B32D04CF20123C1F6FF734FF000021A704CF2C023C1F6FF731B889BB21BB2184601F00CFE4CF2C223C1F6FF734A
:4009C0001B889BB21BB2184601F028FE4CF2C023C1F6FF731B889BB21BB2184602F0A4F94CF2C223C1F6FF731B889BB21BB2184602F0C0F94FF0000003F0BAFA4CF2002378
:400A0000C1F6FF731B78DBB2002B18D04CF20023C1F6FF734FF000021A704FF0000001F08BFD4FF0000001F0ADFD4FF0000002F02FF94FF0000002F051F900E000BF02F00E
:400A4000AFF84CF2C413C1F6FF731B78DBB2002B06D04CF2C413C1F6FF734FF000021A7002F066FC4CF2E413C1F6FF731B78DBB2002B06D04CF2E413C1F6FF734FF00002F5
:400A80001A704CF2B913C1F6FF731B78DBB2022B3AD14CF2B913C1F6FF734FF000021A704CF22813C1F6FF731B78DBB219464CF22813C1F6FF735B78DBB21A464CF2281327
:400AC000C1F6FF739B78DBB29C464CF22813C1F6FF73DB78DBB29E464CF22813C1F6FF731B79DBB218464CF22813C1F6FF735B79DBB2CDF800E00190029348F66450C0F252
:400B00000000634601F006FD4CF2B913C1F6FF731B78DBB2002B3FF4B9AB4CF2B913C1F6FF734FF000021A7097F88C30012B0AD0022B0FD0002B13D148F68050C0F20000D9
:400B400001F0E8FC0CE048F68C50C0F2000001F0E1FC05E048F69C50C0F2000001F0DAFC4CF22813C1F6FF7393F85230DBB248F6A850C0F20000194601F0CCFC97F88B300C
:400B8000012B1FD0022B49D0002B40F08180B7F850301A46B7F8523048F6C050C0F2000011461A4601F0B6FC3B8F19B27B8F1AB2B7F842301BB248F6DC50C0F2000001F0F8
:400BC000A9FC65E048F6F850C0F2000001F0A2FC4CF20023C1F6FF731B78DBB2002B16D14CF2C023C1F6FF731B889BB21AB24CF2C223C1F6FF731B889BB21BB248F60860D3
:400C0000C0F2000011461A4601F084FC40E048F62060C0F2000001F07DFC39E048F63060C0F2000001F076FC4CF22813C1F6FF7393F83030DBB219464CF22813C1F6FF73C9
:400C400093F83130DBB21A464CF22813C1F6FF7393F83230DBB29C464CF22813C1F6FF7393F83330DBB2009348F63C60C0F20000634601F04FFC3B8F19B27B8F1AB2B7F862
:400C800042301BB248F6DC50C0F2000001F042FC02F096F803469BB21CB202F09FF803469BB21BB248F65C60C0F2000021461A4601F030FC4CF2C513C1F6FF731B78DBB2EB
:400CC00048F67060C0F20000194601F023FC4CF2C613C1F6FF731B78DBB21A464CF2E613C1F6FF731B78DBB248F68060C0F2000011461A4601F00EFC97F8843048F694608E
:400D0000C0F20000194601F005FC4CF22113C1F6FF731B78DBB248F6A460C0F20000194601F0F8FB48F6B060C0F2000001F0F2FBFFF7ADBA80B500AF4CF22413C1F6FF7301
:400D40001B78DBB2002B07D04CF28013C1F6FF734FF001021A7006E04CF28013C1F6FF734FF000021A704CF22413C1F6FF735B78DBB2002B07D04CF28113C1F6FF734FF0A6
:400D800001021A7006E04CF28113C1F6FF734FF000021A704CF28013C1F6FF731B78002B08D04FF0010002F091FE4FF0010003F001F907E04FF0000002F088FE4FF000009F
:400DC00003F0F8F84CF28113C1F6FF731B78002B08D04FF0010003F0CBF84FF0010003F00BF907E04FF0000003F0C2F84FF0000003F002F980BD00BF80B584B000AF786066
:400E000039604CF28C20C1F6FF704FF000014FF0280207F0F5FE4CF24C20C1F6FF704FF000014FF0400207F0EBFE4FF00003FB730CE0FA7B4CF28C23C1F6FF734FF48061BA
:400E400023F81210FB7B03F10103FB73FB7B0F2BEFD94CF28C13C1F6FF737A681A604CF28813C1F6FF733A681A6007F11007BD4680BD00BF80B582B000AF4FF000037B710F
:400E80004FF00003FB804CF28813C1F6FF731B6898470346002B28D04CF28C13C1F6FF731B6898470346FB80FB8803F47F43002B14D04CF28413C1F6FF734FF001021A7064
:400EC000FB884FEA13239BB248F6B460C0F20000194601F01FFB4FF0030307E0FB88DBB2184600F05BF803467B717B79184607F10807BD4680BD00BF80B483B000AF03467C
:400F00003960FB71FB79002B05D1FB79102B02D94FF001030CE0FB7903F1FF324CF28C23C1F6FF7333F812203B681A804FF00003184607F10C07BD4680BC704780B400AFB1
:400F40004CF28C23C1F6FF7393F820301846BD4680BC704780B400AF4CF28C23C1F6FF7393F821301846BD4680BC704780B400AF4CF28C23C1F6FF7393F822301846BD46CC
:400F800080BC704780B400AF4CF28C23C1F6FF7393F823301846BD4680BC704780B584B000AF0346FB71FB79184600F03DFA0346FB734FF00003BB734CF28413C1F6FF7328
:400FC0001B78DBB2002B1BD04CF28413C1F6FF734FF000021A704CF29013C1F6FF734FF000021A704CF29113C1F6FF734FF000021A704CF20C13C1F6FF734FF0FF321A70C7
:401000004CF29113C1F6FF731A7811464CF29413C1F6FF73F87B585402F10103DAB24CF29113C1F6FF731A704CF29013C1F6FF731B78032B00F2FB8001A252F823F000BF80
:4010400051100000EB1000000B110000C7110000FB7BF02B19D14CF2B010C1F6FF704FF0020100F0BDFA0346002B0ED04CF29013C1F6FF734FF001021A704CF20C13C1F65C
:40108000FF734FF0FF321A702EE04CF20C13C1F6FF731B78FF2B1FD0FA7B4CF20C13C1F6FF731B7803F118034FEAC3039A4213DBFA7B4CF20C13C1F6FF731B7803F1190380
:4010C0004FEAC3039A4207DA4CF29013C1F6FF734FF003021A7007E04CF29113C1F6FF734FF000021A70A2E0A1E04CF29113C1F6FF731B78172B40F299804CF29013C1F6D9
:40110000FF734FF002021A7091E04CF29013C1F6FF734FF000021A704CF29113C1F6FF734FF000021A70FB7B03F02003002B23D0FB7B03F00303002B1ED1FB794FEA13134E
:40114000DBB21A4602F003024CF20C13C1F6FF731A704CF29410C1F6FF7000F077F805F0E1FD0346002B14BF00230123184605F0B9FD4FF0010364E0FB7B03F03003002B5C
:4011800019D14CF20C13C1F6FF734FF0FF321A704CF29410C1F6FF7000F058F805F0C2FD0346002B14BF00230123184605F09AFD4FF0010345E04CF20C13C1F6FF734FF024
:4011C000FF321A7033E04CF29113C1F6FF731B78022B2CD94CF29413C1F6FF735B784FEA03239AB24CF29413C1F6FF739B7813449AB24CF29413C1F6FF731B7803F1400329
:40120000DBB21046194600F0FBF84CF29013C1F6FF734FF000021A704CF29113C1F6FF734FF000021A704FF002030AE000BF00F0F3F902464CF2B013C1F6FF731A604FF0EA
:401240000003184607F11007BD4680BD80B489B000AF78607B6803F10103BB604FF08003BB614FF000033B613DE04FF00003FB614FF000037B6126E0BB681B781A46BB69FF
:4012800002EA0303002B05D07B694FF0010202FA03F301E04FF00003FA6942EA0303FB61BB69012B07D14FF08003BB61BB6803F10103BB6003E0BB694FEA5303BB617B693E
:4012C00003F101037B617B690A2BD5D93A69FB6999B24CF28C23C1F6FF7323F812103B6903F101033B613B690F2BBED97B6803F117031B785BB24FEAD3724CF28C23C1F64E
:40130000FF7383F820207B6803F117031B7803F04003002B0CBF002201224CF28C23C1F6FF7383F821207B6803F117031B7803F02003002B0CBF002201224CF28C23C1F640
:40134000FF7383F822207B6803F117031B7803F01003002B0CBF002201224CF28C23C1F6FF7383F823207B6803F117031B781A4602F00F024CF28C23C1F6FF7383F82420E9
:401380007B6803F118031B784FEA9313DAB24CF28C23C1F6FF7383F825207B6803F117031B7803F030034FEA2313DAB24CF28C23C1F6FF7383F826207B6803F118031B7866
:4013C00003F00C034FEAA303FB73FB7B03F001034FEA4303DAB2FB7B03F002034FEA6303DBB242EA0303DBB2DAB24CF28C23C1F6FF7383F8272007F12407BD4680BC704750
:4014000080B483B000AF02460B46FA807B717A794CF24C23C1F6FF73F98823F8121007F10C07BD4680BC704780B483B000AF0346FB71FB7903F055034FEA4303DAB2FB7906
:4014400003F0AA034FEA6303DBB242EA0303DBB2FB71FB7903F033034FEA8303DAB2FB7903F0CC034FEAA303DBB242EA0303DBB2FB71FB794FEA0313DAB2FB794FEA13139E
:40148000DBB242EA0303DBB2DBB2184607F10C07BD4680BC704700BF80B483B000AF03463960FB7197F90730002B10DA4EF60053CEF20003FA7902F00F02A2F104013A68EB
:4014C000D2B24FEA4212D2B20B441A760DE04EF20013CEF2000397F907103A68D2B24FEA4212D2B20B4483F8002307F10C07BD4680BC704780B582B000AF78607A686FF07A
:401500007F439A4202D94FF001031FE04EF21003CEF200037A6822F07F4202F1FF325A604FF0FF304FF00701FFF7B6FF4EF21003CEF200034FF000029A604EF21003CEF283
:4015400000034FF007021A604FF00003184607F10807BD4680BD00BF80B400AF4CF2B413C1F6FF731B6803F101024CF2B413C1F6FF731A604CF2B813C1F6FF731B7803F114
:401580000103DAB24CF2B813C1F6FF731A704CF2B813C1F6FF731B78642B0DD94CF2B813C1F6FF734FF000021A704CF2B913C1F6FF734FF001021A70BD4680BC704700BFF4
:4015C00080B500AF4FF00F0041F25951C0F2000105F006FB45F6C050FFF78CFF80BD00BF80B483B000AF786039604CF2B413C1F6FF731A687B681B68C3EB02023B689A429D
:4016000002D34FF0010301E04FF00003184607F10C07BD4680BC704780B400AF4CF2B413C1F6FF731B681846BD4680BC704700BF80B483B000AF0346FB80B7F906304FF466
:40164000C87202FB03F244F6D353C1F2620383FB02134FEAA3114FEAE273C3EB01039BB203F5BE639BB2184607F10C07BD4680BC704700BF80B485B000AF0B463A600246EA
:40168000FA807B71B7F90630B3F5D06F03DD4FF4D063FB8008E0B7F9062040F27F139A4202DC4FF4C073FB80B7F90630B3F5806F15DDB7F906304FF47A7202FB03F3A3F5EA
:4016C0007A2246F26763C6F2666383FB02134FEA23214FEAE273C3EB0103FB811EE0B7F9062040F2FF339A4215DCB7F906304FF47A7202FB03F3A3F57A2246F26763C6F204
:40170000666383FB02134FEA23214FEAE273C3EB0103FB8102E04FF00003FB81B7F90E30B3F57A7F03DD4FF47A73FB8107E0B7F90E3013F57A7F02DA4FF61843FB817B7997
:4017400003F1FF33072B32D801A252F823F000BF711700007917000081170000891700009117000099170000A1170000A91700003B68FA891A801AE03B68FA895A8016E078
:401780003B68FA899A8012E03B68FA89DA800EE03B68FA891A810AE03B68FA895A8106E03B68FA899A8102E03B68FA89DA8107F11407BD4680BC704780B485B000AFF860DA
:4017C000B9601346FB71FB79012B49D1FB681B881BB24B2B1BDDFB681B881BB24FF47A7202FB03F3A3F59233A3F1F80340F6C772C8F6B35282FB03121A444FEA62224FEA17
:40180000E373C3EB02039AB2BB681A8074E0FB681B881BB213F14B0F1DDAFB681B881AB24FF6B573CFF6FF73C2EB03034FF47A7202FB03F340F6C772C8F6B35282FB03120B
:401840001A444FEA62224FEAE373C2EB03039AB2BB681A8050E0BB684FF000021A804BE0FB79022B48D1FB685B881BB24B2B1BDDFB685B881BB24FF47A7202FB03F3A3F5A1
:401880009233A3F1F80340F6C772C8F6B35282FB03121A444FEA62224FEAE373C3EB02039AB2BB685A8027E0FB685B881BB213F14B0F1DDAFB685B881AB24FF6B573CFF6B7
:4018C000FF73C2EB03034FF47A7202FB03F340F6C772C8F6B35282FB03121A444FEA62224FEAE373C2EB03039AB2BB685A8003E0BB684FF000025A8007F11407BD4680BCC4
:40190000704700BF00000000B0B58CB000AFF860B9607A60FB685B881BB2184606F068FE03461846DFF8001706F06AFF03463B61FB681B881BB2184606F05AFE03461846CA
:40194000DFF8E41606F05CFF03467B613B6923F00043BB627B6923F00043FB62786906F04FFA04460D46386906F04AFA02460B462046294605F026FE02460B461046194605
:401980000FF29463D3E9002306F0B8FB02460B461046194606F022FD0346BB61BB6A3B623B6AFB617B68BA691A604FF000031C46B869DFF8781607F021F80346002B02D01C
:4019C0004FF001031C46E3B2002B46D04FF000031C46B869DFF8581606F0FCFF0346002B02D04FF001031C46E3B2002B35D0B86A06F006FA04460D46F86A06F001FA024671
:401A00000B46104619460FF21863D3E9002306F04BFA02460B462046294606F093F802460B461046194606F0D9FC03463B624FF000031C46386ADFF8F41506F0CBFF0346ED
:401A4000002B02D04FF001031C46E3B2002B00F0BF82DFF8D8353B62BFE24FF000031C46B869DFF8CC1506F0C9FF0346002B02D04FF001031C46E3B2002B46D04FF0000373
:401A80001C46B869DFF8AC1506F0A4FF0346002B02D04FF001031C46E3B2002B35D0B86A06F0AEF904460D46F86A06F0A9F902460B46104619460FF26853D3E9002306F08D
:401AC000F3F902460B462046294606F03BF802460B461046194606F081FC03463B624FF000031C46386ADFF8441506F073FF0346002B02D04FF001031C46E3B2002B00F043
:401B00006982DFF828353B6267E24FF000031C46B869DFF8201506F071FF0346002B02D04FF001031C46E3B2002B27D04FF000031C46B869DFF8FC1406F056FF0346002B5C
:401B400002D04FF001031C46E3B2002B16D0FB6A3B623B6AFB613B6A83F000433B62F869DFF8D41406F098FD0346FB61386ADFF8C81406F091FD03463B622EE24FF00003EC
:401B80001C46B869DFF8AC1406F038FF0346002B02D04FF001031C46E3B2002B4DD04FF000031C46B869DFF8941406F013FF0346002B02D04FF001031C46E3B2002B3CD013
:401BC000B86A06F01DF904460D46F86A06F018F902460B46104619460FF24443D3E9002306F062F902460B462046294605F0AAFF02460B461046194606F0F0FB03463B628A
:401C00004FF000031C46386ADFF8201406F0E2FE0346002B02D04FF001031C46E3B2002B02D0DFF808343B623B6A83F000433B62FB6983F00043FB61CFE14FF000031C468E
:401C4000B869FE4906F0DAFE0346002B02D04FF001031C46E3B2002B37D04FF000031C46B869F74906F0B6FE0346002B02D04FF001031C46E3B2002B27D0B86A06F0C0F85B
:401C800004460D46F86A06F0BBF802460B4610461946E3A3D3E9002306F006F902460B462046294605F04EFF02460B461046194606F094FB03463B623B6A83F000433B6273
:401CC000FB6983F00043FB6187E14FF000031C46B869DB4906F092FE0346002B02D04FF001031C46E3B2002B08D03B6A83F000433B62FB6983F00043FB616EE14FF0000315
:401D00001C46B869C94906F06FFE0346002B02D04FF001031C46E3B2002B2FD04FF000031C46B869C74906F073FE0346002B02D04FF001031C46E3B2002B1FD0B86A06F013
:401D40005FF804460D46F86A06F05AF802460B4610461946B2A3D3E9002306F0A5F802460B462046294605F0EDFE02460B461046194606F033FB0346FB612EE14FF00003FA
:401D80001C46B869AF4906F02FFE0346002B02D04FF001031C46E3B2002B42D04FF000031C46B869A84906F033FE0346002B02D04FF001031C46E3B2002B32D0B86A06F026
:401DC0001FF804460D46F86A06F01AF802460B461046194692A3D3E9002306F065F802460B462046294605F0ADFE02460B461046194606F0F3FA0346FB614FF000031C4688
:401E0000F8698A4906F0E6FD0346002B02D04FF001031C46E3B2002B00F0DE80834BFB61DBE04FF000031C46B869874906F0E6FD0346002B02D04FF001031C46E3B2002B9E
:401E400024D04FF000031C46B8697F4906F0CCFD0346002B02D04FF001031C46E3B2002B14D0FB6A3B623B6AFB61FB6983F00043FB61F869704906F00FFC0346FB61386AB8
:401E80006D4906F009FC03463B62A6E04FF000031C46B8696C4906F09DFD0346002B02D04FF001031C46E3B2002B49D04FF000031C46B869654906F0ABFD0346002B02D0E0
:401EC0004FF001031C46E3B2002B39D0B86A05F097FF04460D46F86A05F092FF02460B46104619464EA3D3E9002305F0DDFF02460B462046294605F025FE02460B461046DE
:401F0000194606F06BFA0346FB614FF000031C46F869464906F05EFD0346002B02D04FF001031C46E3B2002B01D0404BFB613B6A83F000433B62FB6983F00043FB614CE060
:401F40004FF000031C46B869404906F04DFD0346002B02D04FF001031C46E3B2002B3CD04FF000031C46B869394906F051FD0346002B02D04FF001031C46E3B2002B2CD0EA
:401F8000B86A05F03DFF04460D46F86A05F038FF02460B461046194621A3D3E9002305F083FF02460B462046294605F0CBFD02460B461046194606F011FA0346FB61FB69B8
:401FC00083F00043FB613B6A83F000433B6204E000BF02E000BF00E000BFF869124906F05BFB0346184606F01DFD03469AB2BB685A80386A0C4906F04FFB0346184606F0CF
:4020000011FD03469AB2BB681A8007F13007BD46B0BD00BFAFF30080182D4454FB21E93F9A9999999999E9BF00007A44000000000000803F000000400000403F00004040A4
:4020400000008040000080BF000000C0000040C0000080C0AFF3008080B485B000AFF860B9601346FB71FB79012B07D1FB681B88C3F100039AB2BB681A8009E0FB79022B29
:4020800006D1FB685B88C3F100039AB2BB685A8007F11407BD4680BC704700BF80B582B000AF0346FB71FB790A2B03D14FF00D00FFF7F4FF4CF2BC13C1F6FF731B68002BDA
:4020C0000ED04CF2BC13C1F6FF731B68FA791A7003F101024CF2BC13C1F6FF731A600EE04CF2B823C1F6FF731B68002B07D04CF2B823C1F6FF731B68FA791046984707F18B
:402100000807BD4680BD00BF80B582B000AF786008E07B681B787A6802F101027A601846FFF7BCFF7B681B78002BF2D107F10807BD4680BD80B58EB000AF786039607B6863
:402140001B7887F832307B6803F101037B6097F83230002B00F0D78197F83230252B05D097F832301846FFF799FFCBE14FF00003BB627B681B7887F832307B6803F10103A1
:402180007B6097F83230302B0BD14FF00103BB627B681B7887F832307B6803F101037B600EE097F832302D2B0AD14FF00203BB627B681B7887F832307B6803F101037B602F
:4021C0004FF000037B6215E07A6A13464FEA830313444FEA43031A4697F832301344A3F130037B627B681B7887F832307B6803F101037B6097F832302F2B03D997F8323088
:40220000392BE1D997F832306C2B03D097F832304C2B0BD1BB6A43F00403BB627B681B7887F832307B6803F101037B6097F83230002B00F06A8197F8323087F8333097F8FF
:402240003330602B05D997F83330A3F1200387F8333097F83330A3F14203162B00F28D8001A151F823F000BF5B230000472300006B2300007B2300007B2300007B230000EF
:402280007B2300007B2300007B2300007B2300007B2300007B2300007B230000632300007B2300007B2300007B230000C52200007B2300006B2300007B2300007B2300001D
:4022C000732300003B6803F104023A601B687B634FF000033B6203E03B6A03F101033B627A6B3B6A13441B78002BF5D103E04FF02000FFF7D3FEBB6A03F00203002B0CD121
:402300003A6A7B6A9A422CBF00230123DBB23A6A02F101023A62002BE9D1786BFFF7F4FE03E04FF02000FFF7B9FE3A6A7B6A9A422CBF00230123DBB23A6A02F101023A624A
:40234000002BEED1DEE03B6803F104023A601B68DBB21846FFF7A2FED4E04FF00203BB6111E04FF00803BB610DE04FF00A03BB6109E04FF01003BB6105E097F8323018462F
:40238000FFF78CFEBEE0BB6A03F00403002B05D03B6803F104023A601B680EE097F83330442B05D13B6803F104023A601B6804E03B6803F104023A601B68FB6297F833305A
:4023C000442B0AD1FB6A002B07DAFB6AC3F10003FB62BB6A43F00803BB624FF00003FB61FB6ABA69B3FBF2F2B96901FB02F2C2EB030387F83330FA6ABB69B2FBF3F3FB6252
:4024000097F83330092B0DD997F83230782B02D14FF0270301E04FF0070397F83320134487F83330FB6997F8332002F13002D2B207F138010B4403F8302CFB6903F1010359
:40244000FB61FB6A002B02D0FB690F2BC8D9BB6A03F00803002B0BD0FB6907F1380213444FF02D0203F8302CFB6903F10103FB61FB693B62BB6A03F00103DBB2002B02D025
:402480004FF0300301E04FF0200387F8333004E097F833301846FFF701FEBB6A03F00203002B0CD13A6A7B6A9A422CBF00230123DBB23A6A02F101023A62002BE8D1FB6995
:4024C00003F1FF33FB61FB6907F138010B4413F8303C1846FFF7E2FDFB69002BEFD103E04FF02000FFF7DAFD3A6A7B6A9A422CBF00230123DBB23A6A02F101023A62002BE9
:40250000EED11CE61BE600BF00E000BF07F13807BD4680BD0FB480B582B000AF07F114037B6038697968FFF705FE07F10807BD46BDE8804004B0704780B483B000AF03468D
:40254000FB80B7F9062013464FEA031313444FEAC3031A4644F6D353C1F2620383FB02134FEAA3114FEAE273C3EB01039AB24CF2C013C1F6FF731A8007F10C07BD4680BC0A
:40258000704700BF80B483B000AF0346FB80B7F9062013464FEA031313444FEAC3031A4644F6D353C1F2620383FB02134FEAA3114FEAE273C3EB01039AB24CF2C213C1F649
:4025C000FF731A8007F10C07BD4680BC704700BF80B483B000AF0346FB80B7F9062013464FEA031313444FEAC3031A4648F21F53C5F2EB1383FB02134FEA63314FEAE273B2
:40260000C3EB01039AB24CF2C013C1F6FF731A8007F10C07BD4680BC704700BF80B483B000AF0346FB80B7F9062013464FEA031313444FEAC3031A4648F21F53C5F2EB1399
:4026400083FB02134FEA63314FEAE273C3EB01039AB24CF2C213C1F6FF731A8007F10C07BD4680BC704700BF80B586B000AF4FF001037B714FF01203BB714FF03203FB712F
:402680004FF000033B724FF00A037B724FF03203BB724FF00103FB724FF000033B736FF07C037B734FF01403BB734FF00503FB734FF00A033B744FF001037B744FF003033A
:4026C000BB744FF00403FB744FF007033B756FF07F037B757A79BB791344DAB2FB791344DAB23B7A1344DAB27B7A1344DAB2BB7A1344DAB2FB7A1344DAB23B7B1344DAB252
:402700007B7B1344DAB2BB7B1344DAB2FB7B1344DAB23B7C1344DAB27B7C1344DAB2BB7C1344DAB2FB7C1344DAB23B7D1344DAB27B7D1344BB754FF00103FB7561E07B7964
:40274000184602F03BFEBB79184602F037FEFB79184602F033FE3B7A184602F02FFE7B7A184602F02BFEBB7A184602F027FEFB7A184602F023FE3B7B184602F01FFE7B7BD9
:40278000184602F01BFEBB7B184602F017FEFB7B184602F013FE3B7C184602F00FFE7B7C184602F00BFEBB7C184602F007FEFB7C184602F003FE3B7D184602F0FFFD7B7D8A
:4027C000184602F0FBFDBB7D184602F0F7FDFB7D012B09D102F04CFE0346002BFAD14FF0010004F0C5F908E002F042FE0346002BFAD14FF00E0004F0BBF9FB7D03F101036C
:40280000FB75FB7D142B9AD907F11807BD4680BD80B483B000AF0346FB80B7F90630B3F5C84F02DD4FF4C843FB80B7F9063013F5C84F02DA4FF41C43FB80B7F90630002B71
:4028400013DBB7F906304FF4C84202FB03F247F67903C7F6780383FB02134FEAA3114FEAE273C3EB01039BB219E0B7F9062049F60043CFF6FF7303FB02F247F67903C7F657
:40288000780383FB02134FEAA3114FEAE273C3EB01039BB2A3F5FA43A3F124039BB21BB2184607F10C07BD4680BC704780B582B000AF02F00FFD0346002B00F0B18002F0EC
:4028C000B5FC0346FB71FEF7A7FE02464CF2C813C1F6FF731A604CF2D813C1F6FF731B78032B00F29D8001A252F823F0FD2800002129000063290000D9290000FB79822B94
:4029000040F08B804CF2D813C1F6FF731B7803F10103DAB24CF2D813C1F6FF731A707FE0FB79062B15D14CF2D813C1F6FF734FF002021A704CF2D913C1F6FF734FF000027A
:402940001A704CF2DA13C1F6FF736FF077021A7066E04CF2D813C1F6FF734FF000021A705EE04CF2D913C1F6FF731B781A464CF2DC13C1F6FF73F97999544CF2DA13C1F699
:40298000FF731A78FB791344DAB24CF2DA13C1F6FF731A704CF2D913C1F6FF731B7803F10103DAB24CF2D913C1F6FF731A704CF2D913C1F6FF731B78022B30D94CF2D81352
:4029C000C1F6FF731B7803F10103DAB24CF2D813C1F6FF731A7023E04CF2DA13C1F6FF731B78FA799A4210D14CF2DC13C1F6FF739A784CF2C513C1F6FF731A704CF2C4135B
:402A0000C1F6FF734FF001021A704CF2D813C1F6FF734FF000021A7002E000BF00E000BF4CF2C810C1F6FF7041F28831FEF7D8FD0346002B06D04CF2C613C1F6FF734FF089
:402A400001021A7007F10807BD4680BD80B584B000AF4FF00003BB704FF00003FB704CF2D410C1F6FF704FF01701FEF7B9FD0346002B00F09080FEF7CFFD02464CF2D41364
:402A8000C1F6FF731A604CF2C013C1F6FF731B889BB21BB21846FFF7BBFE03469BB29AB24CF2BE23C1F6FF731A804CF2C213C1F6FF731B889BB21BB21846FFF7A9FE03466E
:402AC0009BB29AB24CF2BC23C1F6FF731A804CF2BE23C1F6FF737B604CF2BC23C1F6FF73BB6048F68873C0F200031A7848F68973C0F200031B781344DAB27B6803F1010319
:402B00001B781344DAB27B681B781344DAB2BB6803F101031B781344DAB2BB681B781344DAB2BB781344DAB2FB781344FB7348F68873C0F200031B78184602F03FFC48F604
:402B40008973C0F200031B78184602F037FC7B6803F101031B78184602F030FC7B681B78184602F02BFCBB6803F101031B78184602F024FCBB681B78184602F01FFCBB7845
:402B8000184602F01BFCFB78184602F017FCFB7B184602F013FC07F11007BD4680BD00BF80B500AF4CF2CC13C1F6FF731B78DBB2002B62D14CF2CD13C1F6FF731B78012B47
:402BC00019D0022B36D0002B5AD14FF0000002F05DFD02F073FAFEF71FFD02464CF2D013C1F6FF731A604CF2CD13C1F6FF734FF001021A7049E04CF2D010C1F6FF704FF499
:402C00007A71FEF7EDFC0346002B3BD04FF0020002F03CFDFEF700FD02464CF2D013C1F6FF731A604CF2CD13C1F6FF734FF002021A702AE04CF2D010C1F6FF704FF4967136
:402C4000FEF7CEFC0346002B1ED0FFF70DFD4CF2C613C1F6FF734FF000021A704CF2CC13C1F6FF734FF001021A704CF2CD13C1F6FF734FF000021A7007E0FFF7E7FE04E05E
:402C800000BF02E000BF00E000BFFFF70FFE80BD80B483B000AF0346FB80B7F9062013464FEA031313444FEAC3031A4644F6D353C1F2620383FB02134FEAA3114FEAE27341
:402CC000C3EB01039AB24CF2E013C1F6FF731A8007F10C07BD4680BC704700BF80B483B000AF0346FB80B7F9062013464FEA031313444FEAC3031A4644F6D353C1F262039C
:402D000083FB02134FEAA3114FEAE273C3EB01039AB24CF2E213C1F6FF731A8007F10C07BD4680BC704700BF80B483B000AF0346FB80B7F9062013464FEA031313444FEAE9
:402D4000C3031A4648F21F53C5F2EB1383FB02134FEA63314FEAE273C3EB01039AB24CF2E013C1F6FF731A8007F10C07BD4680BC704700BF80B483B000AF0346FB80B7F9A2
:402D8000062013464FEA031313444FEAC3031A4648F21F53C5F2EB1383FB02134FEA63314FEAE273C3EB01039AB24CF2E213C1F6FF731A8007F10C07BD4680BC704700BF8C
:402DC00080B400AF4CF2E013C1F6FF731B889BB21BB21846BD4680BC704700BF80B400AF4CF2E213C1F6FF731B889BB21BB21846BD4680BC704700BF80B586B000AF4FF05E
:402E000001037B714FF01203BB714FF03203FB714FF000033B724FF00A037B724FF03203BB724FF00103FB724FF000033B736FF07C037B734FF01403BB734FF00503FB73D4
:402E40004FF00A033B744FF001037B744FF00303BB744FF00403FB744FF007033B756FF07F037B757A79BB791344DAB2FB791344DAB23B7A1344DAB27B7A1344DAB2BB7A2C
:402E80001344DAB2FB7A1344DAB23B7B1344DAB27B7B1344DAB2BB7B1344DAB2FB7B1344DAB23B7C1344DAB27B7C1344DAB2BB7C1344DAB2FB7C1344DAB23B7D1344DAB270
:402EC0007B7D1344BB754FF00103FB7561E07B79184602F06BFDBB79184602F067FDFB79184602F063FD3B7A184602F05FFD7B7A184602F05BFDBB7A184602F057FDFB7A5B
:402F0000184602F053FD3B7B184602F04FFD7B7B184602F04BFDBB7B184602F047FDFB7B184602F043FD3B7C184602F03FFD7B7C184602F03BFDBB7C184602F037FDFB7C4D
:402F4000184602F033FD3B7D184602F02FFD7B7D184602F02BFDBB7D184602F027FDFB7D012B09D102F07CFD0346002BFAD14FF0010003F0FDFD08E002F072FD0346002B6F
:402F8000FAD14FF00E0003F0F3FDFB7D03F10103FB75FB7D142B9AD907F11807BD4680BD80B483B000AF0346FB80B7F90630B3F5C84F02DD4FF4C843FB80B7F9063013F5A0
:402FC000C84F02DA4FF41C43FB80B7F90630002B13DBB7F906304FF4C84202FB03F247F67903C7F6780383FB02134FEAA3114FEAE273C3EB01039BB219E0B7F9062049F691
:403000000043CFF6FF7303FB02F247F67903C7F6780383FB02134FEAA3114FEAE273C3EB01039BB2A3F5FA43A3F124039BB21BB2184607F10C07BD4680BC704780B582B0B6
:4030400000AF02F03FFC0346002B00F0B18002F0E5FB0346FB71FEF7DFFA02464CF2E813C1F6FF731A604CF2F813C1F6FF731B78032B00F29D8001A252F823F08D30000067
:40308000B1300000F330000069310000FB79822B40F08B804CF2F813C1F6FF731B7803F10103DAB24CF2F813C1F6FF731A707FE0FB79062B15D14CF2F813C1F6FF734FF0F6
:4030C00002021A704CF2F913C1F6FF734FF000021A704CF2FA13C1F6FF736FF077021A7066E04CF2F813C1F6FF734FF000021A705EE04CF2F913C1F6FF731B781A464CF2C9
:40310000FC13C1F6FF73F97999544CF2FA13C1F6FF731A78FB791344DAB24CF2FA13C1F6FF731A704CF2F913C1F6FF731B7803F10103DAB24CF2F913C1F6FF731A704CF2D8
:40314000F913C1F6FF731B78022B30D94CF2F813C1F6FF731B7803F10103DAB24CF2F813C1F6FF731A7023E04CF2FA13C1F6FF731B78FA799A4210D14CF2FC13C1F6FF731C
:403180009A784CF2E513C1F6FF731A704CF2E413C1F6FF734FF001021A704CF2F813C1F6FF734FF000021A7002E000BF00E000BF4CF2E810C1F6FF7041F28831FEF710FA26
:4031C0000346002B06D04CF2E613C1F6FF734FF001021A7007F10807BD4680BD80B584B000AF4FF00003BB704FF00003FB704CF2F410C1F6FF704FF01701FEF7F1F90346F9
:40320000002B00F09080FEF707FA02464CF2F413C1F6FF731A604CF2E013C1F6FF731B889BB21BB21846FFF7BBFE03469BB29AB24CF2BE23C1F6FF731A804CF2E213C1F66B
:40324000FF731B889BB21BB21846FFF7A9FE03469BB29AB24CF2BC23C1F6FF731A804CF2BE23C1F6FF737B604CF2BC23C1F6FF73BB6048F68A73C0F200031A7848F68B7320
:40328000C0F200031B781344DAB27B6803F101031B781344DAB27B681B781344DAB2BB6803F101031B781344DAB2BB681B781344DAB2BB781344DAB2FB781344FB7348F683
:4032C0008A73C0F200031B78184602F06FFB48F68B73C0F200031B78184602F067FB7B6803F101031B78184602F060FB7B681B78184602F05BFBBB6803F101031B78184658
:4033000002F054FBBB681B78184602F04FFBBB78184602F04BFBFB78184602F047FBFB7B184602F043FB07F11007BD4680BD00BF80B500AF4CF2EC13C1F6FF731B78DBB2B2
:40334000002B62D14CF2ED13C1F6FF731B78012B19D0022B36D0002B5AD14FF0000002F08DFC02F0A3F9FEF757F902464CF2F013C1F6FF731A604CF2ED13C1F6FF734FF0F8
:4033800001021A7049E04CF2F010C1F6FF704FF47A71FEF725F90346002B3BD04FF0020002F06CFCFEF738F902464CF2F013C1F6FF731A604CF2ED13C1F6FF734FF002029C
:4033C0001A702AE04CF2F010C1F6FF704FF49671FEF706F90346002B1ED0FFF70DFD4CF2E613C1F6FF734FF000021A704CF2EC13C1F6FF734FF001021A704CF2ED13C1F6E3
:40340000FF734FF000021A7007E0FFF7E7FE04E000BF02E000BF00E000BFFFF70FFE80BD80B500AF4CF21523C1F6FF731B78002B1FD14FF0810002F0B1FD4FF0060002F0A2
:40344000ADFD4FF0000002F0A9FD4FF0000002F0A5FD4FF0050002F0A1FD4FF08C0002F09DFD4CF21523C1F6FF734FF001021A7017E04FF0810002F091FD4FF0060002F0F4
:403480008DFD4FF0000002F089FD4FF0000002F085FD4FF0020002F081FD4FF0890002F07DFD80BD80B582B000AF0346FB714CF21223C1F6FF731B78012B11D0022B46D0AC
:4034C000002B5BD14CF21323C1F6FF734FF013021A704CF21423C1F6FF734FF000021A704CF21323C1F6FF731A78FB791344DAB24CF21323C1F6FF731A704CF21423C1F6B8
:40350000FF731B7803F10103DAB24CF21423C1F6FF731A704CF21423C1F6FF731B780E2B0DD94CF21223C1F6FF731B7803F10103DAB24CF21223C1F6FF731A701EE04CF275
:403540001223C1F6FF734FF001021A7016E04CF21223C1F6FF734FF000021A704CF21323C1F6FF731B78FA799A4204D1FFF758FF4FF0010304E04FF0FF0301E04FF0000398
:403580005BB2184607F10807BD4680BD80B500AF4FF0820002F002FD4FF0060002F0FEFC4FF0000002F0FAFC4FF0000002F0F6FC4FF0020002F0F2FC4FF08A0002F0EEFC82
:4035C00080BD00BF80B582B000AF0346FB714CF20B23C1F6FF731B78062B00F2358101A252F823F00136000057360000A9360000F136000043370000433700007937000095
:403600004CF20C23C1F6FF734FF00B021A70FB794FEA03239AB24CF20E23C1F6FF731A804CF20C23C1F6FF731A78FB791344DAB24CF20C23C1F6FF731A704CF20B23C1F60B
:40364000FF731B7803F10103DAB24CF20B23C1F6FF731A70F8E0FA794CF20E23C1F6FF731B8842EA03039AB24CF20E23C1F6FF731A804CF20C23C1F6FF731A78FB79134479
:40368000DAB24CF20C23C1F6FF731A704CF20B23C1F6FF731B7803F10103DAB24CF20B23C1F6FF731A70CFE0FB794FEA03239AB24CF21023C1F6FF731A804CF20C23C1F66D
:4036C000FF731A78FB791344DAB24CF20C23C1F6FF731A704CF20B23C1F6FF731B7803F10103DAB24CF20B23C1F6FF731A70ABE0FA794CF21023C1F6FF731B8842EA030317
:403700009AB24CF21023C1F6FF731A804CF20C23C1F6FF731A78FB791344DAB24CF20C23C1F6FF731A704CF20B23C1F6FF731B7803F10103DAB24CF20B23C1F6FF731A709F
:4037400082E04CF20C23C1F6FF731A78FB791344DAB24CF20C23C1F6FF731A704CF20B23C1F6FF731B7803F10103DAB24CF20B23C1F6FF731A7067E04CF20B23C1F6FF73A1
:403780004FF000021A704CF20C23C1F6FF731B78FA799A4255D14CF20E23C1F6FF731B881BB2002B12DA4CF20E23C1F6FF731B889BB24FEA43434FEA5343C3F100039AB268
:4037C0004CF2C023C1F6FF731A8009E04CF20E23C1F6FF731A884CF2C023C1F6FF731A804CF21023C1F6FF731B881BB2002B12DA4CF21023C1F6FF731B889BB24FEA434374
:403800004FEA5343C3F100039AB24CF2C223C1F6FF731A8009E04CF21023C1F6FF731A884CF2C223C1F6FF731A804CF20123C1F6FF734FF001021A70FFF7A8FE4FF001038F
:4038400004E04FF0FF0301E04FF000035BB2184607F10807BD4680BD80B582B000AF02F029FB0346002B00F0A38002F0CFFA03467B71FDF7D1FE02464CF20423C1F6FF7312
:403880001A604CF20023C1F6FF734FF000021A704CF20823C1F6FF731B78032B00F29B8001A252F823F000BFB9380000EF380000653900008B3900007B79012B03D07B79B9
:4038C000022B40F08A804CF20923C1F6FF737A791A704CF20823C1F6FF731B7803F10103DAB24CF20823C1F6FF731A707AE04CF20A23C1F6FF737A791A704CF20923C1F600
:40390000FF731B78012B0ED14CF20A23C1F6FF731B78122B07D14CF20823C1F6FF734FF002021A701DE04CF20923C1F6FF731B78022B0ED14CF20A23C1F6FF731B78092B52
:4039400007D14CF20823C1F6FF734FF003021A7007E04CF20823C1F6FF734FF000021A7040E03FE07B791846FFF79CFD0346DBB2BB7197F90630002B31D04CF20823C1F697
:40398000FF734FF000021A702CE07B791846FFF719FE0346DBB2BB7197F90630002B20D04CF20823C1F6FF734FF000021A7019E04CF20420C1F6FF704FF47A71FDF710FE6E
:4039C0000346002B0ED04CF20023C1F6FF734FF001021A7006E000BF04E000BF02E000BF00E000BF07F10807BD4680BD80B400AFFEE700BF054B1C7844F001041C70044BD1
:403A00001A78D2B2034B1A70FCF702FBE8460040F8460040BC76004080B582B000AF4EF60C53CEF2000340F20042C0F2FA521A604EF61453CEF200034EF61452CEF2000208
:403A4000126842F400721A604FF000037B6019E079687B68032B07D87A6840F20003C0F2000353F8223003E043F6ED13C0F200034CF20002C1F6FF7242F821307B6803F1BF
:403A800001037B607B682F2BE2D947F2BC63C4F200031B78DAB24CF2DC53C1F6FF731A704EF60853CEF200034CF20002C1F6FF721A6003F0C7FB4CF20013C1F6FF734FF02D
:403AC00000021A6007F10807BD4680BD80B485B000AF0346FB7145F22013C4F200031B78DBB223F00203FB7345F22013C4F20003FA794FEA4202D2B202F00202F97B42EA40
:403B00000102D2B21A7007F11407BD4680BC704780B500AF4CF21823C1F6FF731B78002B08D100F00BF84CF21823C1F6FF734FF001021A7000F030F880BD00BF80B500AFF5
:403B40004FF0100002F0B8FF4FF000004FF0070103F0A2F84FF0000043F6E561C0F2000103F06AF845F60113C4F2000345F60112C4F200021278D2B242F00602D2B21A7010
:403B80004FF00C0000F0C4F84CF2C423C1F6FF734FF000021A8080BD80B582B000AF02F0D3FF0346FB7144F2AB33C4F2000344F2AB32C4F200021278D2B242F00102D2B2BA
:403BC0001A7044F2BB33C4F2000344F2BB32C4F200021278D2B242F00102D2B21A7044F2A133C4F2000344F2A132C4F200021278D2B242F00102D2B21A7044F2B133C4F28D
:403C0000000344F2B132C4F200021278D2B242F00102D2B21A7045F60313C4F200031B78BB71BB7923F00C03BB71BB7943F00203BB71BB7943F00103BB7145F60313C4F2DE
:403C40000003BA791A7045F60613C4F200034FF018021A7045F60513C4F2000345F60512C4F200021278D2B242F04002D2B21A7045F60513C4F2000345F60512C4F20002D8
:403C80001278D2B202F0DF021A7045F60013C4F200036FF031021A7045F62733C4F2000345F62732C4F200021278D2B242F00802D2B21A7045F60013C4F2000345F6001230
:403CC000C4F200021278D2B242F02002D2B21A704FF0020002F070FF45F60013C4F2000345F60012C4F200021278D2B202F0DF021A704EF28023CEF200034FF001021A6021
:403D0000FB79184602F024FF07F10807BD4680BD80B584B000AF0346FB714CF21923C1F6FF73FA791A70FB790A2B08D00C2B02D0082B08D00BE06FF03A03FB730EE06FF011
:403D40003A03FB730AE06FF03A03FB7306E06FF03A03FB734FF0000002F0FEFE45F60213C4F20003FA7B1A70FB79184600F078F807F11007BD4680BD80B400AF45F60013CD
:403D8000C4F2000345F60012C4F200021278D2B202F0FB021A7045F60013C4F2000345F60012C4F200021278D2B242F00102D2B21A70BD4680BC704780B584B000AF03460A
:403DC000FB7145F60113C4F200031B78DBB203F00103FB73FB7B012B02D0FB79002BF0D0FB7B012B08D14FF0010002F0E5FE45F60113C4F200031B78FB7B184607F11007E9
:403E0000BD4680BD80B483B000AF45F6A033C4F200031B88FB804CF21923C1F6FF731B78082B06D00A2B08D1FB884FEA9303FB8003E0FB884FEA1313FB804CF2C623C1F60F
:403E4000FF731B889BB29BB2FA88C3EB02039BB21BB2184607F10C07BD4680BC704700BF80B584B000AF0346FB71FB790A2B08D00C2B02D0082B08D00BE040F6FF73FB60D6
:403E80000EE040F2FF33FB600AE04FF0FF03FB6006E04FF00003FB604FF0000002F05CFEFB684FF47A7202FB03F3FB60FB6803F5FE6202F10F02002BB8BF13464FEAE323E8
:403EC0009AB24CF2C823C1F6FF731A804CF2C623C1F6FF734FF000021A8007F11007BD4680BD00BF80B400AFBD4680BC704700BF80B582B000AF4FF00003FB7107E0FB799A
:403F0000184603F051F9FB7903F10103FB71FB79052BF4D94CF20D13C1F6FF734FF0FF321A7007F10807BD4680BD00BF80B582B000AF0346FB714CF20D13C1F6FF731B7831
:403F4000FF2B07D04CF20D13C1F6FF731B78184603F02AF9FB79184603F0DEF84CF20D13C1F6FF73FA791A7007F10807BD4680BD80B485B000AF0346FB7145F22013C4F25F
:403F800000031B78DBB223F00403FB7345F22013C4F20003FA794FEA8202D2B202F00402F97B42EA0102D2B21A7007F11407BD4680BC704780B485B000AF0346FB7145F2C9
:403FC0003013C4F200031B78DBB223F04003FB7345F23013C4F20003FA794FEA8212D2B202F04002F97B42EA0102D2B21A7007F11407BD4680BC704780B485B000AF03469B
:40400000FB7145F23013C4F200031B78DBB203F07F03FB7345F23013C4F20003FA794FEAC212D1B2FA7B41EA0202D2B21A7007F11407BD4680BC704780B485B000AF03468C
:40404000FB7145F25013C4F200031B78DBB223F04003FB7345F25013C4F20003FA794FEA8212D2B202F04002F97B42EA0102D2B21A7007F11407BD4680BC704780B485B02F
:4040800000AF0346FB7145F25013C4F200031B78DBB223F02003FB7345F25013C4F20003FA794FEA4212D2B202F02002F97B42EA0102D2B21A7007F11407BD4680BC7047E0
:4040C00080B485B000AF0346FB7145F25013C4F200031B78DBB223F01003FB7345F25013C4F20003FA794FEA0212D2B202F01002F97B42EA0102D2B21A7007F11407BD468A
:4041000080BC704780B500AF4CF21A23C1F6FF731B78002B08D100F095F84CF21A23C1F6FF734FF001021A7000F03CF980BD00BF80B400AF4EF20013CEF200034FF0020223
:404140001A60BD4680BC704780B483B000AF4CF2DC23C1F6FF731B78FB714CF2DC23C1F6FF731B78DBB21A4602F010024CF2DC23C1F6FF731A70FB79184607F10C07BD469A
:4041800080BC704780B483B000AF0B463A600246FA80BB803A684CF2D823C1F6FF731A604CF2E523C1F6FF734FF000021A704CF2E423C1F6FF734FF000021A70FB88DAB20E
:4041C0004CF2DF23C1F6FF731A70BB88DAB24CF2E223C1F6FF731A7007F10C07BD4680BC704700BF80B483B000AF0B463A600246FA80BB803A684CF2D023C1F6FF731A60D3
:404200004CF2E023C1F6FF734FF000021A704CF2CC23C1F6FF734FF000021A70FB88DAB24CF2DE23C1F6FF731A70BB88DAB24CF2E123C1F6FF731A7007F10C07BD4680BC19
:40424000704700BF80B483B000AF44F6D713C4F200034FF000021A7044F6D613C4F2000344F6D612C4F200021278D2B242F00102D2B21A7044F6DB13C4F200034FF00402DD
:404280001A704FF00003FB7111E0FB794FF0010202FA03F3022B06D944F6DB13C4F20003FA791A7006E0FB7903F10103FB71FB79062BEAD944F6D613C4F2000344F6D6121F
:4042C000C4F200021278D2B242F00402D2B21A704CF2DD23C1F6FF734FF070021A704CF2D423C1F6FF734FF071021A704CF2D823C1F6FF734FF000021A604CF2E523C1F65C
:40430000FF734FF000021A704CF2E423C1F6FF734FF000021A704CF2E223C1F6FF734FF000021A704CF2DF23C1F6FF734FF000021A704CF2D023C1F6FF734FF000021A6087
:404340004CF2E023C1F6FF734FF000021A704CF2CC23C1F6FF734FF000021A704CF2E123C1F6FF734FF000021A704CF2DE23C1F6FF734FF000021A7044F6C813C4F20003B0
:4043800044F6C812C4F200021278D2B26FEA42626FEA5262D2B21A7007F10C07BD4680BC704700BF80B582B000AF02F0CDFB0346FB7144F2A533C4F2000344F2A532C4F23C
:4043C00000021278D2B242F00402D2B21A7044F2B533C4F2000344F2B532C4F200021278D2B242F00402D2B21A70FB79184602F0AFFB4FF001004FF0070102F04DFC4FF0F8
:40440000010044F24541C0F2000102F015FC4EF28023CEF200034FF002021A604CF2E323C1F6FF734FF000021A704CF2DC23C1F6FF734FF000021A70FFF77AFE07F10807C8
:40444000BD4680BD80B400AF44F6D713C4F200031B78DAB24CF21B23C1F6FF731A704CF21B23C1F6FF731B7803F00803002B00F02E8144F6D813C4F200031B78DBB24FEAB7
:404480005303DAB24CF21C23C1F6FF731A704CF21C23C1F6FF731A784CF2DD23C1F6FF731B78DBB29A427ED144F6D813C4F200031B78DBB203F00103DBB2002B48D044F601
:4044C000D813C4F200034CF2D822C1F6FF7211684CF2E522C1F6FF721278D2B20A441278D2B21A7044F6D713C4F200034FF014021A704CF2E523C1F6FF731B78DAB24CF256
:40450000E423C1F6FF731A704CF2E423C1F6FF731B78DBB203F10103DAB24CF2E423C1F6FF731A704CF2DC23C1F6FF731B78DBB243F01103DAB24CF2DC23C1F6FF731A706E
:404540004CF2E323C1F6FF734FF008021A7021E344F6D713C4F200034FF010021A704CF2DC23C1F6FF731B78DBB243F01203DAB24CF2DC23C1F6FF731A704CF2E323C1F6FA
:40458000FF734FF001021A7044F6D613C4F2000344F6D612C4F200021278D2B242F01002D2B21A70F6E24CF21C23C1F6FF731A784CF2D423C1F6FF731B78DBB29A427ED1EE
:4045C00044F6D813C4F200031B78DBB203F00103DBB2002B48D044F6D813C4F200034CF2D022C1F6FF7211684CF2E022C1F6FF721278D2B20A441278D2B21A7044F6D713C7
:40460000C4F200034FF014021A704CF2E023C1F6FF731B78DAB24CF2CC23C1F6FF731A704CF2CC23C1F6FF731B78DBB203F10103DAB24CF2CC23C1F6FF731A704CF2DC2362
:40464000C1F6FF731B78DBB243F01403DAB24CF2DC23C1F6FF731A704CF2E323C1F6FF734FF018021A7095E244F6D713C4F200034FF010021A704CF2DC23C1F6FF731B78B3
:40468000DBB243F01803DAB24CF2DC23C1F6FF731A704CF2E323C1F6FF734FF011021A7044F6D613C4F2000344F6D612C4F200021278D2B242F01002D2B21A706AE244F6BE
:4046C000D713C4F200034FF000021A7062E24CF21B23C1F6FF731B7803F00103DBB2002B00F058824CF2E323C1F6FF731B78DBB203F1FF33172B00F2318201A252F823F0BD
:40470000614700005D4B00005D4B0000E74700005D4B00005D4B00005D4B0000794800005D4B00005D4B00005D4B00005D4B00005D4B00005D4B00005D4B00005D4B00005A
:404740005F4900005D4B00005D4B0000E54900005D4B00005D4B00005D4B0000774A000044F6D813C4F200031B78DAB24CF21C23C1F6FF731A704CF21C23C1F6FF731A78F5
:404780004CF2DF23C1F6FF731B78DBB29A4222D244F6D713C4F200034FF010021A704CF21C23C1F6FF731A784CF2E523C1F6FF731A704CF21C23C1F6FF731A784CF2E4233A
:4047C000C1F6FF731A704CF2E323C1F6FF734FF004021A70DEE144F6D713C4F200034FF000021A70D6E14CF2E423C1F6FF731B78DAB24CF2E223C1F6FF731B78DBB29A42B7
:4048000032D244F6D813C4F200031B78DAB24CF21C23C1F6FF731A7044F6D713C4F200034FF010021A704CF2D823C1F6FF731A684CF2E423C1F6FF731B78DBB21A444CF281
:404840001C23C1F6FF731B7813704CF2E423C1F6FF731B78DBB203F10103DAB24CF2E423C1F6FF731A7095E144F6D713C4F200034FF000021A708DE14CF21B23C1F6FF737F
:404880001B7803F00203002B45D14CF2E423C1F6FF731B78DAB24CF2DF23C1F6FF731B78DBB29A4228D244F6D813C4F200034CF2D822C1F6FF7211684CF2E422C1F6FF721D
:4048C0001278D2B20A441278D2B21A7044F6D713C4F200034FF004021A704CF2E423C1F6FF731B78DBB203F10103DAB24CF2E423C1F6FF731A704DE144F6D813C4F2000302
:404900004FF0FF321A7044F6D713C4F200034FF004021A703EE144F6D813C4F200034FF0FF321A7044F6D713C4F200034FF000021A704CF2DC23C1F6FF731B78DBB21A464C
:4049400002F0EF024CF2DC23C1F6FF731A704CF2E323C1F6FF734FF000021A701AE144F6D813C4F200031B78DAB24CF21C23C1F6FF731A704CF21C23C1F6FF731A784CF28E
:40498000DE23C1F6FF731B78DBB29A4222D244F6D713C4F200034FF010021A704CF21C23C1F6FF731A784CF2E023C1F6FF731A704CF21C23C1F6FF731A784CF2CC23C1F6DD
:4049C000FF731A704CF2E323C1F6FF734FF014021A70DFE044F6D713C4F200034FF000021A70D7E04CF2CC23C1F6FF731B78DAB24CF2E123C1F6FF731B78DBB29A4232D271
:404A000044F6D813C4F200031B78DAB24CF21C23C1F6FF731A7044F6D713C4F200034FF010021A704CF2D023C1F6FF731A684CF2CC23C1F6FF731B78DBB21A444CF21C2364
:404A4000C1F6FF731B7813704CF2CC23C1F6FF731B78DBB203F10103DAB24CF2CC23C1F6FF731A7096E044F6D713C4F200034FF000021A708EE04CF21B23C1F6FF731B7859
:404A800003F00203002B45D14CF2CC23C1F6FF731B78DAB24CF2DE23C1F6FF731B78DBB29A4228D244F6D813C4F200034CF2D022C1F6FF7211684CF2CC22C1F6FF7212785D
:404AC000D2B20A441278D2B21A7044F6D713C4F200034FF004021A704CF2CC23C1F6FF731B78DBB203F10103DAB24CF2CC23C1F6FF731A704EE044F6D813C4F200034FF07B
:404B0000FF321A7044F6D713C4F200034FF004021A703FE044F6D813C4F200034FF0FF321A7044F6D713C4F200034FF004021A704CF2DC23C1F6FF731B78DBB21A4602F093
:404B4000EF024CF2DC23C1F6FF731A704CF2E323C1F6FF734FF000021A701BE04CF2E323C1F6FF734FF000021A704CF2E523C1F6FF734FF000021A704CF2E423C1F6FF7341
:404B80004FF000021A7044F6D713C4F200034FF000021A7044F6D713C4F200031B78DBB203F02003002B21D04CF2DC23C1F6FF731B78DBB21A4602F0EF024CF2DC23C1F696
:404BC000FF731A704CF2E323C1F6FF734FF000021A7044F6D613C4F2000344F6D612C4F200021278D2B202F0EF021A70BD4680BC704700BF80B500AF4CF21D23C1F6FF7310
:404C00001B78002B08D100F00BF84CF21D23C1F6FF734FF001021A7000F044F880BD00BF80B500AF4FF0070044F63971C0F2000102F002F84FF007004FF0070102F02CF8FF
:404C400046F28B53C4F200034FF072021A7046F28453C4F200034FF020021A704FF0080045F22501C0F2000101F0E6FF4FF008004FF0070102F010F846F22453C4F2000358
:404C80004FF007021A7046F23453C4F200034FF048021A7046F28553C4F200034FF002021A7080BD80B582B000AF01F04DFF0346FB7146F29B53C4F2000346F29B52C4F202
:404CC00000021278D2B242F02002D2B21A7046F29453C4F2000346F29452C4F200021278D2B242F01002D2B21A704EF20013CEF200034FF080021A6046F29553C4F200030A
:404D000046F29552C4F200021278D2B242F01002D2B21A704EF20013CEF200034FF480721A60FB79184601F013FF07F10807BD4680BD00BF80B400AF4EF20013CEF20003A3
:404D40004FF080021A60BD4680BC704780B400AF4EF28013CEF200034FF080021A60BD4680BC704780B582B000AFFFF7EFFF4CF22023C1F6FF731B78BB714CF22123C1F6BC
:404D8000FF731B78FB714CF22223C1F6FF731B78DBB2002B03D1BA79FB799A4226D0BA794CF21C33C1F6FF739B5C7B71BB7903F10103BB71BB79FF2B02D14FF00003BB717B
:404DC0004CF22023C1F6FF73BA791A704CF22223C1F6FF731B78DBB2002B0ED04CF22223C1F6FF734FF000021A7007E046F24B53C4F200031B787B7100E000BFFFF79AFFDD
:404E00007B79184607F10807BD4680BD80B483B000AF46F26453C4F200031B78DBB203F07F03FB714CF22323C1F6FF731B78DBB2002B0CD0FB796FEA43636FEA5363FB7158
:404E40004CF22323C1F6FF734FF000021A70FB79184607F10C07BD4680BC704798B500AFFFF7D4FF03464FEA03239CB2FFF77AFF0346224642EA03039BB29BB2184698BD8D
:404E800080B582B000AFFFF761FF4CF22023C1F6FF731B78DAB24CF22123C1F6FF731B78DBB29A420FD14CF22223C1F6FF731B78DBB2002B03D04FF0FF33FB7133E04FF03D
:404EC0000003FB712FE04CF22023C1F6FF731B78DAB24CF22123C1F6FF731B78DBB29A420FD24CF22123C1F6FF731B78DAB24CF22023C1F6FF731B78DBB2C3EB0203FB7130
:404F000011E04CF22123C1F6FF731B78DAB24CF22023C1F6FF731B78DBB2C3EB0203DBB203F1FF33FB71FFF705FFFB79184607F10807BD4680BD00BF80B483B000AF4FF0F3
:404F40000003FB7146F26453C4F200031B78BB715EE04CF22123C1F6FF731B78DBB21A4646F24B53C4F200031B78D9B24CF21C33C1F6FF7399544FF00103FB71FB79002B54
:404F800040D04CF22223C1F6FF731B78DBB2002B06D04CF22323C1F6FF734FF001021A704CF22123C1F6FF731B78DBB203F10103DAB24CF22123C1F6FF731A704CF2212395
:404FC000C1F6FF731B78DBB2FF2B06D14CF22123C1F6FF734FF000021A704CF22123C1F6FF731B78DAB24CF22023C1F6FF731B78DBB29A4206D14CF22223C1F6FF734FF0BF
:4050000001021A7046F26453C4F200031B78BB71BB7903F02003002B9BD107F10C07BD4680BC704780B400AF2EE04CF21E23C1F6FF731B78DBB2312B06D94CF21E23C1F670
:40504000FF734FF000021A7046F24553C4F200034CF21E22C1F6FF721278D2B211464CF2E822C1F6FF72525CD2B21A704CF21E23C1F6FF731B78DBB203F10103DAB24CF2A9
:405080001E23C1F6FF731A704CF21E23C1F6FF731B78DAB24CF21F23C1F6FF731B789A4209D046F26553C4F200031B78DBB203F00403002BB9D0BD4680BC704780B500AFF3
:4050C0004CF22523C1F6FF731B78002B08D100F00BF84CF22523C1F6FF734FF001021A7000F044F880BD00BF80B500AF4FF0030045F20951C0F2000101F09EFD4FF003009C
:405100004FF0070101F0C8FD46F28F43C4F200034FF072021A7046F28C43C4F200034FF020021A704FF0040045F2F551C0F2000101F082FD4FF004004FF0070101F0ACFDC0
:4051400046F22643C4F200034FF007021A7046F23643C4F200034FF048021A7046F28B43C4F200034FF002021A7080BD80B582B000AF01F0E9FC0346FB7146F29F43C4F24C
:40518000000346F29F42C4F200021278D2B242F02002D2B21A7046F29C43C4F2000346F29C42C4F200021278D2B242F01002D2B21A704EF20013CEF200034FF008021A60D4
:4051C00046F29B43C4F2000346F29B42C4F200021278D2B242F01002D2B21A704EF20013CEF200034FF010021A60FB79184601F0AFFC07F10807BD4680BD00BF80B400AF7B
:405200004EF20013CEF200034FF008021A60BD4680BC704780B400AF4EF28013CEF200034FF008021A60BD4680BC704780B582B000AFFFF7EFFF4CF22823C1F6FF731B782E
:40524000BB714CF22923C1F6FF731B78FB714CF22A23C1F6FF731B78DBB2002B03D1BA79FB799A4226D0BA794CF23C43C1F6FF739B5C7B71BB7903F10103BB71BB791F2B32
:4052800002D94FF00003BB714CF22823C1F6FF73BA791A704CF22A23C1F6FF731B78DBB2002B0ED04CF22A23C1F6FF734FF000021A7007E046F24B43C4F200031B787B71F5
:4052C00000E000BFFFF79AFF7B79184607F10807BD4680BD80B582B000AFFFF79BFF4CF22823C1F6FF731B78DAB24CF22923C1F6FF731B78DBB29A420FD14CF22A23C1F69F
:40530000FF731B78DBB2002B03D04FF02003FB7133E04FF00003FB712FE04CF22823C1F6FF731B78DAB24CF22923C1F6FF731B78DBB29A420FD24CF22923C1F6FF731B7898
:40534000DAB24CF22823C1F6FF731B78DBB2C3EB0203FB7111E04CF22923C1F6FF731B78DAB24CF22823C1F6FF731B78DBB2C3EB0203DBB203F12003FB71FFF73FFFFB79B0
:40538000184607F10807BD4680BD00BF80B400AF4EF20013CEF200034FF010021A60BD4680BC704780B400AF4EF28013CEF200034FF010021A60BD4680BC704780B582B02E
:4053C00000AF0346FB714CF22523C1F6FF731B78002B48D0FFF7E6FF4CF22623C1F6FF731B78DAB24CF22723C1F6FF731B789A4210D146F26B43C4F200031B78DBB203F067
:405400000403002B06D146F24443C4F20003FA791A7026E04CF22723C1F6FF731B781F2B06D94CF22723C1F6FF734FF000021A704CF22723C1F6FF731B781A464CF21C43BE
:40544000C1F6FF73F97999544CF22723C1F6FF731B7803F10103DAB24CF22723C1F6FF731A70FFF793FF07F10807BD4680BD00BF80B582B000AFFFF795FF4CF22623C1F635
:40548000FF731B78DAB24CF22723C1F6FF731B789A4203D14FF00003FB712CE04CF22623C1F6FF731B78DAB24CF22723C1F6FF731B789A420ED24CF22723C1F6FF731A789B
:4054C0004CF22623C1F6FF731B78DBB2C3EB0203FB7110E04CF22723C1F6FF731A784CF22623C1F6FF731B78DBB2C3EB0203DBB203F12003FB71FFF749FFFB79184607F1EF
:405500000807BD4680BD00BF80B483B000AF4FF00003FB7146F26C43C4F200031B78BB715EE04CF22923C1F6FF731B78DBB21A4646F24B43C4F200031B78D9B24CF23C436F
:40554000C1F6FF7399544FF00103FB71FB79002B40D04CF22A23C1F6FF731B78DBB2002B06D04CF22B23C1F6FF734FF001021A704CF22923C1F6FF731B78DBB203F1010396
:40558000DAB24CF22923C1F6FF731A704CF22923C1F6FF731B78DBB21F2B06D94CF22923C1F6FF734FF000021A704CF22923C1F6FF731B78DAB24CF22823C1F6FF731B7891
:4055C000DBB29A4206D14CF22A23C1F6FF734FF001021A7046F26C43C4F200031B78BB71BB7903F02003002B9BD107F10C07BD4680BC704780B400AF2EE04CF22623C1F67B
:40560000FF731B78DBB21F2B06D94CF22623C1F6FF734FF000021A7046F24443C4F200034CF22622C1F6FF721278D2B211464CF21C42C1F6FF72525CD2B21A704CF22623A2
:40564000C1F6FF731B78DBB203F10103DAB24CF22623C1F6FF731A704CF22623C1F6FF731B78DAB24CF22723C1F6FF731B789A4209D046F26B43C4F200031B78DBB203F0A9
:405680000403002BB9D0BD4680BC704780B483B000AF0346FB7146F27D43C4F20003FA791A7007F10C07BD4680BC704780B500AF4CF22D23C1F6FF731B78002B08D100F09D
:4056C0000BF84CF22D23C1F6FF734FF001021A7000F044F880BD00BF80B500AF4FF0050045F6F921C0F2000101F0A6FA4FF005004FF0070101F0D0FA46F28943C4F2000338
:405700004FF072021A7046F28E43C4F200034FF020021A704FF0060045F6E531C0F2000101F08AFA4FF006004FF0070101F0B4FA46F22743C4F200034FF007021A7046F231
:405740003743C4F200034FF048021A7046F28753C4F200034FF002021A7080BD80B582B000AF01F0F1F90346FB7146F29943C4F2000346F29942C4F200021278D2B242F090
:405780002002D2B21A7046F29E43C4F2000346F29E42C4F200021278D2B242F01002D2B21A704EF20013CEF200034FF020021A6046F29753C4F2000346F29752C4F2000212
:4057C0001278D2B242F01002D2B21A704EF20013CEF200034FF040021A60FB79184601F0B7F907F10807BD4680BD00BF80B400AF4EF20013CEF200034FF020021A60BD46E8
:4058000080BC704780B400AF4EF28013CEF200034FF020021A60BD4680BC704780B582B000AFFFF7EFFF4CF23023C1F6FF731B78BB714CF23123C1F6FF731B78FB714CF2C0
:405840003223C1F6FF731B78DBB2002B03D1BA79FB799A4226D0BA794CF27C43C1F6FF739B5C7B71BB7903F10103BB71BB791F2B02D94FF00003BB714CF23023C1F6FF73FD
:40588000BA791A704CF23223C1F6FF731B78DBB2002B0ED04CF23223C1F6FF734FF000021A7007E046F24953C4F200031B787B7100E000BFFFF79AFF7B79184607F1080745
:4058C000BD4680BD80B582B000AFFFF79BFF4CF23023C1F6FF731B78DAB24CF23123C1F6FF731B78DBB29A420FD14CF23223C1F6FF731B78DBB2002B03D04FF02003FB71AA
:4059000033E04FF00003FB712FE04CF23023C1F6FF731B78DAB24CF23123C1F6FF731B78DBB29A420FD24CF23123C1F6FF731B78DAB24CF23023C1F6FF731B78DBB2C3EBC4
:405940000203FB7111E04CF23123C1F6FF731B78DAB24CF23023C1F6FF731B78DBB2C3EB0203DBB203F12003FB71FFF73FFFFB79184607F10807BD4680BD00BF80B400AF5F
:405980004EF20013CEF200034FF040021A60BD4680BC704780B400AF4EF28013CEF200034FF040021A60BD4680BC704780B582B000AF0346FB714CF22D23C1F6FF731B7861
:4059C000002B48D0FFF7E6FF4CF22E23C1F6FF731B78DAB24CF22F23C1F6FF731B789A4210D146F26753C4F200031B78DBB203F00403002B06D146F24753C4F20003FA79E4
:405A00001A7026E04CF22F23C1F6FF731B781F2B06D94CF22F23C1F6FF734FF000021A704CF22F23C1F6FF731B781A464CF25C43C1F6FF73F97999544CF22F23C1F6FF7313
:405A40001B7803F10103DAB24CF22F23C1F6FF731A70FFF793FF07F10807BD4680BD00BF80B582B000AFFFF795FF4CF22E23C1F6FF731B78DAB24CF22F23C1F6FF731B787B
:405A80009A4203D14FF00003FB712CE04CF22E23C1F6FF731B78DAB24CF22F23C1F6FF731B789A420ED24CF22F23C1F6FF731A784CF22E23C1F6FF731B78DBB2C3EB0203C7
:405AC000FB7110E04CF22F23C1F6FF731A784CF22E23C1F6FF731B78DBB2C3EB0203DBB203F12003FB71FFF749FFFB79184607F10807BD4680BD00BF80B483B000AF4FF0F9
:405B00000003FB7146F26E43C4F200031B78BB715EE04CF23123C1F6FF731B78DBB21A4646F24953C4F200031B78D9B24CF27C43C1F6FF7399544FF00103FB71FB79002B10
:405B400040D04CF23223C1F6FF731B78DBB2002B06D04CF23323C1F6FF734FF001021A704CF23123C1F6FF731B78DBB203F10103DAB24CF23123C1F6FF731A704CF2312379
:405B8000C1F6FF731B78DBB21F2B06D94CF23123C1F6FF734FF000021A704CF23123C1F6FF731B78DAB24CF23023C1F6FF731B78DBB29A4206D14CF23223C1F6FF734FF08B
:405BC00001021A7046F26E43C4F200031B78BB71BB7903F02003002B9BD107F10C07BD4680BC704780B400AF2EE04CF22E23C1F6FF731B78DBB21F2B06D94CF22E23C1F69D
:405C0000FF734FF000021A7046F24753C4F200034CF22E22C1F6FF721278D2B211464CF25C42C1F6FF72525CD2B21A704CF22E23C1F6FF731B78DBB203F10103DAB24CF227
:405C40002E23C1F6FF731A704CF22E23C1F6FF731B78DAB24CF22F23C1F6FF731B789A4209D046F26753C4F200031B78DBB203F00403002BB9D0BD4680BC704780B483B072
:405C800000AF0346FB7146F27443C4F20003FA791A7007F10C07BD4680BC704780B500AF4CF23523C1F6FF731B78002B08D100F00BF84CF23523C1F6FF734FF001021A7022
:405CC00000F044F880BD00BF80B500AF4FF0090046F25101C0F2000100F0AEFF4FF009004FF0070100F0D8FF46F28653C4F200034FF072021A7046F28543C4F200034FF021
:405D000020021A704FF00A0046F23D11C0F2000100F092FF4FF00A004FF0070100F0BCFF46F22E43C4F200034FF007021A7046F23E43C4F200034FF048021A7046F28A43BB
:405D4000C4F200034FF002021A7080BD80B582B000AF00F0F9FE0346FB7146F29653C4F2000346F29652C4F200021278D2B242F02002D2B21A7046F29543C4F2000346F28B
:405D80009542C4F200021278D2B242F01002D2B21A704EF20013CEF200034FF400721A6046F29A43C4F2000346F29A42C4F200021278D2B242F01002D2B21A704EF2001362
:405DC000CEF200034FF480621A60FB79184600F0BFFE07F10807BD4680BD00BF80B400AF4EF20013CEF200034FF400721A60BD4680BC704780B400AF4EF28013CEF2000325
:405E00004FF400721A60BD4680BC704780B582B000AFFFF7EFFF4CF23823C1F6FF731B78BB714CF23923C1F6FF731B78FB714CF23A23C1F6FF731B78DBB2002B03D1BA79EA
:405E4000FB799A4226D0BA794CF29C43C1F6FF739B5C7B71BB7903F10103BB71BB791F2B02D94FF00003BB714CF23823C1F6FF73BA791A704CF23A23C1F6FF731B78DBB2FE
:405E8000002B0ED04CF23A23C1F6FF734FF000021A7007E046F24543C4F200031B787B7100E000BFFFF79AFF7B79184607F10807BD4680BD80B582B000AFFFF79BFF4CF2C0
:405EC0003823C1F6FF731B78DAB24CF23923C1F6FF731B78DBB29A420FD14CF23A23C1F6FF731B78DBB2002B03D04FF02003FB7133E04FF00003FB712FE04CF23823C1F690
:405F0000FF731B78DAB24CF23923C1F6FF731B78DBB29A420FD24CF23923C1F6FF731B78DAB24CF23823C1F6FF731B78DBB2C3EB0203FB7111E04CF23923C1F6FF731B7806
:405F4000DAB24CF23823C1F6FF731B78DBB2C3EB0203DBB203F12003FB71FFF73FFFFB79184607F10807BD4680BD00BF80B400AF4EF20013CEF200034FF480621A60BD4649
:405F800080BC704780B400AF4EF28013CEF200034FF480621A60BD4680BC704780B582B000AF0346FB714CF23523C1F6FF731B78002B48D0FFF7E6FF4CF23623C1F6FF73E5
:405FC0001B78DAB24CF23723C1F6FF731B789A4210D146F26A43C4F200031B78DBB203F00403002B06D146F24A43C4F20003FA791A7026E04CF23723C1F6FF731B781F2B98
:4060000006D94CF23723C1F6FF734FF000021A704CF23723C1F6FF731B781A464CF2BC43C1F6FF73F97999544CF23723C1F6FF731B7803F10103DAB24CF23723C1F6FF73E3
:406040001A70FFF793FF07F10807BD4680BD00BF80B483B000AF4FF00003FB7146F26543C4F200031B78BB715EE04CF23923C1F6FF731B78DBB21A4646F24543C4F20003F2
:406080001B78D9B24CF29C43C1F6FF7399544FF00103FB71FB79002B40D04CF23A23C1F6FF731B78DBB2002B06D04CF23B23C1F6FF734FF001021A704CF23923C1F6FF73F8
:4060C0001B78DBB203F10103DAB24CF23923C1F6FF731A704CF23923C1F6FF731B78DBB21F2B06D94CF23923C1F6FF734FF000021A704CF23923C1F6FF731B78DAB24CF2F5
:406100003823C1F6FF731B78DBB29A4206D14CF23A23C1F6FF734FF001021A7046F26543C4F200031B78BB71BB7903F02003002B9BD107F10C07BD4680BC704780B400AF5B
:406140002EE04CF23623C1F6FF731B78DBB21F2B06D94CF23623C1F6FF734FF000021A7046F24A43C4F200034CF23622C1F6FF721278D2B211464CF2BC42C1F6FF72525CCA
:40618000D2B21A704CF23623C1F6FF731B78DBB203F10103DAB24CF23623C1F6FF731A704CF23623C1F6FF731B78DAB24CF23723C1F6FF731B789A4209D046F26A43C4F2A0
:4061C00000031B78DBB203F00403002BB9D0BD4680BC704780B500AF4CF23E23C1F6FF731B78002B08D100F00BF84CF23E23C1F6FF734FF001021A7000F028F880BD00BF02
:4062000080B500AF4FF0020046F27D31C0F2000100F012FD4FF002004FF0070100F03CFD46F22843C4F200034FF007021A7046F23843C4F200034FF048021A7046F2885330
:40624000C4F200034FF002021A7080BD80B582B000AF00F079FC0346FB7146F29853C4F2000346F29852C4F200021278D2B242F01002D2B21A704EF20013CEF200034FF0C0
:4062800004021A6000F036FCFB79184600F060FC07F10807BD4680BD80B400AF4EF20013CEF200034FF004021A60BD4680BC704780B400AF4EF28013CEF200034FF004026B
:4062C0001A60BD4680BC704780B582B000AF0346FB714CF23E23C1F6FF731B78002B48D0FFF7E6FF4CF24023C1F6FF731B889AB24CF24223C1F6FF731B889A4210D146F2CD
:406300006853C4F200031B78DBB203F00403002B06D146F24853C4F20003FA791A7026E04CF24223C1F6FF731B88FF2B06D94CF24223C1F6FF734FF000021A804CF242237C
:40634000C1F6FF731B881A464CF2DC43C1F6FF73F97999544CF24223C1F6FF731B8803F101039AB24CF24223C1F6FF731A80FFF793FF07F10807BD4680BD00BF80B400AF82
:406380002EE04CF24023C1F6FF731B889BB2FF2B06D94CF24023C1F6FF734FF000021A8046F24853C4F200034CF24022C1F6FF72128892B211464CF2DC42C1F6FF72525CAC
:4063C000D2B21A704CF24023C1F6FF731B889BB203F101039AB24CF24023C1F6FF731A804CF24023C1F6FF731B889AB24CF24223C1F6FF731B889A4209D046F26853C4F2A7
:4064000000031B78DBB203F00403002BB9D0BD4680BC704780B500AF4CF24623C1F6FF731B78002B08D100F00BF84CF24623C1F6FF734FF001021A7000F088F880BD00BF4F
:4064400080B582B000AF44F60073C4F2000344F60072C4F200021278D2B242F00202D2B21A7044F60173C4F200031B78DBB223F00E03FB7144F60173C4F20003FA7942F0C7
:406480000202D2B21A7044F60A73C4F2000344F60A72C4F200021278D2B202F0CF021A7044F60A73C4F2000344F60A72C4F200021278D2B242F03002D2B21A7044F60A737C
:4064C000C4F2000344F60A72C4F200021278D2B202F0F0021A7044F60A73C4F2000344F60A72C4F200021278D2B242F00F02D2B21A7043F2AF6000F059F84FF0000000F008
:4065000065F84FF0000000F071F844F2A333C4F2000344F2A332C4F200021278D2B242F00102D2B21A7044F60173C4F2000344F60172C4F200021278D2B242F00102D2B2FA
:406540001A7007F10807BD4680BD00BF80B400AF44F2A333C4F2000344F2A332C4F200021278D2B242F00102D2B21A7044F2B333C4F2000344F2B332C4F200021278D2B219
:4065800042F00102D2B21A7044F60073C4F2000344F60072C4F200021278D2B242F00102D2B21A70BD4680BC704700BF80B483B000AF0346FB8044F60273C4F20003FA8804
:4065C0001A8007F10C07BD4680BC704780B483B000AF0346FB8044F60473C4F20003FA881A8007F10C07BD4680BC704780B483B000AF0346FB7144F60873C4F20003FA79F3
:406600001A7007F10C07BD4680BC704780B500AF4CF24723C1F6FF731B78002B08D100F00BF84CF24723C1F6FF734FF001021A7000F088F880BD00BF80B582B000AF44F637
:406640000C73C4F2000344F60C72C4F200021278D2B242F00202D2B21A7044F60D73C4F200031B78DBB223F00E03FB7144F60D73C4F20003FA7942F00202D2B21A7044F699
:406680001673C4F2000344F61672C4F200021278D2B202F0CF021A7044F61673C4F2000344F61672C4F200021278D2B242F03002D2B21A7044F61673C4F2000344F616720F
:4066C000C4F200021278D2B202F0F0021A7044F61673C4F2000344F61672C4F200021278D2B242F00F02D2B21A7043F2AF6000F059F84FF0000000F065F84FF0000000F0D1
:4067000071F844F2A333C4F2000344F2A332C4F200021278D2B242F00202D2B21A7044F60D73C4F2000344F60D72C4F200021278D2B242F00102D2B21A7007F10807BD46D7
:4067400080BD00BF80B400AF44F2A333C4F2000344F2A332C4F200021278D2B242F00202D2B21A7044F2B333C4F2000344F2B332C4F200021278D2B242F00202D2B21A7066
:4067800044F60C73C4F2000344F60C72C4F200021278D2B242F00102D2B21A70BD4680BC704700BF80B483B000AF0346FB8044F60E73C4F20003FA881A8007F10C07BD4679
:4067C00080BC704780B483B000AF0346FB8044F61073C4F20003FA881A8007F10C07BD4680BC704780B483B000AF0346FB7144F61473C4F20003FA791A7007F10C07BD46E9
:4068000080BC704780B500AF4CF24823C1F6FF731B78002B08D100F00BF84CF24823C1F6FF734FF001021A7000F088F880BD00BF80B582B000AF44F61873C4F2000344F64D
:406840001872C4F200021278D2B242F00202D2B21A7044F61973C4F200031B78DBB223F00E03FB7144F61973C4F20003FA7942F00202D2B21A7044F62273C4F2000344F65D
:406880002272C4F200021278D2B202F0CF021A7044F62273C4F2000344F62272C4F200021278D2B242F03002D2B21A7044F62273C4F2000344F62272C4F200021278D2B287
:4068C00002F0F0021A7044F62273C4F2000344F62272C4F200021278D2B242F00F02D2B21A7043F2AF6000F059F84FF0000000F065F84FF0000000F071F844F2A333C4F252
:40690000000344F2A332C4F200021278D2B242F00402D2B21A7044F61973C4F2000344F61972C4F200021278D2B242F00102D2B21A7007F10807BD4680BD00BF80B400AF07
:4069400044F2A333C4F2000344F2A332C4F200021278D2B242F00402D2B21A7044F2B333C4F2000344F2B332C4F200021278D2B242F00402D2B21A7044F61873C4F20003C1
:4069800044F61872C4F200021278D2B242F00102D2B21A70BD4680BC704700BF80B483B000AF0346FB8044F61A73C4F20003FA881A8007F10C07BD4680BC704780B483B077
:4069C00000AF0346FB8044F61C73C4F20003FA881A8007F10C07BD4680BC704780B483B000AF0346FB7144F62073C4F20003FA791A7007F10C07BD4680BC704780B500AF52
:406A00004FF0030000F048F880BD00BF80B400AF45F67703C4F2000345F67702C4F200021278D2B242F06002D2B21A7044F2A433C4F2000344F2A432C4F200021278D2B2E3
:406A400042F00102D2B21A7044F2B433C4F2000344F2B432C4F200021278D2B242F00102D2B21A70BD4680BC704700BF80B500AF4CF24923C1F6FF731B78002B08D14CF297
:406A80004923C1F6FF734FF001021A70FFF7B6FFFFF7BCFF80BD00BF80B582B000AF0346FB71FB79032B03D04FF0000000F054F807F10807BD4680BD80B483B000AF0346BC
:406AC000FB7144F20213C4F2000344F20212C4F200021278D2B21146FA79D2B202F0F80241EA0202D2B2D2B21A7007F10C07BD4680BC704780B400AF44F2A233C4F2000373
:406B000044F2A232C4F200021278D2B242F00202D2B21A7044F2B233C4F2000344F2B232C4F200021278D2B242F00202D2B21A70BD4680BC704700BF0230800803D000BF48
:406B400001380046FCD17047EFF3108072B6704780F31088704700BF80B483B000AF0346FB7101BE07F10C07BD4680BC704700BF80B582B000AF78600BE04CF21C13C1F6F9
:406B8000FF731B681846FFF7D7FF7B68A3F500437B607B68B3F5004FEFD84CF21413C1F6FF731B687A6802FB03F31846FFF7C4FF07F10807BD4680BD80B582B000AF0346D9
:406BC000FB80FA884CF21813C1F6FF731B7803FB02F31846FFF7B0FF07F10807BD4680BD80B584B000AF03463960FB714EF60853CEF200031B68FB60FB790F2B03D94FF0C7
:406C00000000FFF7A9FFFB7903F00F034FEA8302FB6813441B68BB60FB7903F00F034FEA8302FB6813443A681A60BB68184607F11007BD4680BD00BF80B584B000AF03462A
:406C40003960FB714EF60853CEF200031B68FB60FB791F2B03D94FF00000FFF77DFFFB7903F01F0303F110034FEA8302FB6813441B68BB60FB7903F01F0303F110034FEA15
:406C80008302FB6813443A681A60BB68184607F11007BD4680BD00BF80B582B000AF02460B46FA71BB71BB79072B03D94FF00000FFF752FFFB791F2B03D94FF00000FFF70D
:406CC0004BFFFB7903F01F0303F1604303F56443BA794FEA4212D2B21A7007F10807BD4680BD00BF80B485B000AF0346FB7145F20013C4F200031B78DBB223F00103FB7342
:406D000045F20013C4F20003FA7902F00102F97B42EA0102D2B21A7007F11407BD4680BC704700BF80B400AF45F20113C4F200031B78DBB203F001031846BD4680BC70471D
:406D400080B485B000AF786039607B68BB604FF00003FB6009E0BA68FB6813444FF000021A70FB6803F10103FB60FA683B689A42F1D307F11407BD4680BC704780B489B08E
:406D800000AFF860B9607A60FB687B61BB68BB614FF00003FB610BE07A69FB691344B969FA690A4412781A70FB6903F10103FB61FA697B689A42EFD307F12407BD4680BC4F
:406DC000704700BF80B582B000AF7860396078684FF000013A6801F013FF07F10807BD4680BD00BF80B584B000AFF860B9607A60F868B9687A6801F03BFE07F11007BD46C9
:406E000080BD00BF80B487B000AF786039604FF00003FB604FF00003BB602CE0BB684FEA83027B6813441B683B613B69FB753B6923F0FF033B6117E0FB684FEA43023B68A7
:406E400013441B781A463B691344FA684FEA42013A680A4452781A70FB6803F10103FB60FB7D03F1FF33FB75FB7D002BE4D1BB6803F10103BB60BB68272BCFD907F11C0721
:406E8000BD4680BC704700BF80B500AF44F28003C4F200034FF017021A8044F28203C4F200034FF019021A7044F28403C4F200034FF019021A8044F28603C4F200034FF05C
:406EC00019021A7044F28803C4F200034FF01D021A8044F28A03C4F200034FF019021A7044F28C03C4F200034FF0EF021A8044F28E03C4F200034FF019021A7044F29003A6
:406F0000C4F200034FF49C721A8044F29203C4F200034FF019021A7044F20010C4F2000040F63871C4F600014FF00402FFF75AFF44F20033C4F200034FF002021A7044F2F6
:406F40000003C4F200034FF008021A7044F21223C4F200034FF019021A7044F21023C4F200034FF007021A704CF6C050C0F21700FFF7E2FD44F20003C4F200034FF048021B
:406F80001A7044F20023C4F200034FF020021A7044F20403C4F200034FF000021A8044F20403C4F200034FF007021A7044F20603C4F200034FF000021A7044F20803C4F2F7
:406FC00000034FF048021A7044F20403C4F200034FF000021A7044F20103C4F200034FF002021A7044F20B03C4F200034FF004021A7044F2A233C4F2000344F2A232C4F2AA
:4070000000021278D2B242F01F02D2B21A7044F2A133C4F2000344F2A132C4F200021278D2B242F00102D2B21A7080BD80B400AF44F2AA33C4F200034FF444721A8045F254
:407040000D13C4F200034FF002021A7045F62003C4F200034FF01E021A7045F62403C4F200034FF01E021A7045F62803C4F200034FF01E021A7045F62C03C4F200034FF0FC
:407080001E021A7045F60013C4F2000348F2C0021A8045F60313C4F200034FF00C021A7045F60813C4F200036FF03F021A7045F60B13C4F200034FF00C021A7045F62033F8
:4070C000C4F200034FF020021A7045F62333C4F200034FF020021A7045F62833C4F200036FF07C021A7045F64033C4F200034FF482721A8045F65833C4F200036FF07F026A
:407100001A7045F67603C4F200034FF044021A70BD4680BC704700BF80B483B000AF0346FB71FB79052B39D8FA79FB791344FB71FA7948F68C73C0F2000353F82220F97906
:4071400048F68C73C0F2000353F821301978F87948F6BC73C0F200031B5C41EA0303DBB21370FB7903F10103FB71FA7948F68C73C0F2000353F82220F97948F68C73C0F27A
:40718000000353F821301978F87948F6BC73C0F200031B5C41EA0303DBB2137007F10C07BD4680BC704700BF80B483B000AF0346FB71FB79052B3FD8FA79FB791344FB7164
:4071C000FA7948F68C73C0F2000353F82220F97948F68C73C0F2000353F821301978F87948F6BC73C0F200031B5C6FEA0303DBB201EA0303DBB21370FB7903F10103FB713D
:40720000FA7948F68C73C0F2000353F82220F97948F68C73C0F2000353F821301978F87948F6BC73C0F200031B5C6FEA0303DBB201EA0303DBB2137007F10C07BD4680BC8A
