:400000000040002011000000051D0000051D000008B5044B1A6803F53F5302331A6001F079FE00BFFA46004010B5054C237833B9044B13B10448AFF300800123237010BDFB
:4000400050C1FF1F00000000AC4C0000084B10B51BB108490848AFF300800848036803B910BD074B002BFBD0BDE81040184700BF0000000054C1FF1FAC4C0000C8C0FF1F42
:400080000000000000F11803044A12F8131043003133D05C40EA0120704700BF78C1FF1F2DE9F04F99B000240D940C9400F088FC62B602F0C5FABA4ABA4B1A6001F00AFF11
:4000C00001F01CFF02F07CFB02F0D2F903F0BCFAB549B64800F0C2FD1DE0264618AB03EB44034FF4806223F8282C0134E4B275000EAB5919204600F0E3FDB21DAC4B0421F9
:4001000003F8121005F10D0000221A54183603F8161031355A550F2CDFD902F03BFDA54A0221084602F09AFCA14C22465821084602F0BAFC072384F8533002F06BFF02F04B
:40014000D7FF01F0C1F800F031FE01F031FC9A4800F016FC4FF000084746C2464FF480630293CDF80C80C346444600E04C4602F061FC8146844207D010F0080F04D000F063
:4001800043FC0D904FF0000B41F288310DA800F02FFC08B14FF0010B854B93F85230DBB29F4201D04FF0010A814B93F85270FFB2012001F0A7FE50B90CE0204601F0AEFE7A
:4001C000C0F3C7007A4B18550134E4B200E00024052CF2D900230EE0DA1C754810F812405A00D11D415C18A8024441EA042122F8081C0133DBB2022BEED9BDF8580002F03D
:40020000C3FEBDF85A0002F02DFF00230EE003F11802674810F8124059003131425C42EA0422664921F813200133DBB20F2BEED95F4C94F8503094F851201A435F4B83F80A
:400240002020002283F8212083F82220032283F8282001F0CFFB94F8540002F057FF94F8550002F05FFF94F8560002F067FF00F017FD012816D036E0661CF6B265000EABFC
:400280005919304600F01CFD063418AB2B4433F8283C190A464A02F814100D35DBB25355344600E000240F2CE6D900F013FD404C84F82C0000F014FD84F82D0000F016FDB1
:4002C00084F82F0000F018FD84F82E0000F09CFB0C90BDF84030029A9A4201D1029302E002930123039300F007FD28B94FF47A710CA800F07DFB58B12D4B93F8573013F097
:40030000FF0F2FD100272A4B83F85270B84629E0039B3BB3BDF84030B3F5307F07D20023234A82F8523098461F4603931AE0A3F5307292B2B2F5207F07D24FF001081C4B43
:4003400083F85280002303930CE0B3F5A86F07D34FF00208164B83F852800023039301E000230393BAF1000F2DD0114B93F85230DBB2012B03D01BB3022B05D009E04FF004
:4003800001084FF0000A1EE04FF002084FF0000A19E04FF0000A064B83F852A0D04612E05D2600008CC2FF1FF5360000C936000078C1FF1FD0C1FF1FB04C000000C3FF1F57
:4003C0004FF00008C246B8F1010F28D108AA0121BDF9380000F0BAFF08AA0221BDF93A0000F0B4FF012208A9084601F00FF8022208A9084601F00AF808AA0621BDF9420028
:4004000000F0A4FFBDF92A30B3F5967F01DB012400E000240122B04B83F8522044E0B8F1020F2BD1BBF1000F0CD0AB4B042183F84010002283F8412083F8421083F843204C
:4004400083F852200820FFF71DFE08AA012100B200F07CFF0920FFF715FE08AA022100B200F074FF012208A9084600F0CFFF022208A9084600F0CAFF022415E00023964A6F
:4004800082F85230ADF82030ADF8223008AA0621BDF9420000F05AFFBDF92A30B3F5967F01DB012400E0002400F068FD5CBB00F023FCD8B94FF47A710CA800F099FAA8B996
:4004C000002204A908A800F0F3FFBDF9100000F0A7FDBDF9120000F0B5FDBDF9100000F011FCBDF9120000F01FFC58E0002000F097FD002000F0A6FD002000F003FC002083
:4005000000F012FC4BE0022C15D1002204A908A800F0CEFFBDF9100000F082FDBDF9120000F090FDBDF9100000F0ECFBBDF9120000F0FAFB33E0012C31D1684B1B7813F0F3
:40054000FF0F18D0654B4FF000021A70644D288800B200F089FD634E308800B200F096FD288800B200F0F2FB308800B200F000FC002001F0EFFC5C4B1B7813F0FF0F0ED029
:400580000025594B1D70284600F04AFD284600F059FD284600F0B6FB284600F0C5FB00F093FE524B1B7813F0FF0F02D000224F4B1A7000F0FBFB4E4B1B7813F0FF0F02D090
:4005C00000224B4B1A704B4B1B7813F0FF0F3FF4CDAD0022474B1A70B8F1010F0AD0B8F1000F03D0B8F1020F08D00AE0424800F0C7F906E0414800F0C3F902E0404800F04B
:40060000BFF9354B93F852103E4800F0B9F9012C14D014B1022C27D03FE0BDF83A20BDF83810394800F0ACF9BDF92A30BDF92220BDF92010354800F0A3F92EE0344800F0C0
:400640009FF9294B1B7813F0FF0F09D1244B1988244B1A8812B209B22E4800F091F91CE02D4800F08DF918E02C4800F089F91A4890F8401090F8412090F8423090F84300B3
:400680000090274800F07CF9BDF92A30BDF92220BDF920101D4800F073F900F07BFB044600F07EFB024621461E4800F069F91E4B19781E4800F064F91D4B19781D4B1A7807
:4006C0001D4800F05DF959461C4800F059F91C4800F056F94AE500BF78C1FF1F16C2FF1FFCC2FF1FFEC2FF1F1CC2FF1F31C2FF1F0AC2FF1F75C1FF1FBC4C0000C84C00000B
:40070000D84C0000E44C0000FC4C0000184D0000344D0000444D00005C4D00006C4D0000784D0000984D000030C2FF1FAC4D000032C2FF1F08C2FF1FBC4D0000D04D000071
:40074000B84C000010B504460A2802D10D20FFF7F9FF074B1B6823B1591C054A11601C7010BD044B1B680BB12046984710BD00BF6CC1FF1F8CC2FF1F10B5044602E00134D3
:40078000FFF7E0FF20780028F9D110BD2DE9F04F85B006468846741C3078002800F0ED80252803D0FFF7CEFF2646F4E7B31C7078302803D1F31CB078012706E02D2803D131
:4007C000F31CB078022700E000271E46002406E004EB84046300C418303C30780136A0F13002D2B2092AF3D96C2801D04C2803D147F0040730780136002800F0BE80602831
:4008000003D9A0F12003DBB200E00346A3F14202162A3ED8DFE802F04030373D3D3D3D3D3D3D3D3D3D433D3D3D0C3D373D3D3A00D8F800A008F10408002500E001351AF892
:400840000530002BFAD103E02020FFF77BFF4D4617F0020F04D105F10109A542F4D34D465046FFF789FF03E02020FFF76BFF3D466F1CA542F8D38EE798F8000008F1040898
:40088000FFF760FF87E74FF00A0C0AE04FF0100C07E0FFF757FF7EE74FF0020C01E04FF0080C17F0040F04D0D8F8009008F104080AE0442B04D1D8F8009008F1040803E0F9
:4008C000D8F8009008F10408442B06D1B9F1000F03DAC9F1000947F008074FF0000E00E0AE46B9FBFCF30CFB1392D2B29946092A06D9782801D1272100E007211144CAB236
:400900000EF10105303204A9714401F8102C0BB10F2DE5D917F0080F06D004AB1D442D2305F8103C0EF1020517F0010F02D04FF0300B01E04FF0200BA94603E05846FFF74C
:4009400001FFD14617F0020F04D109F1010AA145F4D3D146013D04AB2B4413F8100CFFF7F1FE002DF6D103E02020FFF7EBFEA94609F10105A145F7D30DE705B0BDE8F08FE0
:400980000FB400B583B004A951F8040B0191FFF7FDFE03B05DF804EB04B07047074A13680133136013790133DBB21371642B04D9134600221A7101225A71704770C1FF1FF8
:4009C00008B508490F2002F0CDFD074B45F6BF525A60E021054A82F8231000229A6007221A6008BD9D09000010E000E000ED00E0044B1B6802689B1A8B4201D30120704778
:400A00000020704770C1FF1F014B1868704700BF70C1FF1F08B51C4B1B7813F0FF0F03D001221A4B1A7002E00022184B1A70164B5B7813F0FF0F03D00122144B5A7002E01B
:400A40000022124B5A70114B1B7833B1012001F075FA012001F08AFA05E0002001F06EFA002001F083FA094B5B7833B1012001F071FA012001F086FA08BD002001F06AFA03
:400A8000002001F07FFA08BDD0C1FF1F76C1FF1F4200401022F0550200F055000243D2B29300921023F0330302F033021343DBB2180940EA0310C0B2704700BF70B4451C87
:400AC0008022002615E02B78134001D001238B401C43012A02D10135802200E05208013101E0002421460A29EDD91A4B23F8164001360F2EF5D9C27DD209164B83F820202F
:400B0000C27DC2F3801283F82120C27DC2F3401283F82220C27DC2F3001283F82320C27D02F00F0283F82420027E920983F82520C27DC2F3011283F82620027EC2F3810151
:400B40004A0002F0020242EA510283F8272070BC704700BFD0C2FF1F014B23F81100704790C2FF1F10B582B00446FFF791FF00238DF80730364B1A78511CC9B219701A447B
:400B800010715B7F032B5BD8DFE803F002202748F02806D101212E4A5177FF212D4A117053E02C4A1278FF2A0CD002F11801B0EBC10F07DB1932B0EBC20F03DA0321244A0E
:400BC000517742E00021224A11703EE0172939D902221F4B5A77002337E01D4B00225A771A7000F02303202B08D1C4F30114194B1C701948FFF762FF012326E010F0300FF8
:400C000007D1FF22134B1A701348FFF757FF01231BE0FF220F4B1A70002316E0022913D90B4C6079A3792179403103EB0020C9B280B2FFF791FF002363772370022304E0A7
:400C4000002302E0002300E00023184602B010BDD4C1FF1FCCC0FF1FD8C1FF1F38B505460C46282200210B4804F017F840220021094804F012F8002306E04FF48061054ABF
:400C800022F813100133DBB20F2BF6D9034B1D625C6238BDD0C2FF1F90C2FF1FD4C1FF1F08B5064B5B6A984730B1044B1B6A9847C0B2FFF757FF08BD002008BDD4C1FF1F79
:400CC0000138034B33F810300B800020704700BFD0C2FF1F014B93F820007047D0C2FF1F014B93F821007047D0C2FF1F014B93F822007047D0C2FF1F014B93F82300704763
:400D0000D0C2FF1F00EBC0000301054A82FB0312DB17C3EBA2131BB2024A1380704700BFD34D6210FCC1FF1F00EBC0000301054A82FB0312DB17C3EBA2131BB2024A5380BE
:400D4000704700BFD34D6210FCC1FF1F00EBC0000301054A82FB0312DB17C3EBA2231BB2024A1380704700BF1F85EB51FCC1FF1F00EBC0000301054A82FB0312DB17C3EB8E
:400D8000A2231BB2024A5380704700BF1F85EB51FCC1FF1F014B188800B27047FCC1FF1F014B588800B27047FCC1FF1F704700BF08B5164B1B78ABB9812001F071FD062000
:400DC00001F06EFD002001F06BFD002001F068FD052001F065FD8C2001F062FD01220B4B1A7008BD812001F05BFD062001F058FD002001F055FD002001F052FD022001F040
:400E00004FFD892001F04CFD08BD00BF0CC2FF1F08B5174B5B78012B08D013B1022B18D021E0134A122191700021D17010498A7810448870CA780132D2B2CA700D2A03D963
:400E400001334B70002008BD0122094B5A70002008BD074B00225A709B78834205D1FFF7A7FF012008BD002008BD4FF0FF3008BD0CC2FF1F08B5822001F012FD062001F090
:400E80000FFD002001F00CFD002001F009FD022001F006FD8A2001F003FD08BD344B1B79062B60D8DFE803F0040D18222D2D35002F4A0102D1800B305071013313710020CE
:400EC00070472B4AD1880143D18051790844507101331371002070470102254A11815179084450710133137100207047204A1189014311815179084450710133137100207F
:400F000070471B4A5179084450710133137100207047174B00221A715B79834225D110B5134BB3F90630934206DAC3F30A035B421BB2104A138001E00E4A13800C4BB3F9EE
:400F40000830002B06DAC3F30A035B421BB20A4A138001E0084A13800124054B9C72FFF789FF204610BD002070474FF0FF3070470CC2FF1FFCC2FF1FFEC2FF1F10B501F0C8
:400F80005FFC00283ED001F029FC0446FFF73CFD214BD86000221A745B7C032B3BD8DFE803F0020B2129621ED2B2012A33D81A4A94740133537410BD174B9B7C012B05D1AB
:400FC000112C03D10222144B5A7410BD022B05D1092C03D10322104B5A7410BD00220E4B5A7410BD2046FFF713FFA0B100220A4B5A7410BD2046FFF751FF60B10022064B84
:401000005A7410BD4FF47A710448FFF7F1FC10B10122014B1A7410BD0CC2FF1F18C2FF1F00EBC0000301054A82FB0312DB17C3EBA2131BB2024A1380704700BFD34D6210B0
:4010400020C2FF1F00EBC0000301054A82FB0312DB17C3EBA2131BB2024A5380704700BFD34D621020C2FF1F00EBC0000301054A82FB0312DB17C3EBA2231BB2024A1380F6
:40108000704700BF1F85EB5120C2FF1F00EBC0000301054A82FB0312DB17C3EBA2231BB2024A5380704700BF1F85EB5120C2FF1F10B5012444E0012001F038F8112001F031
:4010C00035F8322001F032F8002001F02FF8322001F02CF8322001F029F8012001F026F8002001F023F8832001F020F8142001F01DF8052001F01AF8052001F017F80120A3
:4011000001F014F8032001F011F8042001F00EF8072001F00BF8592001F008F8012C07D101F034F80028FBD1012002F0FBF906E001F02CF80028FBD10E2002F0F3F90134A8
:40114000142CB8DD10BD00BFB0F5486F01DD4FF4486010F5486F00DA0E4800280BDB4FF4486303FB00F00C4B83FB0023C017C0EB631000B27047074B03FB00F3064880FBB1
:401180000320DB17C3EB6010A0F5FF40333800B2704700BF80F3FFFF398EE33810B500F095FF00283CD000F05FFF0446FFF72CFC204B58601B7A032B32D8DFE803F002085B
:4011C0001625822C2CD101331A4A137228E0062C07D1184B02221A7200225A7288229A721EE00022134B1A721AE012494A7A88180473887A04448C720132D2B24A72022A02
:401200000ED901330B720BE00A4B9B7A9C4204D1084B9A7B1A7401225A740022054B1A7241F288310448FFF7E3FB10B10122014B9A7410BD20C2FF1F24C2FF1F70B51721B1
:401240001D48FFF7D5FB002834D0FFF7DDFB1B4C6061208800B2FFF777FF194D2880608800B2FFF771FF174E30806C782B781C44C0F307231C44C0B204440B34E4B2022063
:4012800000F054FF092000F051FF687800F04EFF287800F04BFF707800F048FF307800F045FF002000F042FF002000F03FFF204600F03CFF70BD00BF34C2FF1F20C2FF1F60
:4012C000FAC2FF1FF8C2FF1F08B51E4B1B7E13F0FF0F32D11B4B5B7E012B0FD013B1022B1CD02CE0002000F059FE00F0AFFEFFF78BFB144BD86101225A7620E04FF47A71FD
:401300001148FFF775FBD0B1022000F047FEFFF77BFB0C4BD86102225A7610E04FF496710948FFF765FB50B1FFF7C2FE054B00229A74012119765A7601E0FFF77FFFFFF742
:401340002DFF08BD20C2FF1F3CC2FF1F00B5B0F5D06F03DCB0F5C07F03DB04E04FF4D06001E04FF4C070B0F5806F0DDDA0F580604FF47A7303FB00F0224B83FB00E3C017C5
:40138000C0EB23231BB210E0B0F5806F0CDAC0F580601D4B03FB00F01A4B83FB00E3C017C0EB23231BB200E00023B3F57A7F03DC13F57A7F03DB03E04FF47A7300E0124B0D
:4013C000013907291BD8DFE801F004070A0D1013161913805DF804FB53805DF804FB93805DF804FBD3805DF804FB13815DF804FB53815DF804FB93815DF804FBD3815DF827
:4014000004FB00BF6766666618FCFFFF012A24D1B0F900304B2B0DDD4B3B4FF47A7202FB03F3214A82FB03021A44DB17C3EB62230B80704713F14B0F0CDA4B331B4A02FB6C
:4014400003F3194A82FB03021A44DB17A3EB62230B80704700230B807047022A23D1B0F902304B2B0DDD4B3B4FF47A7202FB03F30D4A82FB03021A44DB17C3EB62234B805D
:40148000704713F14B0F0CDA4B33084A02FB03F3054A82FB03021A44DB17A3EB62234B80704700234B807047C70FB38D18FCFFFF2DE9F04704460E461746B0F9020003F005
:4014C00075F9A54903F07AFA8046B4F9000003F06DF9A14903F072FA044628F0004520F0004A404602F06AFD80468946204602F065FD42464B4602F08BF993A3D3E9002341
:4015000002F0DAFE03F048F804463860002103F053FB00B34FF07E51204603F039FBD0B1504602F04BFD8AA3D3E9002302F09AFD80468946284602F041FD42464B4602F0F8
:40154000DDFB03F029F80446002103F021FB002800F05E8152E14FF07E51204603F02CFB00B34FF08041204603F012FBD0B1504602F024FD76A3D3E9002302F073FD8046EA
:401580008946284602F01AFD42464B4602F0B6FB03F002F80446002103F0FAFA002800F037812DE14FF08041204603F005FBA0B14FF08041204603F0F5FA70B10AF10044BA
:4015C0004FF07D51504603F045F905464FF07D51204603F03FF904461AE14FF08041204603F0EAFA10B35D49204603F0D1FAE8B1504602F0E3FC56A3D3E9002302F032FD26
:4016000080468946284602F0D9FC42464B4602F075FB02F0C1FF0446002103F0B9FA00B1002404F1004405F10045F1E04B49204603F0C2FAE8B14FF08141204603F0A8FA4A
:40164000B8B1504602F0BAFC41A3D3E9002302F009FD80468946284602F0B0FC42464B4602F04CFB02F098FF00F1004405F10045CEE04FF08141204603F09EFA18B105F1BD
:4016800000442546C4E00021204603F08BFAD0B13349204603F09AFAA8B1504602F08EFC2BA3D3E9002302F0DDFC80468946284602F084FC42464B4602F020FB02F06CFF13
:4016C0002C460546A4E02649204603F06BFA08B34FF04041204603F079FAD8B1504602F06DFC1BA3D3E9002302F0BCFC80468946284602F063FC42464B4602F0FFFA02F02A
:401700004BFF0746002103F043FA00287AD12C463D467DE04FF04041204603F04DFA08B34FF04041204603F03DFAD8B10AF100404FF07D5103F08EF805464FF07D51504659
:4017400003F088F8044663E0182D4454FB21E93F9A9999999999E93F00007A4400004040000080BF4FF04041204603F011FA10B33149204603F02AFAE8B1504602F01EFCF3
:401780002BA3D3E9002302F06DFC80468946284602F014FC42464B4602F0B0FA02F0FCFE0746002103F0F4F900B1002705F1004407F100452CE02049204603F0F3F920B351
:4017C0001E49204603F002FA08B3504602F0F6FB17A3D3E9002302F045FC80468946284602F0ECFB42464B4602F088FA02F0D4FE00F1004005F10044054609E0002407E056
:40180000002405E02C46002502E02C4600E02C460B49284603F01EF803F0E2F970800849204603F017F803F0DBF93080BDE8F0879A9999999999E93F000040C0000080C08E
:4018400000007A4408B50122024B1A70FFF7E2F808BD00BF40C2FF1F10B5032000F016FE0F4B93F828000F4B1A78930043EA8010C0B21AB10A4BDC8CA4B202E0084B9C8C9D
:40188000A4B240EA142000F001FEE0B200F0FEFD044A1378B3FA83F35B09137010BD00BF00C3FF1F41C2FF1F70B506460F2000F0EDFD0025294628461BE0204B33F8152055
:4018C00092B242FA04F313F0010302D0012202FA01F30343D8B20131C9B2072903D900F0D5FD00200146013400E000240A2CE4D901350F2DF9D9114A92F820305BB292F897
:40190000212012F0FF0F01D0042000E0002003430A4A92F8222012F0FF0F01D0082000E000201843C0B200F0B1FD300140F0040000F0F40000F0AAFD70BD00BF00C3FF1FDA
:4019400008B5194B5B78042B20D8DFE803F0030E1515150040F2F71000F000FD124B9878421C9A70FFF7A0FF10E040F2E33000F0F5FCFFF771FF09E040F2DB5000F0EEFC16
:40198000094B9878421C9A70FFF78EFF064A53780133DBB25370042B03D9134600225A709A70024B1B7808BD41C2FF1F6764004010B500F05DFD00F0FBFC0C4800F0A0FC38
:4019C0000B4C2A220021204603F067F9002384F82230032284F8282005E04FF48061044A22F8131001330F2BF7DD10BD4119000000C3FF1F704700BFFEE700BFF0B40022D2
:401A0000174611E050F82760F3B226F0FF0608E001EB420511F812406D78A5550132013BDBB2002BF4D101372A2FEBD9F0BC704708B50A46002103F030F908BD38B517229B
:401A4000304B1A80182330490B7002310A802F4A1370192502321580023213701D21023211801C2102321170EF2102321180023213704FF49C71023211800232137002223A
:401A8000234B1A7008224FF040231A70032103F5007319701F4B1B78DBB21F490B701F4B1A8041F25122023B1A8000240CE01C4B1B7803F0010343EA440404F003044FF41E
:401AC000F07001F095FE013D0DB1032CEFD115B90320FFF791FF134B4FF480721A8007221A70002210490A704820023108701A700222033B1A700D4A137843F03F03137068
:401B000038BD00BF8040004082400040864000400043004008010049A146004022420040254200400440004006400040A2430040F8B5164B1B78DBB2154E3478E4B2154F3C
:401B40003D78EDB203F00701134A11701B090132137044F00303337045F003033B703F220E4B1A70802203F2D4731A700F2203F21F231A70202203331A700A2001F0E8FCFC
:401B80003D7034704422064B1A70F8BDCF010049F8460040F94600406E5800402D5100407658004008B503F06DF808BD38B572B600240CE03C4D630019194A0011462A44CA
:401BC000084691882858FFF733FF0134E4B2092CF0D900240CE03448A20011194B000344B3F84420196CD86BFFF7DCFF0134E4B2032CF0D92D494FF09040FFF7FFFE04211B
:401C00002B48FFF715FF04222A492B48FFF7CAFF2A4A137843F0020313701032137843F002031370264C237843F040032370A2F58632513A137843F0100313700A22214940
:401C40002148FFF7AFFF0A2220492148FFF7AAFF082220492048FFF7A5FF0A221F492048FFF7A0FF08221F491F48FFF79BFF0A221E491F48FFF796FF1E4A137843F0080355
:401C800013701D4D61232B70FFF7D8FE81232B7001221A4B1A70FFF74BFF0E2221461848FFF780FF38BD00BFE04D0000AC00004800760040341100480876004003500140E5
:401CC000A0430040F41000480051004000110048C05100400C110048F25100401411004810510040201100482251004028110048305100402243004000480040040008405D
:401D0000B043004008B502F091FF03680C2B00D1FEE7FEE708B5104E104D16E029686B68AC68002204E051F8040B43F8040B0432A242F8D1E868002203E0002143F8041BB3
:401D400004328242F9D11035013E002EE6D102F073FFFEF7A5F9FEE701000000B04E000008B5114A114B1A60114A136843F40073136000230AE0032B03D80E4A52F823108F
:401D800000E00D490D4A42F8231001332F2BF2D90B4B1A780B4B1A70084A0B4B1A60FFF705FF01F0DDFA08BD0004FA050CED00E014ED00E000000000051D000000C0FF1FA2
:401DC000BC760040C0C0FF1F08ED00E010B541F6FF734FF480420121022001F069FA084C207041F6FF731A4601210C2001F07EFA6070044801F098FA002001F09BFA10BD3D
:401E000044C2FF1F391F000070B52C4C207801F0DDFA607801F0DAFA294B1B78FF2B03D101F042FB264B1870254D2878062302460C2101F053FB214E341DA4B2224645F6B8
:401E4000A031287801F05EFB2978307801F0FEFA6B78FF2B02D101F027FB6870184D6878072302460C2101F039FB164A92B22146687801F047FB114C6978607801F0E6FA9C
:401E80000121207801F086FA0121607801F082FA01F0B6FC0C4A137843F02003137001F0B3FC0A4B1A7842F001021A701A7842F002021A700122064B1A6070BD44C2FF1F5C
:401EC000CDC0FF1F2CC3FF1F9B6500407B64004080E200E008B5074B1B6923B9FFF776FF0122044B1A6101F0CDF9FFF78DFF024B1B7808BD44C2FF1F6C64004008B501F002
:401F0000CFF908BD044B1B7803F0FF020BB90028F8D01046704700BF6C640040C0F10500034B33F91030034A1088181A00B270472CC3FF1F10C6FF1F704700BF044A13786E
:401F400003F0DF03400100F02000184310707047F0510040044A137803F0EF03000100F01000184310707047F0510040044A137803F0BF03800100F0400018431070704785
:401F800020510040044A137803F07F03C001C0B218431070704700BF20510040014B1870704700BF7864004008B51149022001F0EDFA0721022001F0FDFA00220D4B1A7040
:401FC00071220D4B1A702022013B1A700B49032001F0DCFA0721032001F0ECFA0622084B1A70472210331A70022253331A7008BDD521000058C2FF1F856500406D220000E9
:402000002A64004008B501F0FBFB0C4A137843F020031370013A137843F010031370084A0423136007490B7843F010030B70082305490B60136001F0E7FB08BD956500403C
:4020400000E100E09D64004080E200E008B5054B5B7823B9FFF7A8FF0122024B5A70FFF7D1FF08BD58C2FF1F0422134B1A60134A9378DBB2D178C9B2127912F0FF0F01D1A2
:402080008B4211D00E4AD05CC0B20133DBB21F2B00D90023094A9370137913F0FF0F06D00022064B1A7102E0064B1878C0B20422054B1A60704700BF80E100E058C2FF1F9A
:4020C00058C3FF1F4665004000E100E00422144B1A60144B9A78D2B2DB78DBB29A4206D1104B1B7913F0FF0F15D0202014E00D4B9A78D2B2DB78DBB29A4205D2094AD3783C
:402100009078181AC0B207E0064AD3789078181A2030C0B200E000200422034B1A60704780E100E058C2FF1F00E100E0114B5B78F3B10822104B1A600E4A9379DBB2D27988
:40214000934207D10D4B1B7813F0040F02D10C4B18700AE01F2A02D90022064BDA71054AD3790849C8540133D3710822064B1A60704700BF58C2FF1F80E100E06D640040BE
:402180004B64004038C3FF1F00E100E008220E4B1A600E4B9A79D2B2DB799A420FD00B4A9279D2B2934204D9084A9079181AC0B206E0064A9079181A2030C0B200E0002092
:4021C0000822034B1A60704780E100E058C2FF1F00E100E01D4B1B78DBB213F01E0F05D01B4803F01E0201780A43027003F0200303F0FF0233B3174B1978C9B2164B1B786F
:40220000DBB21648C154164B1B7813F0FF0F02D00121144B197010490B780133DBB20B700B78DBB21F2B02D900210B4B19700A4B1978C9B20C4B1B78DBB2994202D10121C8
:40224000074B1970002AC5D1704700BF6465004058C2FF1F466500405BC2FF1F58C3FF1F5CC2FF1F5DC2FF1F5AC2FF1F13E0104B1B78DBB21F2B02D900220D4B1A700C4A0D
:402280001378DBB20B49CB5CDBB20B490B7013780133DBB21370064B1B78DBB2074A1278934204D0064B1B7813F0040FDFD070475EC2FF1F38C3FF1F4B6400405FC2FF1F86
:4022C0006D640040014B1B685866704708ED00E04001C0B2014B1870704700BF09E400E04FF40072014B1A60704700BF00E100E04FF40072014B1A60704700BF80E100E006
:4023000010B50446FFF7F4FF2046FFF7DBFF0720FFF7DEFFFFF7E4FF10BD00BF024A137843F080031370704777650040014B1870704700BF87640040014B1878704700BF66
:4023400067640040014B1880704700BF4C680040014B188880B270478C680040014B1880704700BF0C68004008B501E0FFF7F0FFFFF7E2FF10F0080FF8D108BD08B54FF6EC
:40238000FF70FFF7DFFF4FF6FF70FFF7E7FF01F037FA064A137843F01003137001F034FAFFF7E2FF0120FFF7C1FF08BD9764004008B5054B1B7823B9FFF7E0FF0122024BF6
:4023C0001A70FFF7ABFF08BD61C2FF1F08B51149042001F0DBF80721042001F0EBF800220D4B1A7072220D4B1A702022053B1A700B49052001F0CAF80721052001F0DAF8CC
:402400000622084B1A70472210331A70022253331A7008BDED24000062C2FF1F86640040852500002C64004008B501F0E9F90C4A137843F020031370053A137843F0100317
:402440001370084A1023136007490B7843F010030B70202305490B60136001F0D5F908BD9664004000E100E09F64004080E200E008B5054B5B7823B9FFF7A8FF0122024B11
:402480005A70FFF7D1FF08BD62C2FF1F114B5B78F3B12022104B1A600E4A9379DBB2D279934207D10D4B1B7813F0040F02D10C4B18700AE0312A02D90022064BDA71054AD2
:4024C000D3790849C8540133D3712022064B1A60704700BF62C2FF1F80E100E06F6400404F64004078C3FF1F00E100E01D4B1B78DBB213F01E0F05D01B4803F01E02017809
:402500000A43027003F0200303F0FF0233B3174B1978C9B2164B1B78DBB21648C154164B1B7813F0FF0F02D00121144B197010490B780133DBB20B700B78DBB2FF2B02D184
:4025400000210B4B19700A4B1978C9B20C4B1B78DBB2994202D10121074B1970002AC5D1704700BF6164004062C2FF1F4564004065C2FF1FACC3FF1F66C2FF1F67C2FF1F13
:4025800064C2FF1F13E0104B1B78DBB2312B02D900220D4B1A700C4A1378DBB20B49CB5CDBB20B490B7013780133DBB21370064B1B78DBB2074A1278934204D0064B1B7841
:4025C00013F0040FDFD0704768C2FF1F78C3FF1F4F64004069C2FF1F6F64004008B50949012000F0D3FF0721012000F0E3FF0622054B1A70472210331A700222B33B1A708E
:4026000008BD00BFBD2600002765004010B501F0F7F80446084A137843F0100313700223064A1360A2F5C072136000F08BFE204601F0EAF810BD00BF9464004080E200E0F6
:4026400008B5054B1B7823B9FFF7C8FF0122024B1A70FFF7DBFF08BD6CC2FF1F114B1B78F3B10222104B1A600E4A53889BB29288934207D10D4B1B7813F0040F02D10C4B48
:4026800018700AE0FF2A02D90022064B9A80054A93880849C854013393800222064B1A60704700BF6CC2FF1F80E100E06464004040640040ACC4FF1F00E100E014E0114B7C
:4026C0001B889BB2FF2B02D900220E4B1A800D4A13889BB20C49CB5CDBB20C490B7013889BB201339BB21380064B1B889BB2084A1288934204D0074B1B7813F0040FDED03D
:40270000704700BF6EC2FF1FACC4FF1F4064004070C2FF1F6464004008B51149072000F035FF0721084600F045FF00220D4B1A7071220D4B1A702022013B1A700B49082002
:4027400000F024FF0721082000F034FF0622084B1A70472210331A7002224C331A7008BD0529000073C2FF1F8A6500409D2900002D64004008B501F043F80D4A137843F061
:4027800020031370013A137843F010031370094A8023136008490B7843F010030B704FF4807306490B60136001F02EF808BD00BF9A65004000E100E09964004080E200E069
:4027C00008B5054B5B7823B9FFF7A6FF0122024B5A70FFF7CFFF08BD73C2FF1F8022134B1A60134A9378DBB2D178C9B2127912F0FF0F01D18B4211D00E4AD05CC0B20133F4
:40280000DBB21F2B00D90023094A9370137913F0FF0F06D00022064B1A7102E0064B1878C0B28022054B1A60704700BF80E100E073C2FF1FACC5FF1F4965004000E100E015
:402840008022144B1A60144B9A78D2B2DB78DBB29A4206D1104B1B7913F0FF0F15D0202014E00D4B9A78D2B2DB78DBB29A4205D2094AD3789078181AC0B207E0064AD378EF
:402880009078181A2030C0B200E000208022034B1A60704780E100E073C2FF1F00E100E0124B5B7803B34FF48072114B1A600F4A9379DBB2D279934207D10E4B1B7813F0DC
:4028C000040F02D10C4B18700AE01F2A02D90022064BDA71054AD3790849C8540133D3714FF48072064B1A60704700BF73C2FF1F80E100E06964004049640040CCC5FF1F14
:4029000000E100E01D4B1B78DBB213F01E0F05D01B4803F01E0201780A43027003F0200303F0FF0233B3174B1978C9B2164B1B78DBB21648C154164B1B7813F0FF0F02D072
:402940000121144B197010490B780133DBB20B700B78DBB21F2B02D900210B4B19700A4B1978C9B20C4B1B78DBB2994202D10121074B1970002AC5D1704700BF6965004039
:4029800073C2FF1F4965004076C2FF1FACC5FF1F77C2FF1F78C2FF1F75C2FF1F13E0104B1B78DBB21F2B02D900220D4B1A700C4A1378DBB20B49CB5CDBB20B490B70137886
:4029C0000133DBB21370064B1B78DBB2074A1278934204D0064B1B7813F0040FDFD0704779C2FF1FCCC5FF1F496400407AC2FF1F6964004008B500F003FF084A137843F023
:402A0000040313701032137843F00403137000F0FBFE4FF40042024B1A6008BDA543004000E100E000F07F00014B1870704700BFFDC5FF1F4FF40041054B1960054A1078E2
:402A4000137803F01003DBB21370034B1960704780E100E0FCC5FF1F00E100E010B44FF400440A4B1C6032B11346094A1360094B1880094B19800023084A1370084A137092
:402A80004FF40042074B1A6010BC704780E100E0F8C5FF1F00C6FF1F06C6FF1F0AC6FF1F09C6FF1F00E100E010B44FF400440A4B1C6032B11346094A1360094B1880094B5E
:402AC00019800023084A1370084A13704FF40042074B1A6010BC704780E100E0F0C5FF1FFEC5FF1F04C6FF1F02C6FF1FECC5FF1F00E100E000F07F00014B1870704700BF90
:402B0000F4C5FF1F10B50122174B1A7080220E3B1A70702002331870032211331A70002401331C70FFF77EFF7120FFF7E3FF4FF400420E4B1A6007210F2000F03BFD0C4949
:402B40000F2000F023FD0B4B1C700B4B1C700B4B1C700B4B1C700B4B1C800B4B1C700B4B1C700B4B1C8010BDD649004080E100E0B12B000008C6FF1FFCC5FF1F0AC6FF1FE4
:402B800009C6FF1F06C6FF1F02C6FF1FECC5FF1F04C6FF1F08B5054B1B7823B9FFF7B2FF0122024B1A70FFF725FF08BD7CC2FF1F08B5944B1B78DBB213F0080F77D0924B4F
:402BC0001B785B08914A1370914A1278D2B2934232D18D4B1B7813F0010F1CD08D4A1378DBB28D490968CB5CDBB287490B701421844B19701378DBB2884A13701378013368
:402C0000DBB21370864A137843F0110313700822844B1A7070E110227A4B1A70804A137843F01203137001227E4B1A707E4A137843F0100313705FE17C4A1278D2B293426F
:402C400031D1714B1B7813F0010F1BD0784A1378DBB278490968CB5CDBB26B490B701421684B19701378DBB2734A137013780133DBB213706A4A13780B4313701822694B80
:402C80001A7039E110225F4B1A70654A137843F0180313701122634B1A70634A137843F01003137028E10022564B1A7024E113F0010F00F021815B4A1278013A172A00F2F6
:402CC0001281DFE812F01800100110013400100110011001520010011001100110011001100110011001820010011001C100100110011001DF00444B1B78DBB2434A1370C7
:402D00009BB24E4A128892B293420CD210223D4B1A703E4B1B783F4A1370404A13700422404B1A70E8E00022364B1A70E4E03B4B1A78434B1B889BB29A4212D2324B1B784A
:402D400032490B7010222F4B1A70344A1378DBB2314800680978C15413780133DBB21370CAE00022274B1A70C6E013F0020F1ED12A4B1A78314B1B889BB29A4210D2274A38
:402D80001378DBB224490968CB5CDBB21E490B7004211C4B197013780133DBB21370ABE0FF22194B1A700422013B1A70A4E0FF22154B1A700022013B1A7019490B7803F0CE
:402DC000EF030B70174B1A7096E00F4B1B78DBB20E4A13709BB21B4A128892B293420CD21022084B1A70094B1B78114A1370124A137014220B4B1A707EE00022014B1A704D
:402E00007AE000BFD7490040D84900407DC2FF1FFDC5FF1F0AC6FF1FF8C5FF1F09C6FF1FFCC5FF1F08C6FF1FD6490040F4C5FF1F02C6FF1FF0C5FF1FECC5FF1F00C6FF1F58
:402E400006C6FF1FFEC5FF1F364B1A78364B1B889BB29A4212D2354B1B7835490B701022344B1A702F4A1378DBB2334800680978C15413780133DBB213703DE000222D4B6C
:402E80001A7039E013F0020F1ED1264B1A782B4B1B889BB29A4210D2224A1378DBB226490968CB5CDBB221490B700421214B197013780133DBB213701EE0FF221B4B1A7050
:402EC0000422013B1A7017E0FF22184B1A700422013B1A701A4A137803F0EF0313700022184B1A7008E00023164A1370164A1370164A13700F4A13700E4B1B7813F0200FE1
:402F00000CD00F4A137803F0EF03137000220D4B1A700F4A137803F0EF031370FEF792FC08BD00BFECC5FF1F04C6FF1FD84900407DC2FF1FD7490040F0C5FF1FFEC5FF1F89
:402F4000FCC5FF1F08C6FF1F0AC6FF1F09C6FF1FD6490040084A137843F0010313701032137843F00103137002F64D32137843F001031370704700BFA3430040014B1880F2
:402F8000704700BF044F0040014B1880704700BF064F0040014B1870704700BF034F004008B5194A137843F0020313700232137803F08F0343F010031370144B1A7802F0E7
:402FC000CF021A701A7842F030021A701A7802F0F0021A701A7842F00F021A7043F2AF60FFF7CCFF0020FFF7CFFF0020FFF7D2FF074A137843F00103137002F65E3213781E
:4030000043F00103137008BD004F00400B4F0040A343004008B5054B1B7823B9FFF7C0FF0122024B1A70FFF795FF08BD7EC2FF1F084A137843F0020313701032137843F052
:403040000203137002F65932137843F001031370704700BFA3430040014B1880704700BF104F0040014B1880704700BF124F0040014B1870704700BF0F4F004008B5194A68
:40308000137843F0020313700232137803F08F0343F010031370144B1A7802F0CF021A701A7842F030021A701A7802F0F0021A701A7842F00F021A7043F2AF60FFF7CCFF9B
:4030C0000020FFF7CFFF0020FFF7D2FF074A137843F00203137002F66A32137843F00103137008BD0C4F0040174F0040A343004008B5054B1B7823B9FFF7C0FF0122024BC8
:403100001A70FFF795FF08BD7FC2FF1F044A137803F0DF03400100F0200018431070704710510040044A137803F0EF03000100F0100018431070704710510040044A13785A
:4031400003F0F703C00000F008001843107070471051004008B50A280FD00C2802D0082806D102E04FF4805209E04FF4807206E0002000F0D5F9002201E04FF4806200217A
:40318000084B198042F2107303FB02F313F5806301D503F2FF73DB12034A13600022034B1A8008BD0CC6FF1F14C6FF1F10C6FF1F10B500F025FB0446184A137843F00103B6
:4031C00013701032137843F00103137002F5AA520832137843F0030313701822104B1A70013B1A7842F040021A701A7802F0FC021A70C822053B1A700222A3F597530C3BB9
:403200001A70084A137843F0080313700A2000F09FF9204600F0F8FA10BD00BFAB43004006590040275B004010B504460A280DD00C2802D0082804D101E0C22207E0422218
:4032400005E0002000F06CF9C22200E08222034B1A702046FFF77EFF10BD00BF0259004008B5064A137843F0060313700C20FFF7DBFF0022024B1A8008BD00BF015900403A
:403280000EC6FF1F08B5054B1B7823B9FFF7E8FF0122024B1A70FFF78BFF08BD80C2FF1F024A137843F001031370704700590040F0B583B016461F460B4C01252570002375
:4032C000019300932B460A460146284600F0CAF83A463146207800F09FF80221207800F089F8207803B0F0BDCFC0FF1FF0B583B016461F460B4D00242C7001940094234655
:403300000A460146204600F0ADF83A463146287800F082F80221287800F06CF8287803B0F0BD00BFD0C0FF1F014B1B681864704708ED00E04001C0B2014B1870704700BFA2
:4033400000E400E0054A137843F0040313701032137843F004031370704700BFA24300400B4A7F2313708021517007E0DA0002F1804202F5F042013BDBB21370002BF5D115
:40338000DB0003F1804303F5F04300221A707047D4C0FF1F172815D831B103010A495A5C42F020025A5405E0030107495A5C02F0DF025A540001044A835C43F00103835472
:4033C00000207047012070471070004017280CD80001074BC1180A7942F004020A71C25C42F00102C254002070470120704700BF1070004017280BD80001064A835C03F0FD
:40340000F103490001F00E011943815400207047012070471070004041F6FF73994201D14FF4005141F6FF739A4201D14FF40052172808D8C00000F1804000F5EC40818027
:40344000C280002070470120704700BF172805D8034B03EB0010417200207047012070471070004017281BD810B4C00000F1804404F5EC44D201D2B201F07F0111432170D1
:403480009DF804201201D2B203F00F03134363709DF8083003F00F03A3700020E07001E00120704710BC704710B500F0A9F90A4B5B78182B0BD9084A1478013B5370E30097
:4034C00003F1804303F5F0431B78137000E0FF2400F09AF9204610BDD4C0FF1F10F0800F0CD111F4704F0BD1C00000F1804000F5F04001808270C370002070470120704772
:403500000120704710F0800F08D1C00000F1804000F5F0408180C280002070470120704701BE704710B5044605E0084B186800F05FF9A4F50044B4F5004FF6D8034B58688D
:4035400000FB04F000F054F910BD00BFDCC0FF1F08B5034B1B7A00FB03F000F049F908BDDCC0FF1F70B504460E46074B1D680F2802D90020FFF7D4FF04F00F0455F824008D
:4035800045F8246070BD00BF08ED00E070B504460E46074B1D681F2802D90020FFF7C0FF04F01F04103455F8240045F8246070BD08ED00E038B504460D46072902D90020B4
:4035C000FFF7AEFF1F2C02D90020FFF7A9FF04F01F0000F1604000F564406D01EDB2057038BD00BF08B509490620FFF7CFFF07210620FFF7DFFF0022054B1A707222054BD6
:403600001A70202203F582731A7008BD5537000081C2FF1F8264004008B500F0F1F8084A137843F02003137002F58272137843F0100313704022034B1A6000F0E5F808BD28
:403640009264004000E100E008B5054B5B7823B9FFF7C8FF0122024B5A70FFF7DDFF08BD81C2FF1F4022134B1A60134A9378DBB2D178C9B2127912F0FF0F01D18B4211D09A
:403680000E4AD05CC0B20133DBB2FF2B00D10023094A9370137913F0FF0F06D00022064B1A7102E0064B1878C0B24022054B1A60704700BF80E100E081C2FF1F18C6FF1FF9
:4036C0004264004000E100E010B54023064A1360064A147800211170054A13602402FFF7C1FF204380B210BD80E100E081C2FF1F00E100E04022144B1A60144B9A78D2B227
:40370000DB78DBB29A4206D1104B1B7913F0FF0F15D0FF2014E00D4B9A78D2B2DB78DBB29A4205D2094AD3789078181AC0B207E0064AD3789078181A0138C0B200E00020CC
:403740004022034B1A60704780E100E081C2FF1F00E100E01D4B1B78DBB213F01E0F05D01B4803F01E0201780A43027003F0200303F0FF0233B3174B1978C9B2164B1B7878
:40378000DBB21648C154164B1B7813F0FF0F02D00121144B197010490B780133DBB20B700B78DBB2FF2B02D100210B4B19700A4B1978C9B20C4B1B78DBB2994202D101215B
:4037C000074B1970002AC5D1704700BF6665004081C2FF1F4264004084C2FF1F18C6FF1F85C2FF1F86C2FF1F83C2FF1F000000000230800803D000BF01380046FCD1704789
:40380000EFF3108072B6704780F31088704700BF00F002B8000000002DE9F84F5442144323F00049DFF880E149EAD474744506460D463ED84442044321F0004B4BEAD4749F
:4038400074458A4635D803F1404404F58014144344D09C1704F0020444EAD17450EA0B012FD052EA090133D0F14546D0F3452FD0C9EB0B094FEA2959B9F13C0F34DC002B5E
:4038800057DB3046294600F017FD00F02FFA00F08FF8012C4AD0022C3BD084B132A3D3E9002300F02BFA32A3D3E9002300F026FA05E01046194632462B4600F021FABDE8E8
:4038C000F88F022C14D0032C0CD12D482D49F6E7BAF1000F2A480EDB2B49F0E7BDE8F84F00F066B82946EAE723A1D1E90001D0E723482649E3E72649E1E7CB451FD0022C83
:40390000F6D0032CE1D0012C4FF0000020D00146D5E715A3D3E9002300F0F0F902460B4613A1D1E9000100F0E9F9C8E701F10041C5E719F13C0FA4DA00200021A9E7022CD8
:403940000ED0032C09D0012C0D4804D01149B6E74FF00041B3E71049B1E710481049AEE70E481049ABE700BF075C143326A6A13C182D4454FB210940182D4454FB21F93FFD
:40398000182D4454FB2109C0FB21F93FFB210940FB21F9BFFB21E93FFB21E9BFD221337F7CD902C07CD902400000F07F000000002DE9F84FC04B21F000469E420D468A462C
:4039C00004460FDDBD4B9E4200F3B28000F0AD80BB4BBC49BC4CBAF1000FC8BF19462046BDE8F88FB94B9E4200F3BC80A3F1DE739E4240F3A7804FF0FF3B22462B46204638
:403A0000294600F02FFB02460B468046894600F029FB91A3D3E9002306460F4600F022FB8FA3D3E9002300F06BF932463B4600F019FB8DA3D3E9002300F062F932463B4645
:403A400000F010FB8AA3D3E9002300F059F932463B4600F007FB88A3D3E9002300F050F932463B4600F0FEFA85A3D3E9002300F047F942464B4600F0F5FA83A3D3E90023BA
:403A8000804689463046394600F0ECFA80A3D3E9002300F033F932463B4600F0E3FA7EA3D3E9002300F02AF932463B4600F0DAFA7BA3D3E9002300F021F932463B4600F002
:403AC000D1FA79A3D3E9002300F018F932463B4600F0C8FABBF1FF3F02460B4669D04046494600F00DF922462B4600F0BBFA784E784B4FEACB0B5E449B44DBE9002300F01F
:403B0000FDF822462B4600F0F9F802460B46D6E9000100F0F3F8BAF1000F0446BFF65FAF01F100412046BDE8F88F00283FF450AF224620462B46294600F0E2F80446204694
:403B4000BDE8F88F5AA3D3E9002300F0D9F80022614B00F017FD00283FF44DAF29462046BDE8F88F00F0C2F85C4B04469E420D462FDCA3F550239E4254DC02460B4600F0D5
:403B8000BFF80022544B00F0B9F8002206460F464FF080432046294600F0B2F802460B463046394600F088FB4FF0000B04460D4623E74046494600F0A3F822462B4600F05D
:403BC00051FA02460B462046294600F097F8044605E7434B9E421ADC0022424B00F08EF8002206460F463F4B2046294600F03AFA0022394B00F084F802460B4630463946E8
:403C000000F05AFB4FF0020B04460D46F5E602460B460020344900F04FFB4FF0030B04460D46EAE600222C4B00F068F8002206460F46294B2046294600F062F802460B4679
:403C40003046394600F038FB4FF0010B04460D46D3E600BFAFF3008011DA22E33AAD903FEB0D76244B7BA93F513DD0A0660DB13F6E204CC5CD45B73FFF8300922449C23F3A
:403C80000D5555555555D53F2F6C6A2C44B4A2BF9AFDDE522DDEAD3F6D9A74AFF2B0B33F711623FEC671BC3FC4EB98999999C93F9C7500883CE4377EFFFF0F440000F07F12
:403CC000FB21F93FFB21F9BF182D4454FFFFDB3F684E0000484E00000000F03FFFFFF23FFF7F03400000F83F0000F0BF21F00041704700BF81F0004102E000BF83F0004385
:403D000030B54FEA41044FEA430594EA050F08BF90EA020F1FBF54EA000C55EA020C7FEA645C7FEA655C00F0E2804FEA5454D4EB5555B8BF6D420CDD2C4480EA020281EAFF
:403D4000030382EA000083EA010180EA020281EA0303362D88BF30BD11F0004F4FEA01314FF4801C4CEA113102D0404261EB410113F0004F4FEA03334CEA133302D0524255
:403D800063EB430394EA050F00F0A780A4F10104D5F1200E0DDB02FA0EFC22FA05F2801841F1000103FA0EF2801843FA05F359410EE0A5F120050EF1200E012A03FA0EFC00
:403DC00028BF4CF0020C43FA05F3C01851EBE37101F0004507D54FF0000EDCF1000C7EEB00006EEB0101B1F5801F1BD3B1F5001F0CD349085FEA30004FEA3C0C04F10104DD
:403E00004FEA445212F5800F80F09A80BCF1004F08BF5FEA500C50F1000041EB045141EA050130BD5FEA4C0C404141EB010111F4801FA4F10104E9D191F0000F04BF014669
:403E40000020B1FA81F308BF2033A3F10B03B3F120020CDA0C3208DD02F1140CC2F10C0201FA0CF021FA02F10CE002F11402D8BFC2F1200C01FA02F120FA0CFCDCBF41EA5E
:403E80000C019040E41AA2BF01EB0451294330BD6FEA04041F3C1CDA0C340EDC04F11404C4F1200220FA04F001FA02F340EA030021FA04F345EA030130BDC4F10C04C4F195
:403EC000200220FA02F001FA04F340EA0300294630BD21FA04F0294630BD94F0000F83F4801306BF81F480110134013D4EE77FEA645C18BF7FEA655C29D094EA050F08BF22
:403F000090EA020F05D054EA000C04BF1946104630BD91EA030F1EBF0021002030BD5FEA545C05D14000494128BF41F0004130BD14F580043CBF01F5801130BD01F00045C9
:403F400045F0FE4141F470014FF0000030BD7FEA645C1ABF194610467FEA655C1CBF0B46024650EA013406BF52EA033591EA030F41F4002130BD00BF90F0000F04BF0021FC
:403F8000704730B54FF4806404F132044FF000054FF0000150E700BF90F0000F04BF0021704730B54FF4806404F1320410F0004548BF40424FF000013EE700BF42004FEACB
:403FC000E2014FEA31014FEA02701FBF12F07F4393F07F4F81F06051704792F0000F14BF93F07F4F704730B54FF4607401F0004521F0004120E700BF50EA010208BF70478B
:4040000030B54FF000050AE050EA010208BF704730B511F0004502D5404261EB41014FF4806404F132045FEA915C3FF4DCAE4FF003025FEADC0C18BF03325FEADC0C18BFD2
:40404000033202EBDC02C2F1200300FA03FC20FA02F001FA03FE40EA0E0021FA02F11444C1E600BF70B54FF0FF0C4CF4E06C1CEA11541DBF1CEA135594EA0C0F95EA0C0F82
:4040800000F0DEF82C4481EA030621EA4C5123EA4C5350EA013518BF52EA033541F4801143F4801338D0A0FB02CE4FF00005E1FB02E506F00042E0FB03E54FF00006E1FB21
:4040C00003569CF0000F18BF4EF0010EA4F1FF04B6F5007F64F5407404D25FEA4E0E6D4146EB060642EAC62141EA55514FEAC52040EA5E504FEACE2EB4F1FD0C88BFBCF5BE
:40410000E06F1ED8BEF1004F08BF5FEA500E50F1000041EB045170BD06F0004646EA010140EA020081EA0301B4EB5C04C2BFD4EB0C0541EA045170BD41F480114FF0000EC6
:40414000013C00F3AB8014F1360FDEBF002001F0004170BDC4F10004203C35DA0C341BDC04F11404C4F1200500FA05F320FA04F001FA05F240EA020001F0004221F0004199
:4041800010EBD37021FA04F642EB06015EEA430E08BF20EAD37070BDC4F10C04C4F1200500FA04F320FA05F001FA04F240EA020001F0004110EBD37041F100015EEA430EA6
:4041C00008BF20EAD37070BDC4F1200500FA05F24EEA020E20FA04F301FA05F243EA020321FA04F001F0004121FA04F220EA020000EBD3705EEA430E08BF20EAD37070BDD0
:4042000094F0000F0FD101F00046400041EB010111F4801F08BF013CF7D041EA060195F0000F18BF704703F00046520043EB030313F4801F08BF013DF7D043EA0603704785
:4042400094EA0C0F0CEA135518BF95EA0C0F0CD050EA410618BF52EA4306D1D181EA030101F000414FF0000070BD50EA410606BF1046194652EA430619D094EA0C0F02D199
:4042800050EA013613D195EA0C0F05D152EA03361CBF104619460AD181EA030101F0004141F0FE4141F470014FF0000070BD41F0FE4141F4780170BD70B54FF0FF0C4CF43C
:4042C000E06C1CEA11541DBF1CEA135594EA0C0F95EA0C0F00F0A7F8A4EB050481EA030E52EA03354FEA013100F088804FEA03334FF0805545EA131343EA12634FEA022239
:4043000045EA111545EA10654FEA00260EF000419D4208BF964244F1FD0404F5407402D25B084FEA3202B61A65EB03055B084FEA32024FF480104FF4002CB6EB020E75EB96
:40434000030E22BFB61A754640EA0C005B084FEA3202B6EB020E75EB030E22BFB61A754640EA5C005B084FEA3202B6EB020E75EB030E22BFB61A754640EA9C005B084FEAE6
:404380003202B6EB020E75EB030E22BFB61A754640EADC0055EA060E18D04FEA051545EA16754FEA06164FEAC30343EA52734FEAC2025FEA1C1CC0D111F4801F0BD141EAED
:4043C00000014FF000004FF0004CB6E711F4801F04BF01430020B4F1FD0C88BFBCF5E06F3FF6AFAEB5EB030C04BFB6EB020C5FEA500C50F1000041EB045170BD0EF0004E02
:404400004EEA113114EB5C04C2BFD4EB0C0541EA045170BD41F480114FF0000E013C90E645EA060E8DE60CEA135594EA0C0F08BF95EA0C0F3FF43BAF94EA0C0F0AD150EA06
:4044400001347FF434AF95EA0C0F7FF425AF104619462CE795EA0C0F06D152EA03353FF4FDAE1046194622E750EA410618BF52EA43067FF4C5AE50EA41047FF40DAF52EADA
:4044800043057FF4EBAE12E74FF0FF3C06E000BF4FF0010C02E000BF4FF0010C4DF804CD4FEA410C7FEA6C5C4FEA430C18BF7FEA6C5C1BD001B050EA410C0CBF52EA430C81
:4044C00091EA030F02BF90EA020F0020704710F1000F91EA030F58BF994208BF90422CBFD8176FEAE37040F0010070474FEA410C7FEA6C5C02D150EA013C07D14FEA430C15
:404500007FEA6C5CD6D152EA033CD3D05DF8040B704700BF8446104662468C461946634600E000BF01B5FFF7B7FF002848BF10F1000F01BD4DF808EDFFF7F4FF0CBF0120FC
:4045400000205DF808FB00BF4DF808EDFFF7EAFF34BF012000205DF808FB00BF4DF808EDFFF7E0FF94BF012000205DF808FB00BF4DF808EDFFF7CEFF94BF012000205DF800
:4045800008FB00BF4DF808EDFFF7C4FF34BF012000205DF808FB00BF4FEA4102B2F1E04324BFB3F5001CDCF1FE5C0DD901F0004C4FEAC0024CEA5070B2F1004F40EB830037
:4045C00008BF20F00100704711F0804F21D113F13872BCBF01F00040704741F480114FEA5252C2F11802C2F1200C10FA0CF320FA02F018BF40F001004FEAC1234FEAD323A1
:4046000003FA0CFC40EA0C0023FA02F34FEA4303CCE77FEA625307D150EA01331EBF4FF0FE4040F44000704701F0004040F0FE4040F40000704700BF80F0004002E000BF78
:4046400081F0004142001FBF5FEA410392EA030F7FEA226C7FEA236C6AD04FEA1262D2EB1363C1BFD218414048404140B8BF5B42192B88BF704710F0004F40F4000020F067
:404680007F4018BF404211F0004F41F4000121F07F4118BF494292EA030F3FD0A2F1010241FA03FC10EB0C00C3F1200301FA03F100F0004302D5494260EB4000B0F5000F1B
:4046C00013D3B0F1807F06D340084FEA310102F10102FE2A51D2B1F1004F40EBC25008BF20F0010040EA03007047490040EB000010F4000FA2F10102EDD1B0FA80FCACF1DF
:40470000080CB2EB0C0200FA0CF0AABF00EBC25052421843BCBFD0401843704792F0000F81F4000106BF80F400000132013BB5E74FEA41037FEA226C18BF7FEA236C21D053
:4047400092EA030F04D092F0000F08BF0846704790EA010F1CBF0020704712F07F4F04D1400028BF40F00040704712F100723CBF00F50000704700F0004343F0FE4040F457
:40478000000070477FEA226216BF08467FEA23630146420206BF5FEA412390EA010F40F4800070474FF0000304E000BF10F0004348BF40425FEA000C08BF704743F09643C1
:4047C00001464FF000001CE050EA010208BF70474FF000030AE000BF50EA010208BF704711F0004302D5404261EB41015FEA010C02BF84460146002043F0B64308BFA3F1DC
:404800008053A3F50003BCFA8CF2083AA3EBC25310DB01FA02FC634400FA02FCC2F12002BCF1004F20FA02F243EB020008BF20F00100704702F1200201FA02FCC2F12002ED
:4048400050EA4C0021FA02F243EB020008BF20EADC7070474FF0FF0C1CEAD0521EBF1CEAD15392EA0C0F93EA0C0F6FD01A4480EA010C400218BF5FEA41211ED04FF000638F
:4048800043EA501043EA5111A0FB01310CF00040B1F5000F3EBF490041EAD3715B0040EA010062F17F02FD2A1DD8B3F1004F40EBC25008BF20F00100704790F0000F0CF0A9
:4048C000004C08BF49024CEA502040EA51207F3AC2BFD2F1FF0340EAC250704740F400004FF00003013A5DDC12F1190FDCBF00F000407047C2F10002410021FA02F1C2F1D9
:40490000200200FA02FC5FEA310040F1000053EA4C0308BF20EADC70704792F0000F00F0004C02BF400010F4000F013AF9D040EA0C0093F0000F01F0004C02BF490011F459
:40494000000F013BF9D041EA0C018FE70CEAD15392EA0C0F18BF93EA0C0F0AD030F0004C18BF31F0004CD8D180EA010000F00040704790F0000F17BF90F0004F084691F0CD
:40498000000F91F0004F14D092EA0C0F01D142020FD193EA0C0F03D14B0218BF084608D180EA010000F0004040F0FE4040F40000704740F0FE4040F4400070474FF0FF0C19
:4049C0001CEAD0521EBF1CEAD15392EA0C0F93EA0C0F69D0A2EB030280EA010C49024FEA402037D04FF0805343EA111143EA10130CF000408B4238BF5B0042F17D024FF42B
:404A0000000C8B4224BF5B1A40EA0C00B3EB510F24BFA3EB510340EA5C00B3EB910F24BFA3EB910340EA9C00B3EBD10F24BFA3EBD10340EADC001B0118BF5FEA1C1CE0D1CF
:404A4000FD2A3FF650AF8B4240EBC25008BF20F0010070470CF0004C4CEA50207F32C2BFD2F1FF0340EAC250704740F400004FF00003013A37E792F0000F00F0004C02BF0D
:404A8000400010F4000F013AF9D040EA0C0093F0000F01F0004C02BF490011F4000F013BF9D041EA0C0195E70CEAD15392EA0C0F08D142027FF47DAF93EA0C0F7FF470AF2C
:404AC000084676E793EA0C0F04D14B023FF44CAF08466EE730F0004C18BF31F0004CCAD130F000427FF45CAF31F000437FF43CAF5FE700BF4FF0FF3C06E000BF4FF0010C23
:404B000002E000BF4FF0010C4DF804CD4FEA40024FEA41037FEA226C18BF7FEA236C11D001B052EA530C18BF90EA010F58BFB2EB030088BFC81738BF6FEAE17018BF40F0A1
:404B4000010070477FEA226C02D15FEA402C05D17FEA236CE4D15FEA412CE1D05DF8040B704700BF844608466146FFE70FB5FFF7C9FF002848BF10F1000F0FBD4DF808EDCE
:404B8000FFF7F4FF0CBF012000205DF808FB00BF4DF808EDFFF7EAFF34BF012000205DF808FB00BF4DF808EDFFF7E0FF94BF012000205DF808FB00BF4DF808EDFFF7D2FFCA
:404BC00094BF012000205DF808FB00BF4DF808EDFFF7C8FF34BF012000205DF808FB00BF4FEA4002B2F1FE4F0FD34FF09E03B3EB12620DD94FEA002343F0004310F0004F82
:404C000023FA02F018BF404270474FF00000704712F1610F01D1420205D110F0004008BF6FF0004070474FF000007047014B1868704700BF4CC1FF1F0E4B70B51E460E4C04
:404C40000025E41AA410A54204D056F8253098470135F8E700F01AF9084B094C1E46E41AA4100025A54204D056F8253098470135F8E770BD984E0000984E0000984E0000F4
:404C8000A04E000010B5431E0A44914204D011F8014B03F8014FF8E710BD03460244934202D003F8011BFAE7704700000000000073746172742E2E2E0A000000686F6C6451
:404CC000206D6F64650A00006D616E75616C206D6F64650A000000006175746F206D6F64650A00005B4932435D696E7075742073656C6563743A25640A000000696E707541
:404D0000743D534255530A534255533A253034782C20253034780A006368313A2534642C206368323A2534642C206368363A2534640A0000696E7075743D537469636B0AB6
:404D4000000000007370656564313A2564207370656564323A25640A00000000737469636B2074696D656F7574210A00696E7075743D4932430A00004348393A307825305E
:404D800032782530327820434831303A307825303278253032780A004553432072706D3A253464202534640A000000004241544C6576656C3A25640A000000004553432095
:404DC00054696D656F75743A25642025640A00004932432054696D656F75743A25640A00C84900401900004F0040180040510040300000000140800400050140000B001488
:404E00000140800400190140000300400140000A004C0140000200500140200060520040E40F0048060000510140EC0F0048080080040140F40F0048800080180140741088
:404E40000048800000000000E2652F227F2B7A3C075C143326A6813CBDCBF07A8807703C075C143326A6913C4FBB610567ACDD3F182D4454FB21E93F9BF681D20B73EF3F7F
:404E8000182D4454FB21F93F43000000F8B500BFF8BC08BC9E4670474D000000611D0000F8B500BFF8BC08BC9E46704729000000C04E0000C8C0FF1F88000000C805000083
:404EC00000000000FFFFFFFFFF0000007F800000030000000000E02EC05D00001800000000366E0100000000000000000000000000000000000000000000000000000000CD
:404F000000000000884E000000000000000000000000000000000000000000000000000000000000000000000000000000000000000000000000000000000000000000009B
:404F400000000000ECC0FF1F000000000000000000000000000000000000000000000000000000000000000000000000000000000000000000000000000000000000000067
:404F800000000000000000000000000000000000000000000000000000000000000000000000000000000000000000000000000000000000000000000000000000000000F1
:404FC00000000000000000000000000000000000000000000000000000000000000000000000000000000000000000000000000000000000000000000000000000000000B1
:405000000000000000000000000000000000000000000000000000000000000000000000000000000000000000000000000000000000000000000000000000000000000070
:405040000000000000000000000000000000000000000000000000000000000000000000000000000000000000000000000000000000000000000000000000000000000030
:020000040001F9
:0200000480007A
:40000000024F004009520040015B004008640040066500404500014038010140600201405303014016040140550501405E0601405307014045080140540901406E0A01404C
:400040004E0B0140500C0140590D0140450E01403F0F0140351401404C1501405316014048170140151801404C190140371A0140521B01400F4001401C41014017420140ED
:400080000B430140034401400B4501400D46014006470140094801400E490140114C01400A4D01400C500140015101400A4B164B0021016004C008400C80102A112618028B
:4000C0001C012784813C8272840F8672870D890F8D0F8F0F84388571863C89388A718B0540244105450C46BE480D49FF4AFF4BFF4EF04F44500C580459045A045C115D0297
:400100005F0166C06A406B02820D83F98502861089608A308B108DFF8E109030911793E895F99608970698029A049C089DB19E059F40A140A230A320A430A566A799A906F6
:40014000AD04AE0DB020B180B203B370B410B507B60CB70EB80ABA80BBA8D41CD604D804D904DB04DC33DD30DF01020A032005100682071008110D900E100F80108011048B
:40018000160117051D801E58241025212610271528022B202C082D802F5030A132083745390C3C103E0B3F80408449544B2052905E025F08674A7D038218840187408904FF
:4001C0008E81C0F7C2FAC4BCCAFACCDFCEF2D005D208D6C0D8B0E003E2840051028404C705E308C709E30D810F261042113512911342180119201A0E1BC8242028202C20EB
:4002000030C0310C32183310340735E0362037033E043F01402441054206440145C047E0482249FF4AFF4BFF4C624DA04EF04F41500C56025710580459045A045B045C3371
:400240005D335F016640670269106A306B106D106E106F12812083038431851086C6870C89148CAC8D1C8E438F02928C99109D099E539F10A031A24EA608A830AA40AD0C4E
:40028000AF11B00FB11FB320B4F0B68AB920BAA2BF14D804D904DC22DF010004030204280540078208800A800E84102012041302154016201710188419401B021D081E95FB
:4002C000200821012310254226202760282029442A04302032403622388439023A103DAA3E21452147404FE156025C406D686F10740875807608840485108B109101924059
:4003000094049528960197AA981099049A109B019C819DC09E089F48A120A294A488A601A760B0B2B202B580C075C259C4EECA08CCACCE7FD0B0D230D610E202E684EE02A3
:40034000051D0D100F0517041D202102230C2D1D310433203518370339A03F1554015604580459045B045C215D205F01002003200401072508100A200D220E211081121012
:4003800015041C511D201F502008224423802544260A2708288029402A012F0A31043280360A38843D023F54440445094F52560858225A085B806010620463A078027A804F
:4003C0007D207F0484408504863087408F40908491019251930594689508968097EA983099449A029B259C819F08A10AA294A4A0A601A730AA02AB04AF84C0F6C2F6C42D9E
:40040000CA39CCCACEFAD0E0D230D60FD801E202E642EA04EE0802F9030104F90504060608FF09040C400E200F021066129914B11640170118171AE81C601E1020042402D2
:40044000270228062D0430703104320E34073502368037013A2A3F50404249FF4AFF4BFF4F01501856025711580459045A045B045C335D345F016040624064406540668050
:4004800068806A806C806E808A048E0292019A01B001B202B404BE01C042C5ECC620C80BC9FFCAFFCBFFCD83CE03CF01D018D401D604D804D904DA04DB04DC11DD44DF01B5
:4004C000E040E240E440E540E680E880EA80EC80EE80016004440510074009A20B020D500E100F8017291AA81B201C041E021F1A2591274028902C022E083081321434047A
:40050000351036283A203D943F02412245224905512059055A805E20634067306C166D14772979A07B0A8020810482108340841086208A048B40910192509301942896206B
:40054000971298109A0E9C459E01A004A144A224A301A4B0A511A601A72AAC10AD04C0F3C2FAC470CA53CC4FCEF4D0A5D62BD801E008E220E404E64002200410060C0820CC
:400580000A400C14141C160218401A031C091E102410280C2A112B01341F366037013E405608580459045B045C155D905F018566871889148B688D668F0893109580972A02
:4005C00099069B28A701B1C0B320B51EB701B902BB20BF04C026C104C5ECC6EBC80FC9FFCAFFCBFFCEF0CF44D00CD401D604D804D904DA04DB04DC51DD55DF01E6C0EA40A9
:40060000EB020020032104020508060107040B080D200E221141120C161017201D201F402004210422012341270128202D012F28303832013608370138543CA03D403E2270
:40064000404442404828490150105240581059815A085C80638066806C016F04832084408501872089848A028B048F40901092589424974899089A119B209C409E449F018E
:40068000A008A140A211A504A808AA80AE01B584C0F7C2E2C46BCAE2CCC7CEBED005D204D61FD811E080E640EC02030304C105100616070C089C09200A030D090E1C0F10F9
:4006C00010C1120E19101D402020210C23112608291C2A432B022D14301A311F320F332034C03620374038203A0A3E503F444003464049FF4A074BFF4C404D204EF04F05C1
:400700005008580459045A045C555D055F01604061A86240632080038204871088D38A0C8B078F019338942095389645970799039B1C9E08A48AA503A614A72CA8D3AA040C
:40074000B101B2C0B334B40FB51EB630B888BA20BB28BE04BF01C036C102C5E0C60CC7B0C826C9FFCAFFCBFFCEF0CF44D00CD203D302D804D904DA04DB04DC55DD15DF01B3
:40078000E6C0EA40EB0200140160051006800A400D040E020F201008110112201724181019011A461D181E021F20210122842610276429212A402C102D082F20326036013F
:4007C0003724382439433B403FA44108441047204D024E404F205104521056815740621063046D806E106F0287119320960497089C489D829E849F41A008A220A702A804F6
:40080000AA90AB20AC10AE10B201B501C057C2A8C46ECA4DCCECCE7FD062D220E808EA04EC05040106021A022401260228012A02340338203E104002474049FF4A074BFFBA
:400840004C404D204EF04F0550085401580459045A045B0C5C115D135F01604061A86240632081068301850788078B078C058D048E028F039007910798079C07A003A10105
:40088000A204A306A507AA07B001B101B202B302B404B504C002C640C9FFCA07CBFFCC40CD20CEF0CF05D008D401D604D804D904DA04DB04DC11DD55DF01E040E1A8E240D2
:4008C000E32002040301052006440710084009020B080C500D100E400F1411011310160A1705181819011D2020202211284029082A042B402D082E402F04310237013902FC
:400900003A403B983D013E013F9041014204430145204F04500852205701580859025B605D805F4060407F02805087048A028B04924193B0952097489A089B149C109D208B
:400940009F01A102A210A741AF40B028B1A8B201B341B60CB701C073C2FBC4FACA73CC81CEBFD024D61FD801DE10E401E810EA20EC80EE20250135013F10580459045C11B2
:400980005F0180058308841C857A86838785880F89408AC08C228E0C932094089523967097CC99439A809BB49C049E18A010A208A403A502A6BCA704AA80AB85AF78B080B0
:4009C000B27FB31FB591B760BA20BBA8BE01C023C106C50CC60BC70EC815C9FFCAFFCBFFCEF0CF44D00CD401D604D804D904DA04DB04DC33DD33DF01E6C0EA40EB0201A013
:400A0000048006480710088009020A400B080E200F0610081101153017061C401E301F10230824082716288029202A042B402D182E8030083102371639013B883E183F02D8
:400A4000441047104C044D084F0456445C605F0964408040828083408502884089018B108F14C0F3C2EBC47ACA77CCE3CEEBD060D220D6F0D880E280E480E6500B011F0126
:400A800035013F1054185604580459045B045C115D505F018081843986C488E78A188D0D8EE69101930C94189A019C999E629F08A010A408A50DA901AB0CACFFAD08AF025E
:400AC000B058B108B21FB301B498B502B638B704B980BA2ABF04D602D712D804D904DB04DC55DD50DF01018003200544068808A10C080D200E021090178A1D051F58230417
:400B000025A02604274028A029802E882F1830013180320833203541360139043A103D804002434058025E08628063846C157408770A816083408490858086808880894031
:400B40008A0A8B809104942A95409780983199409A109C809DA09E88A280A320A490A602AE20AF40C0F5C2EBC4BCCA7BCC9FCE16D641D80DE208E607EA01EC20EE8000019F
:400B80000313040105160701080109010B020F08120419171E021F0123082515270229072A022B102E0431033204331034023504360137083B023E143F5040214105420347
:400BC000440446EC480C49FF4AFF4BFF4C624DA04EF04F41500C541C5604580459045A045B045C355D355F016640670269106A306B106D106E106F12C006C640C9FFCA0746
:400C0000CBFFCC40CD20CEF0CF05D008D280D804D904DA04DB04DC11DD42DF01E040E1A8E240E32001800320042A08810A200E400F011090110416061DE01F04244026980F
:400C4000274028A029802F58308133203620374039043D0A3E103F80458046A848044E0250205201561057405D015E0864406640670871028401852086409101927093217C
:400C80009440954098309A069CC19D209E01A004A105A224A328A4B0A502A618C075C29DC4CCCAEBCC3DCEF2D0F0D214D6C0D8B0E206EC01020209040A0412011504180137
:400CC0001D011E042F033003330134043504370239203E103F105804590C5C195F010018020104200680084109080E8911401222131216101708181019011A091B041C049C
:400D00001E801F012110222123122504268427082A022B062F0130E83680370439403A083B113E104020411143024A024B10501052015A02600463827D808340844485015B
:400D400088218A048B018F04921093899A809B019C209E24A140A320A440A504A708A880C057C2DDC40FCA1DCC5ECE2FD007D20CD601D80DDE1005011101190131013B206E
:400D800056025713580459045B045C515D505F01810282048408850189208A418B108C018D808F40911092209320940495089A089B029D04A140A282A380A610A708A802BA
:400DC000AB04AF01B040B280B41FB5FFB620B820BE10BF10D602D735D804D904DB0CDC01DD10DF010040032004400508060807400BA80C040E4810011320160417261CC0D9
:400E00001D201E201F5120082110220227042C042D082F653002321034033614376139043D203E4A59015E106610680269046A206D206E486F4870A87108760A77027D8057
:400E4000820483408402852089108A208B409210930899019A109B019E24A140A320A4ECA508A602A708B208B342B420B602C0F5C27EC473CAF0CCF5CEF2D621D820DE105A
:400E8000E6A0EA01EC20EE801302168032203302340837103A013B203E8087108840C430CCF0CE70E6400A040F013042361037083B205620602063026708800885048A20D6
:400EC00098409B029C089E019F10A702AE20C2C0CCF0CE10D440D640D8C0E660EE403E1058085C085D0486108F10910497289B029F18A402A610A703AA01AB01AC20AE0497
:400F0000CE20D6C0E610E8C0EA20EE101B011F048B108F08961097289B029F08A402A703C63010101420C40C51015240571059045C40660183109830D407D606D801190153
:400F4000250298309D01A840A905AE40B101B601C608C801E804EC02440198309B02A102AF02D004208080029610A402A702AB02C840E220EC8002105620830286109A201D
:400F8000A702AA10B040B220C010D440E040E220EA800E081040132014805F0278107C208D0298309B029C01A102C201C40ED601DE03E60878407C8098C0AB20B001B60439
:400FC000DC01DE04EA02EC04003E0101080E0A1E0C220D010E2A103E11011A3E1C221D01100A00002030000030000000FFFF0FC0000000000000011300200404001F04008A
:40100000271F4800010002047D04021A6600110000005B00000000007F0000000004001900000010202040071C1003080080A008000001006405020003C0000E12FFFFFFCE
:4010400062A0F0410C0000000000000004040400330300010000000000004002001030100010101200000000000000000000000000000000000000101F1E00C119F3060CFE
:40108000000020E308000000180C000000040000100800001991060000002000079C182300FF040001011C8C200E027C8000088800001100650402000300E0C028FFFFFF8A
:4010C00062A0F0410C00000018000400040404045555000100000000000040020010301000101012000000000000000000000000000000000100C0F13100710000000000C2
:401100003000000030003000000000000030300000000000C00000FB7B0040000000000000C0C000003F3F0001000003020002000000000000010000000000000000000042
:40114000000000000000000000000000000000000000000000000000000000000000000000000000000000000000000000000000000000000000000000000000000000006F
:40118000000000000000000000000000000000000000000000000000000000000000000000000000000000000000000000000000000000000000000000000000000000002F
:4011C00000000000000000000000000000000000000000000000000000000000000000000000000000000000000000000000000000000000000000000000000000000000EF
:4012000000000000000000000000000000000000000000000000000000000000000000000000000000000000000000000000000000000000000000000000000000000000AE
:0200000490006A
:0400000000004005B7
:0200000490105A
:04000000BC90ACAF55
:0200000490303A
:0200000035F8D1
:0200000490402A
:4000000000000000000000000000000000000000000000000000000000000000000000000000000000000000000000000000000000000000000000000000000000000000C0
:400040000000000000000000000000000000000000000000000000000000000000000000000000000000000000000000000000000000000000000000000000000000000080
:0200000490501A
:0C00000000012E15906900012E39C66128
:00000001FF